:040000001EC0FECF51
:10000400FDCFFCCFFBCFFACFF9CFF8CFF7CFF6CFA8
:10001400F5CFF4CFF3CFF2CFF1CFF0CFEFCFEECFD8
:10002400EDCF566F6C746167650020566F6C740079
:1000340080C00200680134000000F894EE27ECBB95
:10004400F1E0FBBFEBBFE5BFF8E1F1BDE1BD8DE041
:10005400A2E0BB27ED938A95E9F780E094E0A0E65F
:10006400ED930197E9F7E6E3F0E085919591009728
:1000740061F0A591B59105901590BF01F00105902F
:100084000D920197E1F7FB01F0CFEFE5EDBFE4E05E
:10009400EEBFC0E6D1E038C0E881E06CE7B98DE09E
:1000A4008A95F1F7369A349BFECF349AE4B1F5B1D0
:1000B4005DC15ED15DD1DAD0E6E2F0E0FA93EA9375
:1000C40009D156D1E1E0EA93D1D055D1E8EEF3E07D
:1000D40060E070E059D14FD1E4E6F0E060E070E018
:1000E40053D1EEE2EA93DFD05DD14ED15BD1E4D1BE
:1000F400E05DFF4F6F4F7F4FEA93D5D0EEE2F0E023
:10010400FA93EA93E7D00895E0E0E8BBE7EFE7BBB2
:10011400E0E0E5BBE4BBE0ECE2BBEFE3E1BBE0E045
:10012400E3BFE2BFEFBDEEBDEDBDECBDE7BDE6BD97
:10013400EBBDEABDE9BDE8BDE2BDE5BDE4BDE3BD9F
:10014400E5BFE9BFE0E8E8B9E0E0E0BFE0ECE7B92B
:10015400E2E8E6B9E0E1EA93DDD07894A0E086999C
:10016400A1E0A03019F424D1B5D108F006C029D1FA
:10017400319760407040A9D12DD1A0E08799A1E0CA
:10018400A03049F415D1AF33E0E0BE07E0E08E07BC
:10019400E0E09E0708F006C014D11CD196D1319737
:1001A40060407040E2B3E07CE2BBE2B3AE2FE0918A
:1001B4006401F09165016091660170916701BB274C
:1001C400882799272AD1E2BBD3D066DF6627772711
:1001D40006D1D1D0E0E0FAE060E070E028D1DF01A0
:1001E400CB01E0E0F4E060E070E041D166277727DE
:1001F40019D1F5D05EDFB2CFFFCFFFE0FA95F1F76A
:100204000895A7B3AF70A7BBC19AC098F6DFC29A8E
:10021400F4DFA6B3C298F1DFC29AEFDFC298A7FD5C
:10022400F5CF0895A07FAB2BA8BBC29AE6DFC29896
:10023400E4DF0895C198A7B3A76FA7BBB8B3BF7095
:10024400A881F0DFA881A295EDDFC19A8FC0C29A80
:10025400D4DFE6B3C298D1DFE07F0895CEDFF7DFC5
:10026400AE2FF5DFC198E295EA2B0895CADFC0D01E
:10027400E859FE4FE081F0E0DF01E981F0E0EA0FA8
:10028400FB1FB9D05980488022960895BADFE2E076
:10029400B2D0B7DFECE0AFD0B4DFE1E0ACD0E0E067
:1002A4004E2E5E2E0895EF93FF93A8816894AA3092
:1002B40019F0E894571428F043945AD04A92D6DFA0
:1002C40036F053949EDFC09AA881AA93B3DFFF91BE
:1002D400EF914CC01A93E981FA813196E983FA834C
:1002E4003197E4911E2FE03019F01A93DCDFF3CF3D
:1002F400188123960895AA27BB271197F1F708952B
:10030400C198A7B3A76FA7BBB8B3BF70A8818ADF92
:10031400C19A2CC0C298C09878806AD0E058FF4F28
:10032400E0936A0165D0E054FF4FE0936B0165D020
:1003340064D063D0E0DFE0E2EA93E2DFDCDFE8E20E
:100344005AD0D9DFE4E057D0D6DFE5E854D0D3DF84
:10035400A7B3AF70A7BBC19A81DFE53011F0E0E02D
:1003640005C04FDFE6E047D091DFE1E02196089534
:10037400E0E0EA930895A0916001B0916101809159
:10038400620190916301089572D0DF01CB01EAE02C
:10039400F0E060E070E090D0E05DFF4F6F4F7F4F82
:1003A400EA9381CFE8DFEAE0F0E060E070E00895EE
:1003B400A0916401B09165018091660190916701FB
:1003C4000895E8ECF0E0FA93EA931BD0A4E6B1E0D8
:1003D40077D00895EF5FFF4F6F4F7F4F0895E093FD
:1003E4006001F09361016093620170936301089569
:1003F400E881F0E00895EA931DCF7DDFE0E3EA931E
:100404007FCFE991F991309639F088EE93E0019726
:10041400F1F7A8953197C9F70895EA2BFB2B682BC0
:10042400792B08956F2F660F660B762F08957A9FA8
:10043400702D6B9F700DF89F700DE99F700D6A9F72
:10044400602D710DFB9F600D711DE89F600D711D86
:100454008827FA9FF02D610D781FEB9FF00D611D29
:10046400781FEA9FE02DF10D681F781F08953F93D0
:100474004F935F93002411244427552730E2AA0F99
:10048400BB1F881F991F001C111C441F551F0E1AE7
:100494001F0A460B570B28F40E0E1F1E461F571F2C
:1004A40001C0A1603A9559F7FD01BC01D001CA0110
:1004B4005F914F913F910895DADFFD01BC010895EA
:1004C400ED91FD916D917D9108957E936E93FE93D0
:1004D400EE93089500240A160B06080609060895EB
:00000001FF
