:080000000C944A030C9400006B
:100008000C9400000C9400000C9400000C94000068
:100018000C9400000C9400000C9400000C94000058
:100028000C9400000C9400000C9400000C94000048
:100038000C9400000C9400000C9400000C94000038
:100048000C9400000C9400000C94000000000000C8
:100058000000003E4551453E003E6B6F6B3E001C64
:100068003E7C3E1C00183C7E3C180030367F363003
:1000780000185C7E5C18000018180000FFFFE7E716
:10008800FFFF003C24243C00FFC3DBDBC3FF003040
:10009800484A360E0006297929060060703F020496
:1000A80000607E0A353F002A1C361C2A00007F3E6D
:1000B8001C0800081C3E7F000014367F3614000020
:1000C8005F005F000006097F017F00224D5559221D
:1000D8000060606060000014B6FFB6140004067F7C
:1000E80006040010307F30100008083E1C08000885
:1000F8001C3E080800784040404000083E083E0882
:1001080000303C3F3C3000030F3F0F03000000006D
:1001180000000000065F0600000703000703002434
:100128007E247E2400242B6A120000631308646373
:1001380000364956205000000703000000003E41E9
:1001480000000000413E000000083E1C3E08000878
:10015800083E08080000E0600000000808080808D9
:10016800000060600000002010080402003E4141C9
:10017800413E0000427F400000625149494600224A
:1001880049494936001814127F10002F494949314E
:10019800003C4A49493000017109050300364949C4
:1001A800493600064949291E00006C6C0000000011
:1001B800EC6C0000000814224100002424242424AC
:1001C800000041221408000201590906003E415D61
:1001D800551E007E1111117E007F49494936003EA7
:1001E80041414122007F4141413E007F4949494107
:1001F800007F09090901003E4149497A007F080842
:10020800087F0000417F410000304040403F007FB0
:1002180008142241007F40404040007F0204027FD2
:10022800007F0204087F003E4141413E007F0909EA
:100238000906003E4151215E007F09091966002622
:10024800494949320001017F0101003F4040403FD8
:10025800001F2040201F003F403C403F006314081F
:10026800146300070870080700714945430000003F
:100278007F414100000204081020000041417F0036
:10028800000402010204808080808080000003074F
:100298000000002054545478007F44444438003807
:1002A8004444442800384444447F00385454540893
:1002B80000087E0909000018A4A4A47C007F040497
:1002C80078000000007D4000004080847D00007FB1
:1002D800102844000000007F4000007C04180478C7
:1002E800007C0404780000384444443800FC44444A
:1002F80044380038444444FC004478440408000866
:100308005454542000043E442400003C40207C0007
:10031800001C2040201C003C6030603C006C101029
:100328006C00009CA0603C00006454544C00000821
:100338003E414100000000770000000041413E08B6
:10034800000201020100003C2623263C441144110E
:100358004411AA55AA55AA55BBEEBBEEBBEE000048
:1003680000FF0000080808FF00000A0A0AFF000052
:1003780008FF00FF000008F808F800000A0A0AFE53
:1003880000000AFB00FF000000FF00FF00000AFA5F
:1003980002FE00000A0B080F0000080F080F0000FB
:1003A8000A0A0A0F0000080808F800000000000FF9
:1003B80008080808080F0808080808F808080000CE
:1003C80000FF0808080808080808080808FF0808BF
:1003D800000000FF0A0A00FF00FF0808000F080BD2
:1003E8000A0A00FE02FA0A0A0A0B080B0A0A0AFAA3
:1003F80002FA0A0A00FF00FB0A0A0A0A0A0A0A0A9B
:100408000AFB00FB0A0A0A0A0A0B0A0A080F080F65
:1004180008080A0A0AFA0A0A08F808F80808000F79
:10042800080F08080000000F0A0A000000FE0A0A68
:1004380000F808F8080808FF08FF0808007E4B4A7B
:100448004B420A0A0AFF0A0A0808080F00000000BF
:1004580000F80808FFFFFFFFFFFFF0F0F0F0F0F0F2
:10046800FFFFFF000000000000FFFFFF0F0F0F0F4E
:100478000F0F003E494941220038545444280001D6
:10048800407E40010000017C41000027484B483F66
:10049800009DA2623D000006090906000038555477
:1004A800550800001818000000000800000000307F
:1004B800403E02027F06187F13132A3E14143E2A78
:1004C800003C3C3C3C00000000000000007E111194
:1004D800117E007F49494931007F49494936007FEB
:1004E80001010101C07E41417FC0007F4949494166
:1004F8000077087F0877224949493600007F201095
:10050800087F007E2111097E007F081422410040E7
:100518007E01017F007F0204027F007F0808087FB8
:10052800003E4141413E007F0101017F007F0909F2
:100538000906003E414141220001017F01010027D7
:100548004848483F000E117F110E006314081463D9
:10055800007F40407FC000070808087F007F407F79
:10056800407F007F407F40FF03017F484830007F85
:100578004848307F007F4848483000224149493E7A
:10058800007F083E413E00661909097F0020545447
:100598005478003C4A4A4A31007C54545428007C20
:1005A80004040C00C07844447CC0003854545408F7
:1005B800006C107C106C002844545428007C2010D7
:1005C800087C007C20120A7C007C102844004038FB
:1005D80004047C00007C0810087C007C1010107C4F
:1005E800003844444438007C0404047C00FC44443F
:1005F80044380038444444280004047C0404009C23
:10060800A0603C000018247C2418006C10106C00BA
:10061800007C40407CC0000C1010107C007C407CAA
:10062800407C007C407C40FC0C047C505020007CCA
:100638005050207C007C505050200028445454389E
:10064800007C1038443800483414147C010000063B
:100658000C12181E242A30363C42484E545A606602
:100668006C72E8EDE4E8EAE0F2EEF020CCDDCBD203
:100678002031323233320000010075015406140073
:1006880077015606150060016A060000F894EE2707
:10069800ECBBF1E0FBBFEBBFE5BFF8E1F1BDE1BDAD
:1006A8008DE0A2E0BB27ED938A95E9F780E094E01E
:1006B800A0E6ED930197E9F7E0E8F6E085919591DA
:1006C800009761F0A591B59105901590BF01F001D3
:1006D80005900D920197E1F7FB01F0CFEFE5EDBF33
:1006E800E4E0EEBFC0E6D1E00C943304EFEFE5BBE5
:1006F800E4BBE8BBE7BB08951A93E0E0E4BBEFEF87
:10070800E5BBC39AC2988BE08A95F1F7C4988BE150
:100718008A95F1F713B38BE18A95F1F7C49A17FD1F
:10072800F5CFEFEFE4BBE0E0E5BB19910895C3987E
:100738008BE08A95F1F7C498E881E5BB8BE18A954F
:10074800F1F7C49A08C0D8DFC29802C0D5DFC29AB0
:10075800E881EA93ECDF21960895C09891D0C09A79
:100768008FD0C19A93D0E1EA9DD0C1988FD0E0EAAA
:1007780099D008951A930A931B8100E0EA811E1705
:1007880090F40D3318F4C19A0D5E02C0C1980D5350
:10079800E8EB90D0E9EB8ED0EAEB8CD0EBEB8AD08B
:1007A8001F5F012FEBCF19810881249608950E94BD
:1007B8007604AF81EBEBEA1B3E2FEE81F0E00F01F0
:1007C8000E947104DF01F001EE0FFF1FEA0FFB1F0B
:1007D800AF01E885F0E0E958FE4F0081088710E096
:1007E800163010F50D3318F4C19A0D5E02C0C19889
:1007F8000D53FA01EC5AFF4F04900E82E0917601F6
:10080800E03019F0EE81E095EE833A939CDF0A938D
:100818009ADFEE81EA939ADFE885EF5FE88708853B
:100828004F5F5F4F1F5FDCCF0E947D0429960895BC
:100838001A9310E0A981BA81EC91E03069F01D911A
:10084800A983BA83EC81EA93EC81EA931A93AFDF28
:10085800EC81EF5FEC83EECF18812596089546DF93
:100868007CDFE0E0EA93EAE7EA9384DFE0E0EA93FA
:10087800EA93E0E6F1E0FA93EA93DADFFFCFFFCFFD
:10088800E0E9F1E0FA93EA930C946504EEEEEA935A
:100898005ADFE4EAEA9357DFE9EAEA9354DFEFEA3A
:1008A800EA9351CFEA934FDFE2EEEA934CDFE0ECB4
:1008B800EA9349CFEA9347DF0A9345DFE0E0EA93FA
:1008C80045CFE991F991309639F080EA9FE0019798
:1008D800F1F7A8953197C9F70895EE0FFF1FEE0FAE
:1008E800FF1F08955A934A933A932A931A930A93A7
:1008F80008955D814C813B812A8119810881089581
:00000001FF
