:10000000012890007D30BF002C2094218312050828
:100010000839031D112805080839031D10280B286D
:10002000D5201130A300A400A5003808A600370889
:10003000A7003608A8003508A9001130AA007D30B5
:100040003F020319242800284D226C2205287D3008
:100050003F0203192C2800280130831681008B01F0
:10006000960138308500FF309500990107308312E2
:10007000990085015D21B301B401B501B601B70155
:10008000B801B901BA01BB01BC010130C000512067
:10009000BE000230C0005120BD000130B0005D2222
:1000A0000800400883169B001C141A080800410829
:1000B00083169B0042089A0083161C158B1355303B
:1000C0009D00AA309D009C148B179C1C68286528F5
:1000D0001C118312080075216C21FA30AE007A21C0
:1000E000FA30AE007A213230AE007A217521FA3032
:1000F000AE007A21FA30AE007A213230AE007A2199
:100100000800C701083047020318AE28431C98288E
:1001100083120508EF39850083160508EF3985003D
:1001200000000508103885003D30AE007A21A72870
:1001300083120508EF39850083160508EF3985001D
:100140003D30AE007A21831605081038850043083B
:10015000A000200C7F39C300C70A82280800C8010C
:10016000083048020318D32883120508EF398500A8
:1001700083160508EF3985001038850000008312CA
:10018000051EC9284708A000200C7F398038C70009
:10019000CE284708A000200C7F39C7003D30AE00B4
:1001A0007A21C80AB028470808005D210130C5003F
:1001B0004508AB004D228312851D3F294508AB0041
:1001C00001304502031D0D293D08C6003D08643C71
:1001D0000318F02864303D02C6000130A900F2285F
:1001E0001130A9004608AF000522A000A00CA00C09
:1001F000A00C200C0F39A8004608AF0005220F39CB
:10020000A700831205082039031D0D297D303D020A
:1002100003180C29BD0A0D29BD0102304502031D3A
:100220003A293E08C6003E08643C03181D29643084
:100230003E02C6000130A9001F291130A90046085E
:10024000AF000522A000A00CA00CA00C200C0F39C0
:10025000A8004608AF0005220F39A7008312050841
:100260002039031D3A297D303E0203183929BE0A80
:100270003A29BE014D22FF30AC008521DB28AA229D
:100280001E3C031850290130C1003E08C20057200F
:100290000230C1003D08C20057205D2108005B29E3
:1002A0004D2201304502031D58290230C5005A294C
:1002B0000130C5004D224D22D828C7010A3047021F
:1002C00003186B291130A0004708223E8400200843
:1002D0008000C70A5E29080083120508EF398500EF
:1002E00083160508EF3985000800831605081038C5
:1002F00085000800AE0CAE0C3F30AE050330AE02F8
:100300000000AE0B8029000008008E30AD00000018
:1003100000000000000000000000AD0B8929000073
:10032000AC0B8529000008006B20CC30C300812075
:100330004430C3008120FF30AC008521FF30AC0089
:100340008521FF30AC008521FF30AC0085216B207A
:10035000CC30C3008120BE30C3008120AF20B40068
:10036000AF20B300A000200EF039F039C5003408EA
:10037000A000A00CA00CA00C200C0F394504C50057
:10038000C51FE4290130B2004509C5003409B40095
:100390000F39B400B40A341ECE29C50A3408B1009E
:1003A000B1170F30B6001130B5004508AF00052277
:1003B000C600A000A00CA00CA00C200C0F39B700A8
:1003C00046080F39B800042A1130B500B6004508B8
:1003D000B100B2014508633C0318F32964304502BB
:1003E000C5000130B6004508AF000522C60045082B
:1003F000B9004608A000A00CA00CA00C200C0F39DE
:10040000B70046080F39B80008002F0CA000200CD8
:100410003F392F07A000200C7F392F07A000200CA8
:100420007F39A000A00C200C3F392F07A000200C22
:100430007F392F07A000200E0F39A000A100A10DC9
:10044000210DFC392007A100210DFE392F02A1004A
:10045000200EF03921070800C408031D312A0A3094
:10046000C40011304402031D362AC401C9010430FE
:10047000490203184C2A851444080839083C031D16
:10048000432A0515442A05114408A000200DFE3911
:10049000C4008510C90A372A08000A30C700470877
:1004A000003C03185C2A01304702223E8400000809
:1004B000C4002C22C7034F2A0800FA30AC00852163
:1004C000FA30AC008521FA30AC008521FA30AC005E
:1004D0008521B00B5D2A080032080319742A8312A3
:1004E000050801388500A92A3D083E020318882A1C
:1004F00031083E02031C802A83120508013885005A
:100500003D083102031C872A0508FE3985000800D2
:100510003E083D0203189A2A3E083102031C932A22
:1005200005080138850031083D02031C9A2A050898
:10053000FE3985003E083D02031DA92A31083E020E
:10054000031CA62A050801388500A92A0508FE39DA
:1005500085000800C701831205080839031DB52A64
:0E056000C70A6430AC008521AB2A47080800AA
:02400E0044303C
:00000001FF
