:03000000020F08E4
:0C0F0800787FE4F6D8FD75815D020B7364
:100D7200202020204C5443323434302054455354E4
:100D820000204449474954414C20564F4C544D454C
:100D92005445522000494E5055543A2000257320A4
:100DA200202020002B2B2B204F564C202B2B2B208E
:100DB200002D2D2D20554E46202D2D2D2000252B8A
:0B0DC200312E376620560000000000B4
:100B730078227C007D007BFF7A0D79C97E007F049B
:100B830012059BE4F52AF529F528F527F539F53DF6
:100B9300F53CF53BF53AF541F540F53FF53E120ED0
:100BA3001F120F287F0C120F14120EFB7BFF7A0DFE
:100BB3007972120EA0E4FD7F01120E4D7BFF7A0DB8
:100BC3007983120EA07F307E757D007C00120E8526
:100BD300120EFBE4FDFF120E4D7BFF7A0D79971287
:100BE3000EA0120EEE400E7F2C7E017D007C0012C3
:100BF3000E85020CFF7B007A007922120D128F26DC
:100C03007B007A007922120F2D8F2A8E298D288C52
:100C130027E526B420147545FF75460D75479F7566
:100C230048FF75490D754AA68017E526B4401E7521
:100C330045FF75460D75479F7548FF75490D754A04
:100C4300B37B007A00792B120760020CFFE526B410
:100C53003017AF2AAE29AD28AC27E412019BE4FB81
:100C6300FAF9784E1200FE8024E526B45027AF2A05
:100C7300AE29AD28AC27E412019BE4FBFAF9784EC8
:100C83001200FEE4FBFA798078BF12000A8F3D8ED2
:100C93003C8D3B8C3AAF390539EFC39405501DAFFA
:100CA30041AE40AD3FAC3EAB3DAA3CA93BA83A1296
:100CB300000A8F418E408D3F8C3E80407545FF7505
:100CC300460D7547C0E53914FCE41201A5A804A933
:100CD30005AA06AB07AF41AE40AD3FAC3E1200FEE6
:100CE3008F4B8E4A8D498C487B007A00792B1207F3
:100CF30060E4F539F541F540F53FF53E7D07E4FF46
:0F0D0300120E4D7B007A00792B120EA0020BE529
:100DCD00E4FFC290D2903091027F80C290D29030D9
:100DDD009103430740C290D290309103430720C244
:100DED0090D290309103430710C290D2903091036E
:100DFD00430708C290D290309103430704C290D2AA
:100E0D0090309103430702C290D290309103430773
:010E1D0001D3
:010E1E0022B1
:100D1200C292120DCDEF120607120DCD900001EF17
:100D2200120619120DCD900002EF120619120DCD06
:100D3200900003EF120619C290D2921205C1FF541D
:100D420020FEEF5410FDEF541F120607EE6006ED71
:100D520060037F2022EE6006ED70037F3022EE708A
:0F0D620006ED60037F5022EE7005ED70027F40BA
:010D7100225F
:040F2D0012065A222C
:050F2800C290D29222EC
:0D0EEE00C292309104D292C322D292D3223C
:0E0E77009000007430F07F647E007D007C00EF
:100E85008F458E448D438C42784274FF12067CE474
:0B0E9500FBFAF9F8C312064940EE22F8
:080F2000900200E05480FF2262
:100E1F00120E77120E77120E779000007438F012C0
:100E2F000F20EF70FA900000740DF0120F20EF708A
:0E0E3F00FA9000007401F0120F20EF70FA22FA
:100E4D00EF14600E14600F1460102403700E7E807A
:100E5D00800A7EC080067E9480027ED4EE2DFE90A8
:090E6D000000F0120F20EF70FAF2
:010E76002259
:060EA0008B428A438944E5
:100EA600AB420544E544AA437002054314F9120512
:100EB600C1FF600C900100F0120F20EF60E280F895
:010EC6002209
:0D0EFB009000007401F0120F20EF70FA2239
:0C0F1400900000EFF0120F20EF70FA22A6
:1000030002020EE86480F8E933E83360110460F01B
:10001300ED33EC337009E8FCE9FDEAFEEBFF220463
:1000230060DED3EB9FEA9EE99DE8C2E78CF0C2F75E
:1000330095F0400CE8CCF8E9CDF9EACEFAEBCFFB2A
:100043001201D985D0F05804700320D5B3E80470A9
:10005300075002B2D502021892D5EC0460F7E4CC43
:10006300C0E0C398F8603B94186008400DD0E0FBF3
:100073000201F0E4FBFAC9FC8028E830E406E4C995
:10008300FBE4CAFCE830E305E4C9CACBFCE8540747
:100093006010F8C3E913F9EA13FAEB13FBEC13FC52
:1000A300D8F130F52FC3E49CFCEF9BFFEE9AFEEDF5
:1000B30099FDD0E0FBEF4E4D4C701222DB030202A0
:1000C30015EC2CFCEF33FFEE33FEED33FDED30E7A3
:1000D300EB0201F0EF2BFFEE3AFEED39FDD0E0FB32
:1000E30050130BBB0003020218ED13FDEE13FEEFDA
:0800F30013FFEC13FC0201F005
:1000FB00020218EC5D046005E85904700302020E5D
:10010B001201D9580460F6EC4860F2EC7004FDFE65
:10011B00FF22C860DB2481C85009C39860025006D7
:10012B000202159850CAF582E9294B4A7005AB8239
:10013B0002020475F0007C1A7880C3EF9BEE9AEDF7
:10014B0099400DC3EF9BFFEE9AFEED99FDE842F04F
:10015B00DC23ACF0D0E0FFD0E0FED0E0FDAB8220A2
:10016B00E7101BEB60BAEC2CFCEF33FFEE33FEED2C
:10017B0033FD0201F0E803F830E705C0F075F0003D
:10018B00EF2FFFEE33FEED33FD40B830E7C280AA10
:10019B0075F020800E75F010800575F0087D007EDF
:1001AB00007F003392D530D50312063BEC33401061
:1001BB00EF33FFEE33FEED33FDEC33FCD5F0ED22E8
:0E01CB00E5F0247EA2D513CC92E7CDCEFF2224
:10070400E5592445F8E60559227842300702784530
:10071400E475F00112069A0205C12000EB7F2ED287
:10072400008018EF540F2490D43440D4FF30040BCD
:10073400EF24BFB41A0050032461FFE55A60021588
:100744005A055DE55D7002055C30070D7842E4757D
:10075400F00112069AEF020607020EC77403D207CD
:100764008003E4C207F5598B428A438944E4F55A6D
:10077400F55CF55DE55A60077F2012073F80F5754B
:100784005BFFC201C200C202C203C205C206C208A4
:1007940012070DFF700D3007057F00120750AF5D83
:1007A400AE5C22B4255FC2D5C20412070DFF24D06B
:1007B400B40A00501A75F00A785A30D50508B6FF05
:1007C4000106C6A426F620D5047002D20380D924DB
:1007D400CFB41A00EF5004C2E5D204020A3DD2019C
:1007E40080C6D20080C0D20280BCD2D580BAD205E5
:1007F40080B47F2012073F2002077401B55A0040DD
:10080400F1120704FF12073F020778D208D20680CC
:1008140095120704FB120704FA120704F94A4B70F5
:100824000679347A0B7BFF20022EE55A602A7E007B
:100834008E827583001205DA60060EEE655B70F039
:10084400C2D5EBC0E0EAC0E0E9C0E0EE120A9DD0F8
:10085400E0F9D0E0FAD0E0FB1205C1FF60AAEBC0DA
:10086400E0EAC0E0E9C0E012073FD0E02401F9D09B
:10087400E03400FAD0E0FBE55B0460DCD55BD980B2
:1008840087D20280A2120A8060F7E55B700104122D
:100894000223A95B600DE55B600914F55B120B276D
:1008A400EF60F3EA30E702F404C3995077EAF425E1
:1008B4005B0430E701E404F55B800D120A8060C13B
:1008C400EA055B255B120223EA7858F630E701E477
:1008D400255B04D55B0420050114120A9DE4C0E0E5
:1008E400120B277858E6601320E70714F61207273F
:1008F400802204F6D0E014C0E07F00120727E55BF5
:10090400600712071E155B800B30050312071ED00B
:10091400E0020778D0E00480C5120A8060A0E55B9D
:10092400041202237858EAF6E55B2005026001040C
:050934002404120A9DDD
:1009390074FF04C0E0120B27120727E55B200502AC
:10094900600312071ED0E0B55BE87F4512073178D6
:1009590058E67F2B30E7047F2DF404C0E012073FEF
:10096900D0E075F00A84C0F0120728D0E0120728F9
:10097900020778791080027908C206C2088008D275
:10098900D5790A8004790AC2D5E55B047002F55B62
:10099900E4FAFDFEFF120704FC7B0820011312078D
:1009A90004FD7B1030000A120704FE120704FF7BC6
:1009B90020EC3382D592D55013C3E43000069FFF53
:1009C900E49EFEE42001039DFDE49CFCE4CBF8C217
:1009D90001EC700CCFCECDCCE824F8F870F3801779
:1009E900C3EF33FFEE33FEED33FDEC33FCEB33FBAA
:1009F900994002FB0FD8E9EB300105F8D0E0C44873
:100A0900B201C0E00AEC4D4E4F78207B0070C2EA7B
:100A1900B55B0040BCC0E0120A9FD0F0D0E02001D5
:100A290004C4C0E0C4B201C0F0120728D0F0D5F068
:100A3900EB0207781206AA081553097C5807E64CF9
:100A490007E24209804F09884409884907FB43099D
:100A59008E5508BF46091D450889470B545007EABA
:100A69002D07EE2E08112B07F223080F200B3D2A24
:100A790007AA4800000809E55BB4FF03755B061285
:100A89000704FC120704FD120704FE120704FF788D
:100A990051020252790AA2D5200314300509B9106E
:100AA900020404B9080104A2D52006025001042059
:100AB90002689202B55A005034C0E07F2030031911
:100AC9007F30A20272067205500F120AF6C202C2E4
:100AD90006C205C2087F30800F300503E9C0E01265
:100AE900073F300503D0E0F9D0E0B55ACC300517FF
:100AF9007F30B9100C12073F7F583004077F788088
:100B090003B9080312073F3002057F2D02073F7F13
:100B1900202008F87F2B2006F322920280CF7F0045
:100B2900B4070050052451F8E6FF22286E756C6C55
:100B39002900D2011207043001F8C201785A30D5D0
:100B49000108F60207AA2D50434958120704240345
:100B5900B405004001E4900B4F93120730743A1228
:0A0B69000730D203755A0402097C1C
:1001D900E9D2E7C933E833F892D5EDD2E7CD33EC6C
:0701E90033FC5002B2D522E5
:1001F000EC30E7100FBF000C0EBE00080DBD000470
:100200000BEB6014A2D5EB13FCED92E7FD2274FF1B
:10021000FCFDFEFF22E480F8A2D574FF13FC7D8074
:03022000E480EF88
:10022300F920E72824F950037907E4F42402FB18A2
:10023300DBFDE624FB5014E9600DE4F618E604F652
:0F024300B40A08E4F6D9F57401F60A22C2D522EE
:10025200ED33EC3392D5FA602AB4FF33EDC2E77B7B
:10026200FF60067A027977E4227A02798020D50447
:100272007A02797B224E614E002B494E46002D496F
:100282004E4600E47A08F608DAFC7B00740722E89E
:10029200C0E0ECC0E0EDC0E0EEC0E0EFC0E0EA7527
:1002A200F010A4CAABF075F04DA42BFBE435F0FCC2
:1002B200EA2410FAEB34C5FBEC34D9FCEDC2E7FFBB
:1002C20075F056A4F42411C5F0F434C58FF0A42AB5
:1002D200E5F03BE43CF620E71412048BD0E0FFD0BB
:1002E200E0FED0E0FDD0E0FC1200FE8014F4041227
:1002F200048BD0E0FFD0E0FED0E0FDD0E0FC1203A2
:1003020055D0E0F8E6FAEDD2E7CD33EC332482FBA8
:10031200E4C3CF33CFCE33CECD33CD33DBF37B0744
:1003220075F00A846004F6081B0AE5F0F6088FF0FF
:10033200740AA4FFACF08EF0740AA42CFEACF05048
:10034200010C8DF0740AA42CFDE435F0F608DBDE16
:030352007407220B
:10035500EC4D6011E8497017ED33EC3304600DE4A2
:10036500FCFFFEFD22E933E8330470F802020E12A9
:1003750001D958046009E4CC2481500628500902AB
:100385000218284003020215C0E0EB4A7044B98008
:1003950006D0E0FB020204EF4E701CBD8008EBFFA7
:1003A500EAFEE9FD80EBE98DF0A4FEE5F002043EEE
:1003B500E9CDF9EAFEEBFFEF89F0A4FCE5F0CE8983
:1003C500F0A42EFFE435F0CD89F0A42DFEE435F040
:1003D5008067EF4E7005BD80D780C3EF8BF0A4AC6E
:1003E500F0EE8BF0A42CFCE435F0F8EF8AF0A42CA9
:1003F500E5F038FCE433CB8DF0A42CFCE5F03BF8BC
:10040500EE8AF0A42CFCE5F038F8E433CF89F0A4AB
:100415002CFCE5F038CF3400CE89F0A42FFFE5F0B1
:100425003EFEE433C98DF0A42EFEE5F039CD8AF009
:10043500A42FFFE5F03EFEE43DFD33D0E0FB500781
:100445000BBB000F020218EC2CFCEF33FFEE33FE62
:06045500ED33FD0201F091
:10045B003F8000004120000042C80000447A0000A9
:10046B00461C400047C35000497424004B1896802B
:10047B004CBEBC205A0E1BCA6753C21C749DC5AE22
:10048B00FB60065407601C23231204B9EB5438603D
:10049B00091204A51204B4120355ECF8EDF9EEFAA7
:1004AB00EFCB22EB1204B480F1543803241C9004DC
:1004BB005BFE93FC0EEE93FD0EEE930ECE93FF229E
:1004CB00E709F608DFFA8046E709F208DFFA803E13
:1004DB0088828C83E709F0A3DFFA8032E309F60800
:1004EB00DFFA8078E309F208DFFA807088828C8368
:1004FB00E309F0A3DFFA806489828A83E0A3F6081C
:10050B00DFFA805889828A83E0A3F208DFFA804CF5
:10051B0080D280FA80C680D4806980F280338010CC
:10052B0080A680EA809A80A880DA80E280CA803335
:10053B0089828A83ECFAE493A3C8C582C8CCC583AD
:10054B00CCF0A3C8C582C8CCC583CCDFE9DEE7807D
:10055B000D89828A83E493A3F608DFF9ECFAA9F0FC
:10056B00EDFB2289828A83ECFAE0A3C8C582C8CC52
:10057B00C583CCF0A3C8C582C8CCC583CCDFEADE6B
:10058B00E880DB89828A83E493A3F208DFF980CCCD
:10059B0088F0EF60010E4E60C388F0ED2402B404C6
:1005AB000050B9F582EB2402B4040050AF2323456D
:0605BB00822390051B7372
:1005C100BB010689828A83E0225002E722BBFE0238
:0905D100E32289828A83E493226B
:1005DA00BB010CE58229F582E5833AF583E02250D6
:1005EA0006E92582F8E622BBFE06E92582F8E22220
:0D05FA00E58229F582E5833AF583E493223A
:10060700BB010689828A83F0225002F722BBFE01D2
:02061700F322CC
:10061900F8BB010DE58229F582E5833AF583E8F017
:10062900225006E92582C8F622BBFE05E92582C8C3
:02063900F222AB
:0E063B00C3E49FFFE49EFEE49DFDE49CFC22D0
:10064900EB9FF5F0EA9E42F0E99D42F0E89C45F007
:01065900227E
:10065A00BB010789828A830206DC5005E9F8020693
:10066A00D0BBFE05E9F80206E889828A830206F40D
:10067A007401FF3395E0FEFDFC080808E62FFFF63B
:10068A0018E63EFEF618E63DFDF618E63CFCF622B4
:10069A00FAE6FB0808E6F925F0F618E6CA3AF62261
:1006AA00D083D082F8E4937012740193700DA3A3DF
:1006BA0093F8740193F5828883E4737402936860F3
:0606CA00EFA3A3A380DFF3
:100EC700EFB40A07740D120ED2740A309811A8995C
:100ED700B8130CC2983098FDA899C298B811F6308B
:070EE70099FDC299F5992263
:0C06D000E6FC08E6FD08E6FE08E6FF2256
:0C06DC00E0FCA3E0FDA3E0FEA3E0FF2291
:0C06E800E2FC08E2FD08E2FE08E2FF224E
:1006F400E493FC740193FD740293FE740393FF224C
:00000001FF
