:040000000C94032B2E
:140054002F2FCA2FCA2FC72FDB2FDB2FDB2FDB2FDB2FDB2F16
:14006800DB2FDB2FDB2FDB2FDB2FDB2F804000000000000088
:14007C00000000000000000000000000000000000000000070
:140090000000000000000000222222222222222222222222C4
:1400A4002222222222222222222222222222222222220000E4
:1400B800000000000000000000000000000000000000000034
:1400CC00000000000000000000000000222222222222222210
:1400E000222222222222222222222222222222222222222264
:1400F4002222000000000000000000000000000000000000B4
:1401080000000000000000000000000000000000222222225B
:14011C0022222222220268888888888202688888888882020B
:140130006888888888820000000000000000000000000000B1
:140144000000000000000000000000000000000000000000A7
:14015800222222222222222222088DDDDDDDDFFF088DDDDD08
:14016C00DDDFFF088DDDDDDDDFFF00000000000000000000BA
:1401800000000000000000000000000000000000000000006B
:14019400000000002222222222222222225A8AAAAAAAAADFBA
:1401A8005A8AAAAAAAAADF5A8AAAAAAAAADF0000000000006D
:1401BC0000000000000000000000000000000000000000002F
:1401D00000000000000000002222222222222222226CA8884D
:1401E400888888AF6CA888888888AF6CA888888888AF0000FA
:1401F8000000000000000000000000000000000000000000F3
:14020C000000000000000000000000002222222222222222CE
:14022000226CA888888888AD6CA888888888AD6CA88888883A
:1402340088AD00000000000000000000000000000000000081
:1402480000000000000000000000000000000000222222221A
:14025C0022222222226CA888888888AD6CA888888888AD6CB6
:14027000A888888888AD00000000223456666666666666668F
:14028400665666566656666666666666666667880000000013
:140298002222222222222222226CA888888888AD6CA888881B
:1402AC008888AD6CA888888888AD000000002134677777777F
:1402C0007777777778A778B878A87777777777777778BD97D2
:1402D400000000002222222222222222226CA888888888AD03
:1402E8006CA888888888AD6CA888888888AD000000001134FB
:1402FC005899999999999AB98AFA89FA89FA9ABA9999999904
:14031000999DFF96000000002222222222222222226CA88840
:14032400888888AD6CA888888888AD6CA888888888AD0000BE
:140338000000113456777777776766E844E945D847D757F8CE
:14034C00676777777778EE760000000022222222222222227E
:14036000226CA888888888AD6CA888888888AD6CA8888888F9
:1403740088AD0000000011344555555555A731CA32673246AF
:14038800337539B548A5555555569A66000000002222222201
:14039C0022222222225CC8AAAAAAAAAC5CC8AAAAAAAAAC5C57
:1403B000C8AAAAAAAAAC0000000011244455555542CC414A0C
:1403C40052354345324524653CB555555556896600000000E1
:1403D8002222222222222222222CC8888888885A2CC888886D
:1403EC0088885A2CC8888888885A000000001124445555679B
:14040000414D723FA4555555555532544B55585555558966F0
:140414000000000022222222222222222204A8888888888452
:1404280004A8888888888404A88888888884000000001124EB
:14043C004455545F82135329E45555555555555313548E65C0
:140450005555896600000000222222222222222222000000CD
:14046400000000000000000000000000000000000000000084
:140478000000112444555318E5344015F75555555555555480
:14048C003444B755555589660000000022222222222222222F
:1404A0002222222222222222222222222222222222222222A0
:1404B40022220000000011244556941156555102DB455555B3
:1404C80055555555553234469555896600000000222222226A
:1404DC00222222222222222222222222222222222222222264
:1404F0002222222222220000000011244544DC534555520152
:140504008F555555555555555542455CD656896600000000AE
:140518002202244444444420220268888888888202688888AF
:14052C008888820268888888888200000000112444313C85B2
:14054000555554014F845555555555555555536945558966E8
:14055400000000002222244444445FF222088DDDDDDDDFFFE2
:14056800088DDDDDDDDFFF088DDDDDDDDFFF00000000112436
:14057C0046521255555555102CC45555555555555555521360
:14059000446689660000000022400000000004F8225A8AAAB0
:1405A400AAAAAADF5A8AAAAAAAAADF5A8AAAAAAAAADF000090
:1405B8000000112437E844555555553017F555555555555509
:1405CC005555544559E88966000000002252000000000088AC
:1405E000226CA888888888AF6CA888888888AF6CA888888873
:1405F40088AF000000001124219D75555555554013F945551A
:1406080055555555555555545B768966000000002252000003
:14061C0000000046226CA888888888AD6CA888888888AD6C34
:14063000A888888888AD0000000011242103555555555552ED
:1406440002BD4555555555555555555312358966000000006D
:140658002252000000000046226CA888888888AD6CA88888AD
:14066C008888AD6CA888888888AD0000000011258434555544
:1406800055555553016F655555555555555555543457B96699
:14069400000000002252000000000046226CA888888888AD95
:1406A8006CA888888888AD6CA888888888AD00000000112348
:1406BC00DE95555555555554103EA4555555555555555555CB
:1406D000548EE966000000002252000000000046226CA8886D
:1406E400888888AD6CA888888888AD6CA888888888AD0000FB
:1406F8000000111016755555555555552029E455555555556E
:14070C00555555554245796600000000225200000000004665
:14072000226CA888888888AD6CA888888888AD6CA888888835
:1407340088AD00000000112101455555555555554015F64477
:1407480055555555555555555323786600000000226200001D
:14075C0000000025226CA888888888AD6CA888888888AD6C14
:14077000A888888888AD0000000011486555555555555555EF
:140784005102CD9964555555555555555557AC760000000023
:140798002255000000000004225CC8AAAAAAAAAC5CC8AAAAC0
:1407AC00AAAAAC5CC8AAAAAAAAAC00000000102BEA5555559D
:1407C000555555555207DFFFF9455555555555555549EE755D
:1407D400000000002248000000000004222CC8888888885A13
:1407E8002CC8888888885A2CC8888888885A00000000100011
:1407FC002555555555555555535DEDDEFF9455555555555565
:14081000542368660000000022244444444444202204A8887F
:140824008888888404A8888888888404A88888888884000004
:14083800000010111354444444444445429DDDDDDFF5454495
:14084C0044444444543368550000000022000222222220009A
:14086000220000000000000000000000000000000000000062
:140874000000000000001257877777777777777766BEDDDD61
:14088800DEFA7777777777777778BC980000000022222222EF
:14089C002222222222222222222222222222222222222222A0
:1408B00022222222222200000000248CDDDDDDDDDDDDDDDDD0
:1408C400DEDDDDDDDDDDDDDDDDDDDDDDDDDEFFFF000000000A
:1408D800222222222222222222222222222222222222222264
:1408EC002222222222222222222200000000126ACCCCCCCCF8
:14090000CCCCCCCCCCCCCCCCCCCCCCCCCCCCCCCCCCCDEFFE9D
:140914000000000022022444444444202202244444444420DF
:140928000224444444442002244444444420000000001159A5
:14093C00BCDDDDDDDDDDDDDDDDDDDDDDDDDDDDDDDDDDDDDD84
:14095000DDDEFFFE000000002222244444445FF222222444AA
:1409640044445FF222244444445FF222244444445FF20000E0
:1409780000001148ABBBBBBBBBBBBBBBBBBBBBBBBBBBBBBB72
:14098C00BBBBBBBBBBBCEFED0000000022400000000004F8BA
:1409A00022400000000004F8400000000004F8400000000069
:1409B40004F8000000000148AABBBBBBBBBBBBBBBBBBBBBB37
:1409C800BBBBBBBBBBBBBBBBBBBBDFDD00000000225200009D
:1409DC00000000882252000000000088520000000000885257
:1409F0000000000000880000000000489AAAAAAAAAAAAAAAE3
:140A0400AAAAAAAAAAAAAAAAAAAAAAAAAAABCEDD00000000E6
:140A1800225200000000004622520000000000465200000004
:140A2C0000004652000000000046000000000048AAAAAAAAE8
:140A4000AAAAAAAAAAAAAAAAAAAAAAAAAAAAAAAAAAABBDDD13
:140A540000000000225200000000004622520000000000461A
:140A6800520000000000465200000000004600000000004802
:140A7C00AABBBBBBBBBBBBBBBBBBBBBBBBBBBBBBBBBBBBBBDB
:140A9000BBBBBBCD0000000022520000000000462252000026
:140AA4000000004652000000000046520000000000460000C8
:140AB800000010257888888888888888888888888888888885
:140ACC00888888888888999B000000002252000000000046F8
:140AE00022520000000000465200000000004652000000005E
:140AF4000046000000000000000000000000000000000000A8
:140B0800000000000000000000000000000000002252000065
:140B1C000000004622520000000000465200000000004652DB
:140B300000000000004600000000000000000000000000006B
:140B440000000000000000000000000000000000000000009D
:140B58002262000000000025226200000000002562000000D5
:140B6C000000256200000000002500000000000000000000C9
:140B8000000000000000000000000000000000000000000061
:140B9400000000002255000000000004225500000000000457
:140BA800550000000000045500000000000400000000000087
:140BBC00000000000000000000000000000000000000000025
:140BD000000000000000000022480000000000042248000039
:140BE400000000044800000000000448000000000004000061
:140BF8000000000000000000000000000000000000000000E9
:140C0C0000000000000000000000000022244444444444201A
:140C200022244444444444202444444444442024444444443A
:140C3400442000000000000000000000000000000000000048
:140C4800000000000000000000000000000000002200022252
:140C5C002222200022000222222220000002222222200000EE
:140C70000222222220000000000000000000000000000000E8
:140C840000000000000000000000000000000000000000005C
:140C98002222222222222222222222222222222222222222A0
:140CAC0022222222222222222222222222222222222222228C
:140CC000222222222222222222222222222222222222222278
:140CD400222222222222222222222222222222222222222264
:140CE800222222222222222222222222222222222222220270
:140CFC006888888888822222222202688888888882222222E0
:140D1000220268888888888222222222222222222202244405
:140D24004444442002244444444420022444444444202222DF
:140D3800222222088DDDDDDDDFFF22222222088DDDDDDDDFA4
:140D4C00FF22222222088DDDDDDDDFFF2222222222222222F2
:140D60002222244444445FF222244444445FF2222444444485
:140D74005FF222222222225A8AAAAAAAAADF222222225A8A99
:140D8800AAAAAAAADF222222225A8AAAAAAAAADF2222222255
:140D9C002222222222400000000004F8400000000004F840E1
:140DB0000000000004F822222222226CA888888888AF222262
:140DC40022226CA888888888AF222222226CA888888888AF89
:140DD8002222222222222222225200000000008852000000A9
:140DEC000000885200000000008822222222226CA88888883B
:140E000088AD222222226CA888888888AD222222226CA8881C
:140E1400888888AD22222222222222222252000000000046BB
:140E2800520000000000465200000000004622222222226C70
:140E3C00A888888888AD222222226CA888888888AD2222225E
:140E5000226CA888888888AD22222222222222222252000007
:140E64000000004652000000000046520000000000462222C0
:140E78002222226CA888888888AD222222226CA88888888863
:140E8C00AD222222226CA888888888AD22222222222222222C
:140EA00022520000000000465200000000004652000000009A
:140EB400004622222222226CA888888888AD222222226CA8BD
:140EC80088888888AD222222226CA888888888AD2222222258
:140EDC002222222222520000000000465200000000004652D6
:140EF00000000000004622222222226CA888888888AD2222D9
:140F040022226CA888888888AD222222226CA888888888AD4B
:140F18002222222222222222225200000000004652000000A9
:140F2C000000465200000000004622222222226CA88888887D
:140F400088AD222222226CA888888888AD222222226CA888DB
:140F5400888888AD222222222222222222620000000000258B
:140F6800620000000000256200000000002522222222225C61
:140F7C00C8AAAAAAAAAC222222225CC8AAAAAAAAAC222222DF
:140F9000225CC8AAAAAAAAAC2222222222222222225500002C
:140FA40000000004550000000000045500000000000422223F
:140FB8002222222CC8888888885A222222222CC888888888B5
:140FCC005A222222222CC8888888885A2222222222222222B1
:140FE0002248000000000004480000000000044800000000FB
:140FF4000004222222222204A888888888842222222204A8B7
:1410080088888888842222222204A8888888888422222222D0
:14101C002222222222244444444444202444444444442024C2
:1410300044444444442022222222220000000000000022224A
:141044002222000000000000002222222200000000000000CC
:141058002222222222222222222222222222222222222222DC
:14106C0022222222222222222222342222345666666666661C
:141080006666665666566656666666666666666667882134E8
:14109400677777777777777778A778B878A877777777777767
:1410A8007778BD9711345899999999999AB98AFA89FA89FA7A
:1410BC009ABA99999999999DFF96113456777777776766E871
:1410D00044E945D847D757F8676777777778EE761134455567
:1410E400555555A731CA32673246337539B548A5555555566E
:1410F8009A6611244455555542CC414A5235434532452465C4
:14110C003CB5555555568966112444555567414D723FA455D8
:141120005555555532544B5558555555896611244455545F7A
:1411340082135329E45555555555555313548E65555589666E
:14114800112444555318E5344015F75555555555555434442B
:14115C00B7555555896611244556941156555102DB4555559D
:1411700055555555553234469555896611244544DC534555B6
:1411840052018F555555555555555542455CD656896611249A
:1411980044313C85555554014F8455555555555555555369D7
:1411AC0045558966112446521255555555102CC4555555551F
:1411C00055555555521344668966112437E8445555555530AD
:1411D40017F55555555555555555544559E889661124219D97
:1411E80075555555554013F9455555555555555555545B76CC
:1411FC0089661124210355555555555202BD455555555555EF
:14121000555555531235896611258434555555555553016FE8
:14122400655555555555555555543457B9661123DE9555555A
:1412380055555554103EA4555555555555555555548EE9662F
:14124C00111016755555555555552029E45555555555555564
:14126000555542457966112101455555555555554015F64465
:14127400555555555555555553237866114865555555555503
:1412880055555102CD9964555555555555555557AC76102B2F
:14129C00EA555555555555555207DFFFF9455555555555558E
:1412B0005549EE7510002555555555555555535DEDDEFF9493
:1412C4005555555555555423686610111354444444444445B2
:1412D800429DDDDDDFF5454444444444543368551257877751
:1412EC0077777777777766BEDDDDDEFA7777777777777778B5
:14130000BC98248CDDDDDDDDDDDDDDDDDEDDDDDDDDDDDDDD04
:14131400DDDDDDDDDDDEFFFF126ACCCCCCCCCCCCCCCCCCCC24
:14132800CCCCCCCCCCCCCCCCCCCCCCCDEFFE1159BCDDDDDD76
:14133C00DDDDDDDDDDDDDDDDDDDDDDDDDDDDDDDDDDDEFFFE15
:141350001148ABBBBBBBBBBBBBBBBBBBBBBBBBBBBBBBBBBB1A
:14136400BBBBBBBCEFED0148AABBBBBBBBBBBBBBBBBBBBBBB0
:14137800BBBBBBBBBBBBBBBBBBBBDFDD00489AAAAAAAAAAA23
:14138C00AAAAAAAAAAAAAAAAAAAAAAAAAAAAAAABCEDD0048B9
:1413A000AAAAAAAAAAAAAAAAAAAAAAAAAAAAAAAAAAAAAAAAF1
:1413B400AAABBDDD0048AABBBBBBBBBBBBBBBBBBBBBBBBBBC5
:1413C800BBBBBBBBBBBBBBBBBBCD102578888888888888884C
:1413DC008888888888888888888888888888999B75003F1590
:1413F000003F817F86A041A100A244A4A83FB122B028B407CB
:14140400B246B302BF0BBE02BC13B80111223243546576AD91
:1414180002AF2F030003123F123F12267F32130B34321A258C
:14142C001A28037E81817E0303081C086008080820300C0360
:141440001E21211E00023F00322929261221251A18163F1040
:14145400272525181E252518013905031A25251A0629291E45
:141468002464081422141414221408022905023E49555D11B4
:14147C000E300C0B0C303F2525251A1E212121123F212121CE
:141490001E3F2525213F0505011E2121293A3F0404043F21C8
:1414A4003F2130201F3F0C12213F2020203F0618063F3F0265
:1414B80004083F1E2121211E3F090909061E2129112E3F09E7
:1414CC00090936122525251801013F01011F2020201F030C3B
:1414E000300C03030C300C300C0321120C1221030438040377
:1414F400312925237F41030C30417F0201024040404040013D
:1415080002102A2A3C3F2424181C2222141C22223F1C2A2A0B
:14151C000C3E09021CA2A27E3F04023C3DFD3F0814223F3ED3
:14153000023E023C3E02023C1C22221CFE22221C1C2222FE73
:141544003E040204242A2A12021F22101E20203E0E30300E56
:141558001E201C201E360808361EA0A07E322A2622087E81E4
:14156C007F817608020102013C1211123C3F252525183F2510
:1415800025251A3F010101603E21213F603F252525213B0424
:141594003F043B122125251A3F1008043F3F1009043F3F04B6
:1415A8000A1121201E01013F3F0618063F3F0404043F1E2109
:1415BC0021211E3F0101013F3F090909061E21212112010145
:1415D0003F0101072828281F0E113F110E21120C12213F20DA
:1415E40020203F60070808083F3F203F203F3F203F203F605C
:1415F800013F2424183F2424183F3F24242418122125251E03
:14160C003F041E21211E261909093F102A2A3C1E2525183E1B
:141620002A2A1C3E0202603C223E601C2A2A0C36083E083672
:1416340014222A143E10083E3E11093E3E081422201C023E0C
:141648003E0810083E3E08083E1C22221C3E02023EFE222228
:14165C001C1C222214023E021EA0A07E1C22FF221C3608080B
:14167000363E20203E600608083E3E203E203E3E203E203ECC
:1416840060023E2828103E2828103E3E282810222A2A1C3E08
:14169800081C22221C2C12123E0000000100040009000C0012
:1416AC00100014001500170019001B001E001F002200230024
:1416C00026002A002E00320036003A003E00420046004A00E6
:1416D4004E004F0050005300560059005D00630068006D007E
:1416E800720077007B007F00840089008C008F0093009700B9
:1416FC009C00A100A600AB00B000B500BA00C000C400C900E0
:14171000D000D500DA00DE00E000E300E500E800ED00EF00FC
:14172400F300F700FB00FF00030106010A010E010F01100187
:14173800140115011A011E01220126012A012E01320136012A
:14174C003A013E01430147014B014F015201530156015A018E
:141760005A015F01640169016D01730178017D018201870107
:141774008C01910196019B01A001A501AA01AF01B401B901FE
:14178800BE01C301C801CE01D301D801DE01E301E801ED01EB
:14179C00F201F801FD010102050209020C02110215021A02E6
:1417B0001E02220226022A022E02330237023B023F0243022C
:1417C40047024A024E02530257025C02600265026B02700278
:1417D800750279027D0283028702000034347F1A007F0B00F3
:1417EC00011111107F0B007F09000258998AC86676417F09BA
:141800000000FF7F0600158857A007F504B368857F08000F86
:1418140000F07F04001678A002C006F507A004B6957F0700E6
:141828000FFFF000000005C700C3004006D503300B601BB497
:14183C007F06000F7F04000287DB003212355478643204102E
:141850002ED9807F050000FF00000048208F70259CEFFCDF88
:14186400FFEB84108F705A207F04007F040004BA002BB7BF14
:14187800FDA7544568CFFFA48A104BA37F04007F0400580A55
:14188C008014AFE8307F0400015CF95502D21B3000000000A0
:1418A0000000048000226BD7107F07003BEC622001B200005A
:1418B400000000002AC40039EA100024566766654210006F92
:1418C800F71019A9000000000000914A139E70035654332245
:1418DC00222333321002EF816A06800000000006600028E668
:1418F00005B7207F09001EF71000A3000000001BC7117D60E8
:141904008F507F0A0001FE5128EB0000000056AFC6C902D39B
:141918007F0C004FB5BFCB500000027027A9B006507F0C007F
:14192C0008E58711A000000650005C40057F0C000200D730F7
:14194000009400000AC9128A00227F0C0002506F705CB7009F
:1419540000372624A400317F0D00910EC2541A000064001654
:14196800A100407F0D009609E5000830008400288000407F57
:14197C000D006A04F8101760009DB23A6001407F0D0049015D
:14199000EA17CB700181214A4002407F0D004700CB22129036
:1419A4000280005A3002407F0D004500AC3000900296666A3C
:1419B8003003407F0D004400AC5667A0019EFF7A3103407FC4
:1419CC000D004300AA6DFFB00155566A3102407F0D003200AA
:1419E000A93546A00160004A3102407F0D003100AA1000900A
:1419F4000192313A5001307F0D002000B913239000ADB229AD
:141A08007000307F0E0002C707CC70008400279000307F0E99
:141A1C000005C500075000650015A200207F0E0009A3000818
:141A300030002838239700107F0E002B61562900000AD811BD
:141A44006A107F0F0079304BB6000006500149707F0E00023D
:141A5800A6300083000001902AA5B3017F0D000984B812909A
:141A6C0000000068CFC47A107F0D007A43AFCB4000000007D7
:141A80009611499012107F0A0005A62016C90000000002502B
:141A9400001499115874347F0444431000005B621000720027
:141AA80000000000835B01499204BEDA98888887630000073B
:141ABC00A6306B066000000000001BC300148A50059BA987D3
:141AD00065310000039A620008B800000000000003900031E9
:141AE40036A940001111000000028A84212002A10000007F3A
:141AF80004004A1A801557A9637F0400258A954301D32A1062
:141B0C000000007F040003CA002EA2479AA9877889AA853232
:141B2000BB004C927F04007F050029408F8001346788887677
:141B34005320008F5058107F04000F7F040001869B1042005A
:141B4800011453110005102BC8600000FFFF000F7F05000215
:141B5C005700D2005007F503300A701672000000F000F00FDC
:141B70007F06000589B002C006F507A004B6627F0400F000AB
:141B8400F00F7F0700047969B106E504B367637F0500FFFF43
:141B9800000F7F080001467964775444207F0600F000F00FDC
:141BAC00FFF07F1400F000F00A001E127F06003666307F06B3
:141BC000007F05000568DB857F06007F04000165AFFFD8616B
:141BD4007F05007F0400275AFEEEFE87207F0400000000025F
:141BE80076BEDEEEEFFA837F0400000000275BCCDDDDCCEF37
:141BFC00A720000000000001749B7F04BBBDF9720000000098
:141C10000007367F05AAA9DF87100000000063499888899849
:141C240088888DF7600000000451787F067778ED6500000025
:141C3800170586556666555556658FA6200000713B88A854EB
:141C4C00444444457AABF860000443B511AF834333334314B7
:141C60009ACD7400076700137EC23322225413233577102AED
:141C74006357568AF6665665886757751530076420017AC6DF
:141C88006666674452001565100000000195107F0400627FEB
:141C9C0004007F0400577F0566407F04000C001C137F0700E8
:141CB00035547F05007F06003668A8507F04007F0500265675
:141CC400CFFD857F04007F040005669EFFFFC74000000000A7
:141CD800000001767CEDEEEEFB730000000000003748CCCCB7
:141CEC00DDDDEFA7200000000004637AABBBCCCCCEF960006E
:141D000000000056269999AAAABBBBEE7500000005606887A0
:141D140088889999AAAFA71000004604766666777888888C52
:141D2800F7600003607CAAA7555666667778EC630017487399
:141D3C0025EE6444555556669F76004A6322349F934344445D
:141D500045886DC620186555487CA2323333425DEBF75000BE
:141D64000000056EE986433351038CDA610000000877579B87
:141D7800BBB872875557740000000485421124662351477238
:141D8C00167F0400134666653204400047557F070023566510
:141DA000000000300E011C147F07001345627F04007F060078
:141DB40035668A97100000007F04000146668CFFF96000003B
:141DC800007F04004667BDFFFFFE7400000000000037559C82
:141DDC00DDDDEEEFA7100000000006635AAABBCCDDDFF750AE
:141DF0000000000373279889AABBCCCDFC72000000460277F6
:141E04006778899AABBBDF85000005517CC97666778899AA45
:141E1800AFC710003857668BFB55566778899CF740002A8520
:141E2C004323CF844555667789F86000012344598E93444427
:141E4000556677DC6200000000073C723333445555AF650001
:141E5400000000378FE953233447C98F86000000002A758DD0
:141E6800EC8434208FDDA61000000003775359DEB62355CE80
:141E7C00C6307F040002577436A5177868A6407F0600267633
:141E90004035028843607F0700036661000672607F080001EC
:141EA400000000472010021A167F080011220000007F050043
:141EB80001345556776000007F0400146667789CDD85000085
:141ECC00000000266558ADEFFFFFC710000000366347ACCC56
:141EE000CDDEEFF8400000265237A9999ABCDDEEF9600003AE
:141EF400633798667889ABBCDDFD630009679BEEA766789A85
:141F0800ABCCDF950006975348FD6567889AABBFB600000295
:141F1C004776BF945567889AAED720000000196C8344566715
:141F3000889BE6400000003509534444566789F750000000AE
:141F440075BFA42334455678F8500000005A69FE732334561E
:141F580066E96100000004865BFC63335DB6CA527F04000696
:141F6C00856DFB5207FDBB527F050027857E70676EEA537F62
:141F800006003875127587D9537F07005836204986537F0784
:141F94000001420004A2437F0B0056527F0B00043012041AED
:141FA800177F05000122333321100000000000034566666755
:141FBC006677660000000146654568ABDDDDDDC840000046E5
:141FD00043369BBCCCDEEFFFFA600004836ABA88889ABBCD5E
:141FE400EEFD710003A978DFB66789ABCDDEFE730000147693
:141FF80058FD66789ABCCDEF740000000486BF956789ABBCE7
:14200C00DF8500000000096C94556889ABBFA600000000639A
:1420200006534556789AAEB61000000273BA33444567899DBA
:14203400B61000000198BFB3334456788DA6200000001868AF
:14204800FC423445577CA5207F0400878FE52346666CA620B6
:14205C007F04000686DF7326EA5BA5207F0500596CF500BFE2
:142070009B85107F0500039692096BFC65107F060029507426
:1420840087DD56007F0600016730298A36007F090004963531
:14209800007F0A008534007F0A002861007F0A000110001630
:1420AC00061617013455655555554210000036544556778988
:1420C00098766653008658ABCDDDEEFFFDBA98603998DEA621
:1420D400788ABCDFFFFD7200586BFA6789ABCDEEFF83000355
:1420E80096CF86789ABCDEFF8400001A8F946789BCCDEF74B1
:1420FC0000006508745678ABCCDF74000541354445678ABBA7
:14211000DF7500067AF833445679ABCE85000197CF62344569
:14212400689ABD640000297EE423456788BC6400000397FDEB
:1421380033345678BA53000000498FB3356567B852000000BB
:14214C000689FA23CC66B6607F040077BD008FC6B5607F04E7
:14216000000883078AF984507F040001936477EC55307F059B
:1421740000152028AC36107F0700079926007F070002A4444C
:14218800007F08009361007F08003730001806161A7F0B0002
:14219C000566655554327F0500293567777666653100000052
:1421B00006A9EEDEFEDCA87652000000587EC78ABDFFEB7711
:1421C4006300000588FC6789ACEFFDA860000058BF7678ABDB
:1421D800CDEFFD730000396E85789ACDDEFF730005510765AA
:1421EC00678ABCDEFE7300272544445689ABCDFC6200088FC3
:14220000B33456789BCCFA5200048AF73345679ABCF8600050
:142214000087ED33345789ABE8500000299F823456789BC66B
:14222800500000068CE43345678BA63000000198FA34556719
:14223C008B661000000058BF53CC66894600000000088C107E
:142250008FB69653000000000392188CF79361007F0400663F
:142264006388FA5360007F0400020068DA2620007F06003804
:14227800B62600007F060018A26200007F0600086350000095
:14228C007F060006761000007F0700410000001A07161B0014
:1422A00033207F080004546654207F06000485897666527FDA
:1422B40005000079CFEEC976637F040000087ED9DFFC976481
:1422C800000000000298F968BEFEA7620000000058DE67891C
:1422DC00BEFD7750000002688E6689ABDFFB861000453129CB
:1422F0005678ABCDFFE9600073454445689BCDEEFB61006889
:14230400DC3345679ACDEEF9500028AF5344678ABCDEF7502C
:1423180000088F92345689BCDEB53000058DD3345679ABCE15
:14232C007600000189F62345789ACD6500000078FA234567BA
:142340009AC96200000048CE5455678AB560000000189F66E2
:14235400DA578A7530000000068801CF868836000000000370
:1423680092598FB68463000000000046357CD7536000007F4A
:14237C000400038BD5171000007F0400027AA0540000007F4D
:142390000400017A32600000007F04000197177F04007F05EF
:1423A40000A4727F04007F050047207F04001C08141C0013B7
:1423B800107F0700016465307F060000857866417F050000D4
:1423CC0049AFD867407F040000088EEFE966300000000004FB
:1423E0008CE8CFD875000000000089F969EFC7720000001234
:1423F40087EB678CFE87300003654089578ABFF87300063247
:142408005455578ABCFF9740058BA444578ABCDFFB73047CC2
:14241C00E3345689BCDEFFA6028AF4345689BCDEEFA501882D
:14243000F5345679ACDEFE650078F7244578ABCDF96100672A
:14244400EA244578ABCEC4500057DC2345689BCD6610003813
:14245800BF5545679ACA55000028AE5CD6678AA470000009E1
:14246C007108FB578946300000067588DD6784550000000072
:142480002137AE674460000000000037AE63270000000000C8
:142494000036AA117100000000000047B217100000000000B2
:1424A800005A42717F040000000088377F05000000004750B6
:1424BC007F05001C0A141C000046407F060000027276307F8E
:1424D0000500000087A8657F0500000058BFB6727F04000019
:1424E4000038AEFE77400000000000188F8DF87500000000A8
:1424F80000078F95BFA75000000036684DA56AFC6600000192
:14250C006144077578BFC750000173895345689CFA64000154
:1425200078E5334568ABDF87200178F4234568ABCEF770011B
:1425340078E4233568ABCDFE750178E4234568ABDEEFA50141
:1425480078E4234578ABDEEF750178F4234568ABCDFA350171
:14255C0078E4234568ABCEB3700178F8534568ABCC26200174
:1425700089B8EB45689BC36300009623CF85789A4550000009
:1425840036698EA578835500000000075D957515500000004E
:1425980000174E8531640000000000366D3017300000000096
:1425AC000054A404727F040000007841757F05000001B6477A
:1425C000207F0500000056307F06001C0B141D000000017F80
:1425D400060000000166507F050000000263867F0500000043
:1425E8000087C7617F040000000077DE7710000000000000D1
:1425FC0077DFE77000000000000067EAEE6600000000024235
:1426100076EA6FD650000000264661B958FB74000000441B15
:14262400726657AF97200000558A8444678CF760000064D8E0
:142638001334679AFD64000074D62335689ACF86000175D4A2
:14264C00233568ABCFD6500367D3234578ABCEF9610459B21B
:14266000234579ACDEFE64064B92334679BCDEFF65074D81F1
:14267400334689BCDEF945078FD9435689BCDF937119748F2C
:14268800C45689BCD5271004768CF65789BB43700000038600
:14269C00D6678983560000000535B667643640000000070A49
:1426B000A542147200000000534C3003747F040001659103E6
:1426C400657F050005962475107F05000396637F07000001CE
:1426D8007F08001A0D161C7F0500107F05007F0400026710FA
:1426EC007F04007F04000537807F04007F0400055A867F04AA
:14270000007F0400066AD6500000007F0400066AFA7300004C
:142714000000000010075CCF8700000000000366574E8CE668
:1427280050000000000716731C67FA7100000000350CE63771
:14273C0056BF750000000062686644578FB62000000071A7B7
:142750002234678CF75000000453B32345689AFA6100000610
:142764002792234578ABED640000161A52334679ABDF760058
:1427780000544B3234568ABCDFA6100071882334579ABDEF2A
:14278C00D6300276FB4334679BCDEFF75003978EE54568ABDF
:1427A000CDEFF45000576AFA4678ABCEFB3640000096CA461C
:1427B40079ABDB536400000350875789AB7256100000080313
:1427C800967777534730000000621C843212464000000004DF
:1427DC0054A4001366407F04001976124664107F050007854A
:1427F00065317F070000107F0900181016197F0600056100DF
:1428040000007F060035670000007F060054883000007F0689
:142818000063A96000007F060073BE6400007F0400440363F9
:14282C00BF86000000000005556826ACD63000000000170A98
:14284000950888F75000000000620AFA3666EA6100000002C9
:142854006066464456BE640000000712832235679F8500002A
:14286800004507523345689FA6100000703722335679ADD63B
:14287C0030000530842334578ABDE640001606722345689A4C
:14289000BDF65000648F72334679ABCDF75000697CF73456B5
:1428A4008ABCDEF960000578FD45679ABDEEFA510000768CEB
:1428B80045789BCDEFFA52000550485679ABCEFE8360005690
:1428CC000376689ABCC953462005506CA88888763356400087
:1428E00056488421111345652000006A7412335665427F0410
:1428F4000004555544217F0600141218187F09003200007FA9
:142908000800037820007F0800064A60007F0800163B6100A8
:14291C007F06001100533E64007F0500027631706F75007F1C
:142930000500172779219FA6107F0500712FB5068CC6307F81
:142944000400073049FA366AE6407F0400550463465568F603
:142958005000000004602632334568F8600000003702632368
:14296C00345678F96000000170164233456789EA6100000779
:14298000116523345678AAEB620000285ED423356789BBFA5A
:142994005200000799FB3445789BCCFA5200000069CF4456CC
:1429A80089BCDDFA52000003724B55679ABDDEFA5200005759
:1429BC0011465678ABCDEEFA5100274036656789BCDEFFF8AE
:1429D00051038349DDBABBCCDDDDCA636003A875334456661B
:1429E4006532345620003666554343444566542000000001C3
:1429F800234444433210000000121518167F0A0037207F09DE
:142A0C00000278807F0900073A817F0600015300552C627F37
:142A20000600274832706D637F050004708A78019E547F054A
:142A3400005602AFA2069E657F04000750254AF8467E650072
:142A48000000017403543345557E65000000282044322334E9
:142A5C00568E65000002700443223345679E6500000746957E
:142A70003233445678AE650000049AF9233456789ABD650050
:142A8400000069EF33456789ABCD55000003756D4456789A20
:142A9800BCEB54000376203755678ABCDDF952046521465510
:142AAC006779ABCDEEF76119458CDA76678ABCDEEFF6600668
:142AC000B867ADDDDCCCCDEFFFF55000257642358ACDDEEF7B
:142AD400FF95300000036766444443334337007F0400124508
:142AE80066666655510010171A167F0B0001007F0B006940ED
:142AFC007F07000120000649707F0700467400635A507F068E
:142B1000003743872650C7507F0500266119F79305E6607FAB
:142B2400040005720466EF5047D55000000004740255435C9F
:142B3800B557C4500000006512553222334558A45000000382
:142B4C007266432223345569954000000188FA223334456796
:142B60007B852000000059DE33344566788C661000013673D4
:142B74005D4345667899AC5600156653223744567899ABCCA6
:142B880055006634478755567789ABBCD953002A99DFC75580
:142B9C006789ABBCDDE56100027757DFDA889ABCDDDFC36065
:142BB0000000037746BFFDCCCDDEEF85300000000377548C20
:142BC400EFFFFFFF5600000000000257655679CEF944000023
:142BD8007F050035665444437000007F06000124555510001B
:142BEC00000E1A1C157F0C0053007F070003564000167A10DF
:142C00007F060025653680047298207F040001466323AE656A
:142C14006608A51000000003664224778FA7215D5600000039
:142C28000055224675433AF7369A350000000073576432226B
:142C3C0023896587440000000048DC3222233334569452006A
:142C5000011123689F423333445567936000565655412A43EA
:142C64003445566779745000844567864544556677888B560F
:142C780020003A9BFC86555567788999AA46000002869FD738
:142C8C0056677899AABBC7530000001876DFB8789AABBCCC7D
:142CA000C460000000006859FFBAABCCCDDE644000000000BC
:142CB40003876BFFDCCDEEEB2700000000000004866BEFFF8C
:142CC800EEF5620000007F0400157657BFFFA3600000007F0E
:142CDC00050014665678377F04007F0600025664627F0400B7
:142CF0007F080013107F04000C1C1C147F070012456300000B
:142D040001007F040002356665447800015790000000056626
:142D18004333457DC62157389200000036047889987BD686BD
:142D2C00419951000000177A86533224FC324AC36036544340
:142D4000488F422222238E978A3530724555432C5233333385
:142D54003565672600698BAA95364333444455568344000863
:142D68008CFC98544445555666677270000187CF8555566613
:142D7C006777778945400000196CFA677778888999A8260093
:142D900000000296BFB88999AAAAAAB46200000000187AFD5B
:142DA400AAABBBCCBC74500000000000779FFCCCDDDDD92727
:142DB8000000000000000687DFFEEEEEB1720000007F04001B
:142DCC004868EFFEFE26300000007F040001676AEFF4547FF7
:142DE00004007F050002776745507F04007F06000374557F8F
:142DF40005007F070004307F05000A1D1C137F0400567F04D6
:142E080055562000000000000005327F0455687000000026DE
:142E1C0063100555BDCCCCCDF950003475634666486C844436
:142E30004444D7756656A8397A86540972222222AE64337B28
:142E440065078EFED935433323326ED89BC3610289FA885443
:142E58004333333335877824500068BF747F075564270000E1
:142E6C00087EE77F066667616200000298FD877F04887787A9
:142E80002550000000499FD9999A999999943600000000053B
:142E94008AFD7F04BBAA6270000000000078BFECCCCCCCC89A
:142EA80037100000000000078AFFEDDDDD72710000007F0432
:142EBC0000688FFEEEE527100000007F04000587EFFE437054
:142ED0007F04007F0500387AA3557F05007F05000175263069
:142EE4007F05007F060006817F0600081C1E14012000001638
:142EF8006532107F0700056620006245555654327F050007AB
:142F0C00276630718ECA865556727F0400078BA65763A79BD1
:142F2000CEEDCB757F0400038BFFB71293222457CC537F04F7
:142F3400000088FBCE73432222227866445577000058DE55A3
:142F480054333332328F944447A92000188FA5555444333341
:142F5C004CFBBBCA460000068DF766665555444579AA6072D1
:142F700000000188FC7877776665555563073000000048CF3C
:142F8400A9999888777766307300000000088FEBAAAAA998C9
:142F98008873074000000000029AFECCCBBBAA994173000000
:142FAC000000000058BFEDDDCCBBA4272000000000000007B7
:142FC0008CFEEEDDD934717F04007F040087DFFFFB42657F9E
:142FD40005007F0400198DFD7256207F05007F0400029763D3
:142FE80046307F06007F05002746407F07007F0600307F08E7
:142FFC0000061A1E150037307F0C00006384000266527F0854
:14301000000075976106156664107F06000067DC66660BFBB0
:143024007566417F05000058CFF862388DFEA666527F0400D3
:143038000038BDBFC3452359EFD9871000000000189F76962A
:14304C0033322236BF761000000000078FA5444333322246DF
:14306000367F040000048DE665544333325B67543221000062
:14307400018AF977665544334FD65556A910000078FC88870F
:1430880076554447DFECCB7710000048CFAA99887665545759
:14309C00AA6164000000089FDBBAA98877666540074000007B
:1430B00000059DFDCCBBA99887630472000000000088FFDDE1
:1430C400CCBBA986216600000000000048BFEEDDCCB95147CC
:1430D80030000000000000078FFFEFDA6346407F04000000EA
:1430EC00000299FFD83246517F05007F040049653356407F98
:1431000006007F0400056564107F07007F0500117F090006AB
:14311400171A1600337F0B000367407F0A000547830002405F
:143128007F0700046A97303647307F0600047AF8757188665C
:14313C00207F0500047BEF8740AFB665107F0400047CCAFB04
:143150002357EF96747F0400037BE58B633249FE86620000C3
:1431640000028AF6544333224BFC884000000079F86544338D
:1431780032236ED46000000078FA76654433223516200000FB
:14318C000068FC887655433248481000000048EEA988765432
:1431A000435FB56642000028CFBAA98766544AFD86679500B8
:1431B40007AFDBBBA98765557CFFC97800058EFDCCBA9877F0
:1431C800666553236300028BFEDDCBAA98864101562000009C
:1431DC0079FFEDDCCBA95202663000000048DFFFFDB96324DD
:1431F000662000000000088CA84333466410000000000003D6
:1432040084345565417F05000000002443217F07000614183F
:143218001700117F0A000168107F09000548707F0900064A5B
:14322C00747F0900074D872036507F0600076DF664636710E4
:143240007F0500178DED6807E6727F0500279D8FE415EF7768
:14325400407F040037AE57B9435CF8657F040037BE6544335E
:1432680023AF966000000037BE6654332238FB6610000037A6
:14327C00CE87654332228FD770000028CE987654332237C56E
:1432900062000028CFA987654333340360000018BFCAA9865F
:1432A4005443483900000007AFDBBA9865544EB563000006F6
:1432B8009FEDCBA9876549FC666300058EFDDCBA9876558EF1
:1432CC00FC9A92038DFEDDCBA9877766787574018BFFFFEEAA
:1432E000DCA974100036500078ABB99A964211246641000021
:1432F4003854333334456653100000000134444444327F05DB
:143308000004121818000027307F0800000166907F0800000F
:14331C000448827F080000061A867F080000162DA6201510ED
:143330007F050000455DF66374717F05000063AAEC671976B2
:143344007F05000074D88FB22ED6607F04000176E758C746BA
:14335800FB657F04000268E65433338F9640000000046BD7C9
:14336C0065433228F872000000057DC876543222AF77100043
:1433800000057EC9876543223CF6700000068FDA9876433208
:1433940025ED550000068FDBA98654333332450000068FEC6D
:1433A800BA9765433404600000068FEDCBA876544B691000FD
:1433BC0000059FFEDCB987654DE5730000059FFEDCBA9866FF
:1433D00056EE765000048CFFFFECB987768EFA882001966781
:1433E4008ADEDCBA98644886700015665444442210000146CD
:1433F80040000002357F05666541007F0600117F0500020F8F
:14340C00181A7F0400307F070000000006967F07000000001F
:1434200055887F070000000163A6107F060000000624C53077
:143434007F060000001608F650017F05000000524AF86256CA
:14344800507F0400000061A8CD6836837F0400000355C68F76
:14345C00C24F767F040000063AA558C75DD6400000000016C5
:143470005D86543336F86100000000359D87653322AE650029
:1434840000000056DC986543224FA62000000067FCA87653B7
:143498003228F66000000178FCA987543223EC630000026A67
:1434AC00FCBA976533238F860000037CFDCBA87543333635AA
:1434C0003000047EFEDCA976543300460000058FFEDCBA87D1
:1434D400544838400000058DFFEDBA97654CC65000000297A1
:1434E8008CFFECA86547FA65000000167558DFFDCA86AF9652
:1434FC0040000000157655689ABB9AEB950000000003566507
:143510003221110547207F0500235666665455007F080011CD
:14352400121000000D161B7F050005407F04007F050067A15B
:143538007F04007F04000639817F04007F0400543B527F044F
:14354C000000000003609B537F04000000000702CC547F04EB
:14356000000000005317AD551530000000000260886F786570
:1435740083000000000625A65CF63C8500000000354B865680
:14358800BA8F961000000063AB7654333AD54000000267DAA3
:14359C0087543325F7600000054CDA97653323DA62000006D2
:1435B0005FDB986543228E550000359FCBA97643224F7600A0
:1435C4000056EFDCB98653223CC6300068FEDCBA86543238AC
:1435D800F650017BFEEDCA9754333253600188EFFDCA97652A
:1435EC004310146000387AFFDB9865485574000002776CFF86
:14360000B86649E65000000004868CFEB855FA63000000009B
:14361400167669DFDABF77007F04002675458BBCE7607F0549
:14362800001467433247647F060001466642457F080002357C
:14363C0040000B141C7F0600363000007F0500056A90000091
:143650007F050064695000007F04000741D55000007F040052
:143664007409C450000000000006405BB440000000000055D7
:143678001669B4400000000003626858D58575000000173789
:14368C009756FC5587100000648B87548DAEC520000457CA46
:1436A0008754334AC54000163DCA97643326E55000539FCA57
:1436B40097643325E6500165FECB98653323D760054CFEDB96
:1436C800A8654322C951168FFEDBA8754322AB5327AFFEDCB4
:1436DC00A97543228D54069AFFDCA97543346D6500689FFC91
:1436F000A97643320226000688FFC976544013550000587D6D
:14370400FC8655B4853000000487AFFA64E960000000002769
:1437180076BFE7BE65007F04005866BFCF86007F040001681D
:14372C0055ABC7407F050002675344717F0600015752627F7D
:14374000080035300009141D7F07001200007F0600056B50F1
:14375400007F050003738950007F050066189520007F040054
:1437680027316D360000000000037337993500000000004691
:14377C00368697430000000005758876A75421000000476A5E
:143790009875AE766820000367BBA8756EE9B75000166CCB7F
:1437A4009875458CE5500065CECB98754326C450056DEDCB4C
:1437B800A8754336C45046AFEDCBA8754326B45087FFEDCBDE
:1437CC00A8754326B45048CFFDCBA8754336B450069EFECB79
:1437E000A8754336B4500088EFCBA8754437C45000299FEB9A
:1437F40098754457945000039AFE987552000350000059AFE0
:14380800E8667335463000000689FE95B86532000000005877
:14381C007EF8AC5300000000000486BFCE6500007F040039EB
:1438300068DE8600007F04000177688720007F05000486148C
:1438440050007F0600176540007F07002300000008141C7F7F
:1438580007000146307F060003656B807F0500036525B650EF
:14386C007F04000265237D362000000001564478A636000079
:14388000000037558976836200000005769A976772600000DF
:1438940000558CBA8767B67420000659DCB98756FD67830095
:1438A80066BEDCB986547DFD55056DFEDCB986543399443685
:1438BC00BFEEDCA9765433855217CFFEDCA9764433946105A2
:1438D0009FFEDBA97544349360018BFECBA875433583500026
:1438E40069EFCB9865433674500018AFDA98654328643000D6
:1438F800059DFB876546695520000089FE97653264260000D0
:14390C0000299FD7673120160000000499FC5A568662000009
:14392000000068AFAB85100000000000077AFD952000007F8A
:14393400040087AF952000007F04000878863000007F050053
:1439480078235000007F050006635000007F06003510000079
:14395C000207141B7F07001345507F05000256656AA47F041F
:143970000014664349C5620000002665568ABB244000001676
:143984007689AA87723600000466ABCA876651710002668CD5
:14399800DCA98758254000378DFECBA8765BB7630068FFEDDE
:1439AC00CBA87647FC88507DFEEDCB9865437EF5607BFFED56
:1439C000BA97654337544059FFDCBA87543347261038DFDCC3
:1439D400B986543355260008AFDBA8765433635300059FEA23
:1439E80098654434616000029CFB876543365350000079FD7E
:1439FC00876557573530000039BF966428B526000000078F2D
:143A1000E665023045000000029AF976396361000000006870
:143A2400DFA743142000000000197ED6527F040000000399B3
:143A3800D5617F04000000006884607F04000000000780600B
:143A4C007F04007F040084607F04007F040004207F040002CD
:143A600006181A7F070001222210007F05002456655557A888
:143A740000000000035676566789BA68100000146688ABBB8F
:143A8800BCCC6163000015778BDDCB9876620730000167CE42
:143A9C00FECBA9876630730000046EFFEDCBA8765716300030
:143AB00000049FFEDCBA97655D97400000049EFEDCBA875589
:143AC4004AF9860000038DFDCBA9765433AF762000018CFD58
:143AD800CB9875433354260000007BFCBA97654334506200BC
:143AEC0000007AFCA986544335236000000059FD98765433E7
:143B000044071000000039DF9765433351450000000018AF6F
:143B1400A7656645417000000000068FC6643CD51530000020
:143B28000000038CF7630481277F0400000088FA7269407262
:143B3C007F0400000058DD726166407F04000000189E645057
:143B50007F06000000068B46207F060000000198267F07001B
:143B640000000058167F070000000006647F07007F040010D6
:143B78007F07000406181700000134567F046655320000146B
:143B8C0067778AAAAA999878AA600167BDDEEEEDDDDDEFEB44
:143BA0006670036DFFFEDCB9876665105610049FFEEDCBA96F
:143BB400876630274000059FFEDCBA98766503710000058FC6
:143BC800FDDCB987655B59000000058FFDCBA876544DE67145
:143BDC000000059FECBA98654436FD550000059FEBA98654B0
:143BF000433463450000059FDA986554334402700000049E48
:143C0400E8876543334118100000038DE876543334208200AE
:143C18000000028BF86567434307300000000089F8643CE683
:143C2C0030647F04000078FA6305D704607F04000068EC6120
:143C40006960377F05000038CD436284707F05000008AB1700
:143C540020147F06000006A6267F08000003A2627F080000BC
:143C68000084607F0800000016207F080006041817000023C4
:143C7C0034444432107F04000016789778887666542000003E
:143C90000056DFFFFFFFECB976664100006AFFFFEDDCCDEF3F
:143CA400FEC98981027CFFEEDCBA98778BDDA775047DFEED3B
:143CB800CBA9876653101562058FFDDCBA987665102663008A
:143CCC00068FECCBA98765561672000007AFDBBA9865545E2B
:143CE0008800000017AFBA987654443CF860000017BFA98788
:143CF40065443335B653000028BF987654433343027100002D
:143D080028BF8765443334204710000028AF76675333310542
:143D1C006000000028AF7538F94400757F0400189F7402CF7E
:143D30004017407F0400089F703A8702827F0500079D22724D
:143D44009237107F050006A8081027507F060005A2547F09C9
:143D5800000493707F09000067107F09007F0C0006021A1606
:143D6C000000001322107F070000000167887665427F0500E7
:143D80000000056EFFDBA9876420000000000016AFFFFFFF6C
:143D9400FD9766400000000055EFEEDDCCCEFFC866400000CB
:143DA8000066FFEDDCBA999BEFD8763000036AFDDCCBA9883C
:143DBC007669DFDAA500056DECCBAA98766664213547000668
:143DD0008FCBBA98766554100245640027AFBA98876554568B
:143DE400157632000046BD99876654434D781000000056DCE7
:143DF80077665543333CE64000000066EA6655443333447341
:143E0C006000000076E8666433333310064000000177F75468
:143E2000CD53331005730000000278F6206FD42003757F04C5
:143E340000027AC2069AD10266107F0400027B5074681067B0
:143E4800207F0500029807401857407F060002A26400014064
:143E5C007F07000186407F0A0000137F0B0008011C140000A6
:143E700000026653107F0700000000177BA865317F06000098
:143E8400000066FFFFC987517F05000000045BFEEFFFFB87D4
:143E9800517F04000000165EEEEDDCDFFB7740000000000086
:143EAC0054BEDDDCCBAACFF966200000000267DDCCCBBA9944
:143EC00088CFD774000000055BDBBBAA99877768EF975000D7
:143ED40000166DBAA998876666678AEC970000458D9988772B
:143EE80066555431100456400064BB87766555444501245404
:143EFC0056300264C866655444334A48543221000548B665C7
:143F1000444433334EA67F0400063BA55BA4333344355530EF
:143F2400000000164E7207FA344320001620000000358A0026
:143F380047CF52100146637F040047A017589A000366417FB7
:143F4C00050059237205802565207F06006856000176537FB3
:143F6000080016407F0C0008001E137F05000455307F070098
:143F74007F0500569A86307F06007F0400056AFFEA76207F9A
:143F880005007F0400458FEFFFD9757F05000000000366EEB2
:143F9C00EEEEFFC8727F0400000000276DDDDDDCCDFF8730CC
:143FB00000000000000065ACCCCCBBBAADF9750000000000C4
:143FC4000457CBBBBAAA9998CFA75000000000163ABAA99961
:143FD8009888777AFB6500000000636B988888776666669FA6
:143FEC00B6500000026199777666655555699AFC74000006E4
:1440000025A6655555444444113338982000261A86875444ED
:14401400433345133332245000626C528FA33332335C58440F
:144028005666200063C3003CF53445565A657F0400037910B4
:14403C004698FA55431000167F04000692474058B30000121B
:1440500045647F040004864000492135666542107F04000027
:14406400200000066543107F070004040045062842025600CF
:14407800020455CC220004045520CFF42FFC02FC0401025C1F
:14408C000404020A00220054852002040000008804045A0001
:1440A0004F820C820045040158002C070000000000000000D8
:1440B4000000000000000000000000000000000000000000F8
:1440C80000000000000000000000000000000000110392112D
:1440DC00039211039211039211039211039211039211BBA889
:1440F000FBBBA8FBBBA8FBBBA8FBBBA8FBBBA8FBBBA8FBBBD2
:144104003322B43322B43322B43322B43322B43322B433221C
:14411800B433000000000000000000000000000000000000AC
:14412C0000000000000000000000000000000000000000007F
:14414000000000000000060708A8008CCC808CFC808FFF80C0
:144154008CFC808CCC8008A8000607008A8008CCC808CFC875
:1441680008FFF808CFC808CCC8008A802A0C2767787F0788B5
:14417C007F07CCDEFF20008313557F07667F07CCDFEF800069
:144190008436897F07AA7F06DDDEFFEF80008557997F07AA55
:1441A4007F06CCCDEFDF84A58772B97F07887F06BBBCFFDE59
:1441B80084F68781877F07667F0799CECF84C58780177F0755
:1441CC00667F0799BDCF84A58682387F07667F0699988CCE69
:1441E00082A48568757F07557F0677789BAE82648425687F35
:1441F40007887F0799878D800083127F08337F0755445B802C
:144208000026347F08447F0777766B2000120722221FFE52B3
:14421C002CF2222222222FA4EA2AE2222222222FC22AEEF29C
:14423000222222222C82226CC2222222224ACCCCACA32222F7
:14424400227CC8655578ACC6226CA521111333568CC40810F3
:14425800A2222222D2222222C8222222AC2222228C22CA2238
:14426C007CAEFFC26AEC22DA5AF622AC4AF5228C4AFA22CAC6
:144280005CCFACE25C27FF428A222222A6222222C222222289
:144294007222222212083CD720000000027C82224ACCA766AC
:1442A8007ACC82222222236AAA753222222222226CFCA5221D
:1442BC00222222222FF6225D622222222226ACFC872222221D
:1442D000222227C645DF5222222222224CFC4222222208127F
:1442E400222222252222222C2222225A222222A6232222C2B4
:1442F800CFC425A0228FA870224FAA602CC42A60CF422A5011
:14430C0026DA3A70222FC8A02AEC45C1CC4222D3222222A70E
:144320002222224D2222222C222222231A1A222AC4447F04B0
:14433400224458AD822222C844427F0422445688CA222C8493
:14434800422000202222458AAA8CA2AA24207F040020226CD5
:14435C00FDA8D6C4427F06002028FFFAAD52207F0700028FD0
:14437000FFAC227F040002000000022AFFCA227F050002004A
:14438400000004DFC820000000020000002000028FD8207F30
:1443980004000200200020004AC87F040020000200200000F4
:1443AC0026867F050002020200000004557F040002002000C9
:1443C0000200000244000000020002002020000002227F04B6
:1443D400000200202000200002227F050002000020000002A7
:1443E80022207F040020202000000022027F0B000202027F69
:1443FC000B0022207F0B0025807F0B002AD47F0B006C8D2006
:144410007F090004C42AC27F09004C5222F8207F070004C5AD
:1444240022222DD87F0600028C422206000E1A000000DB00BB
:144438000000000004DF200000000009CF90000000002A8F4C
:14444C00D000000000774FF500000001A24FEB00000005806F
:144460006FED3000000A315EFE90000039123DFED1000085B9
:14447400132AFEE60001A12236EFEB0006602244BFDD30089F
:144488002411448FAC90098F31446A4B9006BFA034743C3011
:14449C0001BCF125616B00008BF70641B600003BDD0524C1EC
:1444B00000000ABF521980000005BEC03C30000001BCE07A3E
:1444C400000000008CC1B5000000002DC4B1000000000AE94D
:1444D800700000000005EA200000000000C900000006000E74
:1444EC001A7F040007A0007F04003EF10000000001BEF20015
:144500000000000A9EF400000000895FF500000004B25FD742
:144514000000002B409FC9000000A600CEBB0000088103BE47
:14452800AC00005A2024AEAC1002B301349EAD3007500244C9
:14453C008EAC40084921447D9C60077E4144693A80068D60A2
:1445500044521B70048C8044206B10039AA04304B300029975
:14456400C0302A60000098D1018900000097E106B1000000A7
:1445780088D03B300000006AA1B6000000005C869000000039
:14458C00003E9A7F0400002EB27F0400000A407F040004018B
:1445A00012187F070047007F060007FF007F0500019DFD0066
:1445B4007F05003B9DFA007F040006B55FE700000000019A7E
:1445C80040CDB6000000002B9205E7C400000005B71029A614
:1445DC00C20000007A40035986C1000002A200444977B00054
:1445F00000067112445A69A0000007464144595A8000000979
:14460400372244573B70000009281243411B5000001928137D
:1446180032005C2000002828031005B6000000373701017BD7
:14462C004000000056460029A100000000747404A87F0400BD
:144640000075815B507F0400007A56B27F050000BB997F0663
:144654000000FC607F060000637F0700020316147F090028A9
:14466800307F08004AFF807F0600017BBEFE207F0500039CBE
:14467C00A6AFE9007F040015AC9417FAB40000000007BB731A
:14469000126E66B0000000006A411257961B6000000001B4A6
:1446A400015655724C1000000005902354455198000000004E
:1446B8000A4132444623C3000000003A1223445507A0000052
:1446CC00000085032432311B5000000001A1222223204B00EC
:1446E000000000068021232114A7000000000A214221149AE4
:1446F400600000000048282126A9507F040000868238A83007
:144708007F050002BB68A6107F060008FA847F080003727FB8
:14471C00090000051A107F0D007F080013568ADF707F050078
:144730002579BCCCBBEFFF407F040006BBA987667DFDD7003B
:144744007F04004B5125678BEB59900000000002B50179998D
:1447580099506B10000000000A700455545204B300000000B9
:14476C00008910234444302B600000000005A20134444401D5
:144780009900000000002B401332212007B00000000001B52E
:1447940000011234104B200000000009615778877512A47FE5
:1447A8000400006968633222357A707F040003CCA5568999E3
:1447BC0087537F050006EB7764317F08007F0D0000071A0C4E
:1447D0007F0500179754217F04007F040004BBABCDDCBA86D5
:1447E40053107F04007B6139BBAABCDFFFFB00000019A3020E
:1447F8008DEEEEEFFEDDE7000003B8202566789AB9449B3053
:14480C0000006B6103444444420029A1000019A30034444479
:14482000431004B7000002A6111100001121016B4000005B73
:1448340099ADEDCB97430028A20000009EECA8789ABCDA03F1
:14484800A87F0400012467899988855A507F04007F040012B4
:14485C003568827F050000061A0E7F0D007F05000387207F3E
:1448700005007F040016BCBCDA407F040000000028CB734AD1
:14488400DEEC7200000000005ACA5114AFFFEEED930000023D
:144898007BB831146779DFFFFEEEC6109A952003665444576D
:1448AC00BEFFFFFFF9DEDCDDA3012444433468569DED18CDFD
:1448C000CDFFC4001222321016AA500004ACBBEFE821321128
:1448D40038A930000000028BBBDFE30159A620000000000095
:1448E800015ACB726A947F04007F05003999727F05007F0DCB
:1448FC000000071A0C7F0400013468727F05000124679BCC72
:14491000CCBBDD507F04007AAAAAA876657ADEE87F04004DFB
:14492400EA5225789ABFFFFEB200000003DFEEA4587778DF04
:14493800FFFD4000000009DDFD3034445AFFFFE70000000065
:14494C006DCFF60244458EFFFFB100000003CCEF90011112EB
:144960008DFFFE400000001ACDFD3346778865AFE67F0400A0
:144974007DCFC6543223469CCB7F040004CB435678998754F0
:14498800207F0500188765321000000000051A107F0D000472
:14499C00A99753217F080002CB9BDDCCBA86427F0500006F46
:1449B000C55ABABBCDDE707F04000009EFB7CEEDCCDEF57F39
:1449C40004000000BCFC39CDEFFFFD2000000000002CCF9087
:1449D8004568EFFFC0000000000004DDF503446EFFF90000ED
:1449EC00000000008CEF214448FFFE6000000000000ACFD089
:144A000002249FFFE3000000000001CCFB321005EFFD1000F0
:144A14007F04003DCEDEDDB9ADFFB0007F040006D97789AB23
:144A2800CD9AF8007F05003678999889A8CC407F07000124D0
:144A3C00578AAB807F0B0001000203161401617F090005BBF6
:144A5000A37F080001CBCEB5107F0600009E7AFEC8207F05C2
:144A640000003DE9DFEEDA407F0400000ACF9EFFEEEC6000FE
:144A780000000005BEB3DFFFEEF70000000000BCF239DFFF2C
:144A8C00ED10000000007BF80458EFFE60000000002BCE0202
:144AA000448FFEC00000000009BF50445BFEE40000000004D4
:144AB400BDD00348FFEA0000000000BBFB3003DFED20000058
:144AC80000006DCEFD613EFE800000000008CBBDFE97EFC0B1
:144ADC00007F040016BBBCFFABF5007F0500049BBCE7BB0096
:144AF0007F0600027BDEAC307F0700015BDA807F09002850BA
:144B04000401121800437F070000AC607F0600009CF97F06FA
:144B180000008ABFC27F0500006A7EFD407F04000059CDFF2D
:144B2C00E87F04000039BCEFFEB10000000029AC6FFFFD3007
:144B4000000000199D19FFFFE6000000098E139EFFEE300049
:144B540000087E2247EFEE700000077D41448FEC90000005F8
:144B68007C50445DDBA00000049CB0145CEBB0000002CCFB2D
:144B7C00104AEAC10000007DCFE308EAD200000005CCEF620B
:144B9000DBD4000000002BCDFB7AD6007F04009DCFC5D80093
:144BA4007F040006DCF5AA007F05003CED7B007F050001AF9D
:144BB800BA107F060008CA207F0700480006000E1A00074065
:144BCC007F0400000CE27F0400002BFE7F0400003ABFA0009C
:144BE000000000585FF600000000664FFE30000000846EFF40
:144BF400D10000009379FFFA0000009283DFFE700001928161
:144C08008FFFE4000282714BFFFD1004736045DFEE80055418
:144C1C0051448FCBA0074840446C8A90079EC0246A6B7002CC
:144C3000DCF8036A5B50004DDF40795C300008CEF2486C2077
:144C44000000BCFD367C1000001CCFA28B00000004DDF19A5D
:144C5800000000007DF589000000000AFA870000000001DEE3
:144C6C00A5007F04003EA3007F040006B10000022222222267
:144C800022222220006ACCCCCCCCCCCCCCCCCCA802222222F4
:144C9400222222222222200A200C202C202C202C202C202C6E
:144CA800202C202C202C202C202C202C202C202C202C202C00
:144CBC00202C202C202C200C200A2000A200C202C202C2029C
:144CD000C202C202C202C202C202C202C202C202C202C20228
:144CE400C202C202C202C202C202C200C200A2080E001896FE
:144CF8000001EFFFB00AF60AF40EE001FB1FC000EE2FA00085
:144D0C00DF2F9000DF2F9000DF2FB000EF1FC000FE0EF002CD
:144D2000FB07F92CF300BFFF9000058500000000000000008D
:144D340000000000000000000000000000000000000000006B
:144D4800000000000000000000000000000000000000000057
:144D5C00000000000000000000080E000075000002FA0000BC
:144D70001EFA0004FFFA005FE8FA003B01FA000002FA0000A7
:144D840002FA000002FA000002FA000002FA000002FA00002F
:144D980002F900000075000000000000000000000000000097
:144DAC000000000000000000000000000000000000000000F3
:144DC0000000000000000000000000000000000000000000DF
:144DD400000000080E0017981001EFFFE20CF607FC0FD00041
:144DE800EF0E5000EF000002FD00000DF40000DF90000CF907
:144DFC000000AFA00006FC00000EFDBAA90EFFFFFF0155552E
:144E100053000000000000000000000000000000000000003B
:144E240000000000000000000000000000000000000000007A
:144E38000000000000000000000000000000000000080E0050
:144E4C0039930008EFFE602FB02FF04F100BF102000EF000D8
:144E600015BF7000AFFF4000134EF1000005F88D0002FAAF85
:144E74002005F72FD12EF107FFFF60002871000000000000F1
:144E8800000000000000000000000000000000000000000016
:144E9C00000000000000000000000000000000000000000002
:144EB0000000000000000000000000080E0000055000002F54
:144EC400E00000DFE00006FFE0000FACF000BF0CF003F50DEB
:144ED800F00ED00CF06F611DF2CFFFFFFF3BBBCFFB00000C85
:144EEC00F000000DF000000580000000000000000000000040
:144F000000000000000000000000000000000000000000009D
:144F1400000000000000000000000000000000000000000089
:144F28000000000000080E0034343008FFFFF50DFAAAA10E6C
:144F3C00D000000F9000002FDDFC104FFBCFE02E300AF60083
:144F50000002FA120001FBAF0004F86FA00DF20CFFFF800000
:144F64007CB400000000000000000000000000000000000009
:144F7800000000000000000000000000000000000000000025
:144F8C00000000000000000000000000000000000000000809
:144FA0000E00027500008FFFE103FD15FB0BF100CD0FE00041
:144FB400001FC3DD502FFFDFF62FF601FE2FE000AF1FE000F6
:144FC8009F0EF000BF07F903FD00DFFFF20007C910000000C9
:144FDC000000000000000000000000000000000000000000C1
:144FF0000000000000000000000000000000000000000000AD
:1450040000000000000000000000000000080E025553313F68
:14501800FFFFFE09AABDFC00000AF100002F800000CF0000A3
:14502C0001F9000008F200000EE000002FB000006F800000C0
:14504000AF600000BF3000005A000000000000000000000004
:14505400000000000000000000000000000000000000000048
:14506800000000000000000000000000000000000000000034
:14507C0000000000000000080E0006750000CFFF9009F93DF2
:14509000F50EE001FB0FD000FB0AF509F500EFFFB006FD9E17
:1450A400F31FE001FE3F9000DF3F9000DF1FF103FD08FFCFC5
:1450B800F4005DEC3000000000000000000000000000000077
:1450CC000000000000000000000000000000000000000000D0
:1450E0000000000000000000000000000000000000000000BC
:1450F40000080E0007500001EFFE300DF76FF06F9006F69E21
:145108004001FC9E4001FD6F9005FE0EF77FFE02EFF9FE000E
:14511C000200FC0B2003F80FD00CF109FDEF90008ED7000095
:1451300000000000000000000000000000000000000000006B
:14514400000000000000000000000000000000000000000057
:14515800000000000000000000000000000000040E00000031
:14516C0000000000000000000000000000000000000000002F
:14518000002FE00DA0060E000000000000000000000000004B
:1451940000000000000000000FFFF00FFFF00000000000000B
:1451A8000000000000000000000E0E02355555556C602101B3
:1451BC002222223EF1510000000001E56300000000006563E8
:1451D000000000000055530000000000555300000000005526
:1451E400530000000000555300000000004555000000000022
:1451F800143900000000002116222222222220002333333399
:14520C003200000000000000000E0E2677777777772078DD52
:14522000DDDDDDEFE198999999999DF5BA888888888AE6BA81
:14523400888888888AD6BA888888888AD6BA888888888AD672
:14524800BA888888888AD6BA888888888AD6BA888888888A7A
:14525C00D6CB8999999999B5CC7777777775914988888888E4
:145270008840001111111110000E0E00001466300000000642
:14528400877AEE40000073000006F70004201111102F40139F
:145298000100000107E0231000000101E2340100000010B409
:1452AC003601001000108419010000001082094010001101FC
:1452C0008002C20000000630002B62111044000000565323A2
:1452D4002000000000011000006432562264227222561264A1
:1452E80012721256026402720256327232461246220A3220A2
:1452FC00323632FF0B0B0B0B000000000A0A0A0AFFFFFFFFB5
:1453100010101010FF0F0F0F0FFFFF0E0E0E0EFF0B0B0B0BAD
:14532400000000000A0A0A0AFFFFFFFF10101010FF0F0F0FE5
:145338000FFFFF0E0E0E0EFF0B0B0B0B000000000A0A0A0AC9
:14534C00FFFFFFFF10101010FF0F0F0F0FFFFF0E0E0E0EFFA1
:145360000B0B0B0B000000000A0A0A0AFFFFFFFF10101010A9
:14537400FF0F0F0F0FFFFF0E0E0E0EFF0303030302020202A1
:14538800010101010D0D0D0DFFFFFFFFFFFFFFFFFFFFFFFFE5
:14539C00FFFFFFFF0303030302020202010101010D0D0D0DB5
:1453B000FFFFFFFFFFFFFFFFFFFFFFFFFFFFFFFF03030303ED
:1453C40002020202010101010D0D0D0DFFFFFFFFFFFFFFFF9D
:1453D800FFFFFFFFFFFFFFFF030303030202020201010101B1
:1453EC000D0D0D0DFFFFFFFFFFFFFFFFFFFFFFFFFFFFFFFF89
:145400000606060605050505040404040C0C0C0CFFFFFFFF30
:14541400FFFFFFFFFFFFFFFFFFFFFFFF060606060505050564
:14542800040404040C0C0C0CFFFFFFFFFFFFFFFFFFFFFFFF3C
:14543C00FFFFFFFF0606060605050505040404040C0C0C0CF4
:14545000FFFFFFFFFFFFFFFFFFFFFFFFFFFFFFFF0606060640
:1454640005050505040404040C0C0C0CFFFFFFFFFFFFFFFFE8
:14547800FFFFFFFFFFFFFFFF090909090808080807070707C8
:14548C00FFFFFFFFFFFFFFFFFFFFFFFFFFFFFFFFFFFFFFFF20
:1454A000090909090808080807070707FFFFFFFFFFFFFFFFA0
:1454B400FFFFFFFFFFFFFFFFFFFFFFFF0909090908080808AC
:1454C80007070707FFFFFFFFFFFFFFFFFFFFFFFFFFFFFFFFC4
:1454DC00FFFFFFFF090909090808080807070707FFFFFFFF64
:1454F000FFFFFFFFFFFFFFFFFFFFFFFFFFFFFF080700123264
:145504001001467641027BEB73038EFF83027BEC73014677FD
:145518004100123210E7BF9F7F5F4F3F2F271F1B17130F0B65
:14552C0007050302746050403028201814100E0C0A0806040C
:1455400003020120FDEAE7E5ECEFEBFFF02120200020F4E074
:14555400EBFCF8E8E2FBE9202000202D20C4E02C20EDEE201E
:14556800202020200020F6E8F2F0F3F13F600060E6E8EB2013
:14557C00E1FB000A0020DEE3E02000202D20C220F7E0F9E055
:14559000F50064657074680064697374616E6300253200259B
:1455A4003300B41BA91CA41DA91EA51FAB2095219B22B223CD
:1455B800BF24CB25DB26FA27FD28012AEE2AED2BF82CFE2D1B
:1455CC00EF2EFD2F1331153209330A3427353D3644375338A8
:1455E0005C395F3A7B3B753C683D6A3E673F2F44E9449E45AC
:1455F40060461E47CC476248FD489449454A044BC54BCFE517
:14560800D8E0CDBFDEBFC055D0400AEA08830024E0ECF0E049
:14561C0014E0E93CF10711F00192FBCF0083E6EAF5E5A0E658
:14563000B0E016E5E630F10721F0C89531960D92F9CF0E948F
:145644003D38FFCF202E332401502220D9F708950E9445394A
:14565800A80125E030E08A010E945C39A8011A0141505040D9
:14566C002220D9F73320C9F70E94483908950E944539A8017C
:1456800003C000E21EE4E6DF1A01415050402220C1F7332021
:14569400B1F70E9448390895089508950895089508950895EC
:1456A8000895089508950895089508950895089508950895CC
:1456BC000895089508950895089508950895089508950895B8
:1456D00087B3806B87BB88B38F7488BB87E58DB9033009F4FC
:1456E4006B9A08950895089508950895089508950895089528
:1456F80008950895089508950895089508950895089508957C
:14570C000895089508950895089508950895089508952224BE
:145720002092D5002092D4002092D3002092E1002092E000BE
:145734002092DE002092DF0008950FB9089508950895089567
:1457480008950895089508950091D300802F8F5F87708093CE
:14575C00D300282E8091D400821987708093D50086ED90E0CE
:14577000E02FFF27E80FF91F008108950E94453986ED90E0C0
:14578400E091D400FF27E80FF91F00834091D4004F5F47700A
:145798004093D4002090D300842F821987708093D5000E9404
:1457AC00483908952090D3008091D400821987708093D500E9
:1457C000082F089582EE90E0E091E000FF27E80FF91F008318
:1457D4008091E0008F5F8F7F8093E0002090DF0082198F7FA9
:1457E8008093E10008950091DF00802F8F5F8F7F8093DF000F
:1457FC00282E8091E00082198F7F8093E10082EE90E0E02FC6
:14581000FF27E80FF91F008108950091DE00802F8F5F8F7F17
:145824008093DE0082EE90E0E02FFF27E80FF91F008108953D
:145838002090DF008091E00082198F7F8093E100082F08956B
:14584C002090DE000091E00002190F7F08950E944339402F76
:145860006091C80477276030670769F06030E0E07E0754F168
:145874006430E0E07E0779F06630E0E07E07B9F021C0C3981E
:14588800C298042F58DF779BFECFC29AC098C19A17C081B34F
:14589C008F6F81BBC398C198C09AC29842BBC29AC098C19A4A
:1458B0000BC081B38F6F81BBC398C09AC198C29842BBC29AEA
:1458C400C19AC09A0E94313908950E944339402F6091C80428
:1458D80077276030670769F06030E0E07E0754F16430E0E059
:1458EC007E0779F06630E0E07E07B9F021C0C39AC298042F6B
:145900001EDF779BFECFC29AC098C19A17C081B38F6F81BB63
:14591400C39AC198C09AC29842BBC29AC098C19A0BC081B30A
:145928008F6F81BBC39AC09AC198C29842BBC29AC19AC09AB9
:14593C000E943139089500272091C80433272430E0E03E0757
:1459500029F02630E0E03E0759F013C0222421BAC39AC19ADA
:14596400C09AC29800B3C29AC09809C0222421BAC39AC19A72
:14597800C098C29800B3C29AC09A08950E944539222420924B
:14598C0004022092030281E08093E2012092F10188E08093D4
:1459A000F20120920A0220920B028FEF80930802209207022D
:1459B40008E210E060DE4427552704C0002785DF4F5F5F4F35
:1459C8004030E4E15E07C0F34427552709C08CEE93E1FA01E5
:1459DC00E80FF91F04913BDF4F5F5F4F4E32E0E05E0798F36D
:1459F0000E94483908950E944139802F807FA82E622F607FD3
:145A0400681710F4482F01C0462F802F8F70A82E622F6F706A
:145A1800681710F4480F01C0460F042F0E94343908950E9409
:145A2C00D6380E943D392C970024088608820B862E883F8833
:145A4000C10101969F8B8E8BF101E491E695E9832E883F88EB
:145A5400C10101969F8B8E8BF101E491EE83288C398CC1018F
:145A68000196998F888FF101449146951C010196998F888FBF
:145A7C00F10164912E8C26942F82822D0980800D8150898764
:145A90002C8C260E2D822A8C240E2B822EA00AA4200C2A867A
:145AA4002CA008A4200C2C8205E7D5DE08A1D3DE08A10E806C
:145AB800000D0150CEDE00240A829DC005E1C9DE0F81C7DE01
:145ACC000985C5DEAA248EC00880002021F0642F0A94088205
:145AE0001EC02E883F88C10101969F8B8E8BF1012490422DA6
:145AF400622D6F3791F41C0101969F8B8E8BF101E491E15055
:145B0800E8832E883F88C10101969F8B8E8BF1012490422DF0
:145B1C00622D0A8CA01408F433C00B80A01408F02FC00A80FD
:145B30000C8D001608F42AC00D81001638F50884002019F046
:145B44000A9408861DC0288C398CC1010196998F888FF10141
:145B5800E4908E2D8F3791F4288C398CC1010196998F888FAE
:145B6C00F101E491E150E887288C398CC1010196998F888F0D
:145B8000F101E4902E2D062F36DF602F0AA01BA0002011F4ED
:145B9400112049F10CA0A01430F10C80A01418F50A800EA18B
:145BA8000016F8F00A850016E0F40B84002019F00A940B868B
:145BBC0012C0EAA1FBA1C190FBA3EAA38C2D8F3751F481918A
:145BD000FBA3EAA381508B87EAA1FBA1C190FBA3EAA32C2DB7
:145BE400062F07DF602F062F70DEA3940980A01408F46ECFD3
:145BF8000A8003940A820A800E81001608F45ECF2C960E9430
:145C0C003A39249608952090EB01209206022090EC01209215
:145C20000502222420920A0220920B0208950E943D39C02E03
:145C34004091EB014695A090ED01A69405E70BDE0091EC0119
:145C480008DE2090EE010091EC01020D015001DE662710C0A9
:145C5C0005E1FDDD042FFBDD042F0A0D0150F7DDEE2403C025
:145C70000C2D2DDEE394EA14D8F363952090EE01621560F33B
:145C84000E943A3908950730E0E01E0731F42F30E0E03E07B5
:145C980011F408E010E00093EF012093F00108950E94433939
:145CAC0005E7D5DD00910502D2DD00910502095FCEDD4427E9
:145CC00023C005E1CADD009106020695C6DD20900A0200913C
:145CD40006020695020D0150BEDD66270EC080E2849F10012D
:145CE8008CE092E0280E391EE62FFF27E20DF31D0081E9DDBC
:145CFC00639520900A02621570F343954830D8F220900B022F
:145D10003090EB01320C30920602222420920A0220920B0208
:145D24000E94313908950E9443392090090280E2829D100157
:145D38008CE092E0280E391EE0910A02FF27E20DF31D408189
:145D4C00002319F06091F00102C06091EF0120900B0220FEB7
:145D600005C0407F862F8F70482B04C04F70862F807F482BDA
:145D74002090090280E2829D10018CE092E0280E391EE091F2
:145D88000A02FF27E20DF31D40830E94313908952090ED01CC
:145D9C003090EB01320C20900B022314C0F42224209209025E
:145DB00007C00027BADF809109028F5F809309028091090214
:145DC4008830A8F380910B028F5F80930B02282E269420928A
:145DD8000A0208950E943D39602F2090E201222019F4062F50
:145DEC00EBDC1CC1462F4F3721F48FE78093040215C1609199
:145E0000040277276030E0E07E070CF40DC18FE090E08617CB
:145E1400970774F002E010E09B010E942139F80184E590E03C
:145E2800E80FF91F05901490F00109946F37E0E07E0709F0AC
:145E3C00F5C040930402222420920302413019F405E705DD7B
:145E5000EBC0423009F0E8C005E1FFDCE5C020900B022694A3
:145E640020920A02442331F420900B02222011F019DFD8C050
:145E78004D3079F42090EB012092060280910502885F8093C4
:145E8C000502222420920A0220920B02C7C0403611F47CDFDB
:145EA000C3C0403239F4662702C076DF63956430E0F3BAC04F
:145EB40080E2841708F0B6C0403C10F0415601C0415282E0A6
:145EC800849FF00182EA96E1E80FF91FA590B4904AC080912C
:145EDC000B02803438F42090ED013090EB01320C831508F0AD
:145EF0009BC01501C10101965C018AE194E1F101E80FF91F96
:145F04006491CC24C39422242092090207C000270ADF809162
:145F180009028F5F809309022090F10130900902321498F320
:145F2C0011C0262E2C2021F081E090E07C0102C0EE24FF249A
:145F40000E2DF3DECC0C809109028F5F809309022090F2019E
:145F540030900902321448F380910B028F5F80930B02282E6B
:145F6800269420920A0282E0849FF00184EA96E1E80FF91F43
:145F7C0005901490F001AE16BF0608F4A8CF06DF4DC0042FC6
:145F90009EDC4AC080910302823038F4042F5DDC8091030203
:145FA4008F5F8093030280910302823009F03AC031C0809126
:145FB8000302823098F4282E33248F5F809303024090040209
:145FCC0082E0849D200183EE91E0480E591EE22DFF27E40D48
:145FE000F51D4083809103028230F1F480910402843011F45B
:145FF4000EDE10C080910402863039F42090EF01241641F4D4
:14600800042F11DE05C0809104028F3009F48BD42224209273
:14601C000402809103028F5F809303020E943A3908950E94FA
:14603000D6380E944139AE01485F5F4FFA0160817181AA2492
:146044006EC04E3511F44BE163C0493011F449E05FC04D3000
:1460580011F44DE05BC04A3021F40DE0BBDE4AE055C045321C
