:1000000000308A00192A00000A108A100A1182079B
:1000100050346F347434763461346C3475346534F0
:10002000203431342034303478342534783400347A
:100030000A108A100A11820750346F3474347634EF
:1000400061346C34753465342034323420343034C7
:10005000783425345834003483166F1833288312CB
:100060000812352883168312081683160812EF1813
:100070003D28831288123F28831683128816831620
:1000800088126F1947288312081349288316831290
:10009000081783160813EF19512883128813532861
:1000A0008316831288178316881383120034EC306A
:1000B00084008313000803196A280630F800F7014A
:1000C000F70B6028F80B5F287B30F700F70B6628EA
:1000D000800B5D28003403308316EF02031C7B285D
:1000E000EF3084008313000803197B28792800006F
:1000F0000000800B772883128A110A129128831638
:100100008811831288151030F700F70B852800003E
:100110008316881183128811C8308316EF0083126A
:100120006B2800348316EC0E6C08EF0083122C2031
:100130007F208316EC0E6C08EF0083122C207F20AA
:1001400000348316831686158316061683168616C4
:1001500083160617831686170230EB00EF01831211
:100160002C200F308316EC008312572083160811C1
:100170008312081103308316EF0083122C207F2096
:100180007F207F2002308316EF0083122C207F20F7
:100190002C308316EC00831292200C308316EC0076
:1001A0008312922006308316EC00831292208A116B
:1001B0000A12F52A8316EB0E6B080838EC00EF00E4
:1001C00083122C207F208316EB0E6B08EF00831226
:1001D0002C207F2000348316081183120815831603
:1001E000EE0E6E08EF0083122C207F208316EE0E99
:1001F0006E08EF0083122C207F20831608118312D3
:10020000081100348316ED1B17290F30F7006C0E10
:10021000F7050A307702031810293030F707122942
:100220006D08F7077708EE008312EB2083160F3076
:10023000EC050A306C0203181F2930302129ED1318
:100240006D08EC076C08EE008312EB200034861A70
:100250002D290130F800302930290030F8003029EC
:100260008A110A123A2B061B412932308316EC0000
:1002700083125720F11D4029F1110130F800442963
:100280004229F1150030F8008A110A12462B831614
:100290006C08013C031CA72913306C0784008317EA
:1002A0006D08800083120317130890001408910052
:1002B0009201013083160313EE006E08073C031C05
:1002C0006B29031083120317900D910D920D831665
:1002D0000313EE0A5D290611831206150330F70099
:1002E000F70B702901308316EE006E08113C031CD9
:1002F000A729031083120317900D910D920D031877
:100300008529031306108729031703130614831680
:1003100006100330F700F70B8B2986108312861422
:100320000330F700F70B922983166E08103C031870
:100330009D290611831206118316861083128610DA
:100340000330F700F70BA2298316EE0A75298312F2
:10035000003483166B08EC00ED0183124721013055
:100360008316EC008312572083166B08EC00ED0116
:100370008312472101308316EC00831257208A1123
:100380000A12662B861BD02932308316EC008312AA
:100390005720711ECF2971120130F800D329D129BD
:1003A00071160030F8008A110A12682B83166B0848
:1003B000EC007F30ED008312472101308316EC0002
:1003C0008312572083166B08EC007F30ED008312F8
:1003D000472101308316EC00831257208A110A123C
:1003E000882B8619FF2932308316EC0083125720A0
:1003F000711CFE2971100130F800022A002A7114C4
:100400000030F8008A110A128A2B061A132A323099
:100410008316EC0083125720F11C122AF1100130D0
:10042000F800162A142AF1140030F8008A110A1272
:10043000BD2B840183131F30830583161F149F1463
:100440001F159F118312A001A101A201A301A40104
:10045000A501A601A7000A30A800A901AA01AB01C5
:10046000AC01AD01AE011F30AF00B0000A30B100E9
:10047000B201B301B401B501B6011F30B700B80035
:10048000B9000A30BA00BB01BC01BD01BE011F307A
:10049000BF00C000C100C2000A30C300C401C501D2
:1004A000C6011F30C700C800C900CA00CB000A300F
:1004B000CC00CD01CE011F30CF00D000D100D20042
:1004C000D300D4000A30D500D6011F30D700D800A1
:1004D000D900DA00DB00DC00DD000A30DE001F306E
:1004E000DF00E000E100E200E300E400E500E600F8
:1004F0000A30E700E801E901EA01EB010430EC0011
:10050000ED000E30EE000430EF000A30F0008316EC
:10051000A001A101A2010430A300A4001430A50091
:100520001830A6001C30A7000A30A800A901AA01B3
:100530000830AB001E30AC000830AD00AE01AF019A
:10054000B0010A30B1001C30B2001830B3001430D2
:10055000B4000430B500B601B701B801B9010A30E2
:10056000BA000430BB000E30BC000430BD00BE0039
:10057000BF01C001C101C2010A30C3000730C4007D
:100580000330C5000530C6000430C700C800C901EB
:10059000CA01CB010A30CC00CD01CE01CF0102301F
:1005A000D0000F30D1000230D200D301D4010A3084
:1005B000D500D601D701D8010430D900DA000530C2
:1005C000DB000330DC000730DD000A30DE00711094
:1005D000F1107111F1117112F201F3010130DF001C
:1005E000E001E101E2018312A12832308316EC0020
:1005F0008312572001308316EC00831292200A30B8
:100600008316EC00831257208316EB018312DA2045
:100610008316EB016B08831204208316EB0AF700A4
:10062000EE008312EB200D3083166B02031D0A2BA4
:100630006508EC005730ED0083120221403083162C
:10064000EB008312DA208316EB016B08831218206B
:100650008316EB0AF700EE008312EB200D308316B1
:100660006B02031D252B6608EC003730ED0083126A
:100670000221272978088316E300E3080319422B97
:100680000030432B0130E30083123329F8080319AB
:10069000672BE53083166307F800FA010318FA0A9E
:1006A0007808EB007A08EC00E730630784008313D6
:1006B00080010030EE006B08840083136C188317F0
:1006C0006E0880006308EB008312A929EE2BC22973
:1006D000F8080319892BE53083166307F800FA013F
:1006E0000318FA0A7808EB007A08EC00E730630791
:1006F000840083137F308000EE006B088400831336
:100700006C1883176E0880006308EB008312D629EB
:10071000EE2BF129F8080319BC2B8316E308031DFF
:10072000A62B6708003C0318972BE703982BE701DB
:10073000670865020319A52B6708E5006308EC004C
:100740006508ED00831247218316BA2B6808003C28
:100750000318AC2BE803AD2BE80168086602031907
:10076000BA2B6808E6006308EC006608ED00831207
:1007700047218316EF2B8312052AF8080319EE2B65
:100780008316E308031DDA2B6708FE3C031CCA2B03
:10079000E70ACC2BFF30E700670865020319D92B65
:1007A0006708E5006308EC006508ED008312472147
:1007B0008316EF2B6808FE3C031CE02BE80AE22BB3
:1007C000FF30E800680866020319EF2B6808E600AE
:1007D0006308EC006608ED008312472183160D3094
:1007E000EB008312DA2083166508EC003730ED0049
:1007F000831202214D308316EB008312DA20831618
:100800006608EC003730ED0083120221392B6300BB
:00000001FF
;PIC16F877
