:10000000830100308A001F28F30003088301E00009
:100010000B1C0F2883120313A2150608B3000B1D37
:1000200016288312031322163D3081000B100B118A
:100030000313831260088300F30E730E090023304C
:10004000840060302C202030840023302C20830159
:10005000D92E04068001840A0406031D29280034D1
:10090200942489240730A42C94240730A424892C0D
:100912008316031386148312080003108312031331
:10092200861803140800830186108316861083122A
:100932000800D5242B08A300A308031D0800CC300F
:10094200C2244430C22C8301DF00AB2C0000000023
:100952000000DF0383120313DF0803190800A72C2A
:100962008301851D2119BA2C2018A01DBA2C05154A
:10097200BB2C0511861A211C080021100430A10687
:1009820008008301DE008B130830AA00D02C5E1C05
:10099200CC2C8124CD2C85240310DE0CAA03AA08BA
:1009A200031DC82C8B170800892494243230A424F8
:1009B20089240830A4248E24031CE22CAB01AB0A48
:1009C20008002830A4248E24AB01031CAB0A0800C3
:1009D2008301A11DEF2C20308606B201A01F080062
:1009E200061DF62C0611A1140800A1100615A11669
:1009F2005C08D4005D08D5005A08D2005B08D30019
:100A020008008301851A172D30083C3A0319172D67
:100A12002218A01A172DB00A30083C3A031D172DD0
:100A2200B00186112013A0160611A112851E08001E
:100A3200A012B00108008301211221108518262D71
:100A4200143035020318262DB50A851C0800350816
:100A5200143A03192114B5080319342D3508143A30
:100A62000319342D2116B50108008301A111A01329
:100A72000518402D143034020318402DB40A051C09
:100A820008003408143A0319A017B40803194E2DAC
:100A92003408143A03194E2DA115B401080083013C
:100AA200DE018B130830AA00692D942400008924EA
:100AB2000000000000000000000000000310DE0C37
:100AC200861C652DDE17662DDE130630A424AA03CC
:100AD200AA08031D562D8B175E0808008301A11A70
:100AE200201B892D221C892D53085204031D852D9C
:100AF200550854040319852D0930D200D301D408B6
:100B02000319D503D403892DD2080319D303D203C1
:100B120055085404031D080053085204031D08001D
:100B22000611A11208008301A2199D2D851EA01A8B
:100B32009B2D9D2D0618A82D2017A2118615580849
:100B4200D0005908D1005608CE005708CF00851EA4
:100B5200A01AAC2DB02D061CB02D051A0800A11844
:100B62000800A11606155C08D4005D08D5005A08D5
:100B7200D2005B08D300080083018617F11DC32D44
:100B82000617C42D061300008312031386130000F8
:100B920000008617711DCF2D0617D02D06130000F9
:100BA2008613000000008617F11CD92D0617DA2DD6
:100BB200061300008613000000008617711CE32D47
:100BC2000617E42D061300008613DE01DE0ADE0B93
:100BD200E82D08008301B10A0A303102031C080023
:100BE200B1010830A006A214AE0A02302E02031C84
:0E0BF200FE2DAE010230A006A117AC0A0430A1
:100C00002C02031C0800AC010130A0062117AF0A1A
:100C100005302F02031C102EAF011030A006221544
:100C2000AD0A3C302D02031C0800AD010430A006C3
:100C3000221408008301851A1F2EA01E3E2E061CBA
:100C40003E2E201B211F3E2E4F084E04031D3A2E20
:100C50005108803AF00080307002013003195002D0
:100C6000031C3A2E0930CE00CF01D0080319D1035E
:100C7000D0033E2ECE080319CF03CE0351085004F3
:100C8000031D08004F084E04031D080086112013A1
:100C900008008301861EA01D0800A21C0800851AFA
:100CA000061C5C2E201F5C2E5008BA005108BB00A9
:100CB0004E08BC004F08632E5808BA005908BB0004
:100CC0005608BC005708BD00A11E6E2E5408C00077
:100CD0005508C1005208C2005308752E5C08C000B8
:100CE0005D08C1005A08C2005B08C3002708F00075
:100CF000F101F01BF103C4007108C5002808C6000B
:100D0000C7012608C800C9012908CC00CD01862FDB
:100D10008301861A0800211C922EB20A3208053A75
:100D20000319B201211EA22E320BA22ED80A0319DA
:100D3000D90A003059020A3003195802031CA22EA6
:100D4000D801D901211EB42E3208023A031DB42E57
:100D5000D60A0319D70A003057020A30031956027F
:100D6000031CB42ED601D701211EC62E3208033A29
:100D7000031DC62EDC0A0319DD0A00305D020A30AD
:100D800003195C02031CC62EDC01DD01211E0800D4
:100D90003208043A031D0800DA0A0319DB0A00309E
:100DA0005B020A3003195A02031C0800DA01DB0156
:100DB000080083120313DC01DC0ADD010530DA00D0
:100DC000DB01D801D80AD901D601D7015808D000D3
:100DD0005908D1005608CE005708CF005C08D4004F
:100DE0005D08D5005A08D2005B08D30006118611B1
:100DF000861685018601FB3083168500113086003A
:100E0000073083129F004630831681008B018B15BB
:100E10008B168B178312221E0A2FEB25221D132FF0
:100E20008B132A278B1702259425B1241A266F25A8
:100E300036251C25E9248826B1244926211F232F85
:100E40008B139A248B172212A210A11321132211A3
:100E500022100A2FD5242B08A300A308031D080085
:100E6000CC30C224BE30C2245025A5005025A40099
:100E70005025502550255025502550255025240813
:100E8000B7002508B600B8003708B9000430F000F4
:100E9000370DB70CB60CF00B482FB91F572FB809F8
:100EA000B909B80A0319B90AFF30A700582FA701DA
:100EB000A8013908F1003808F0000430F200710D83
:100EC000F10CF00CF20B5F2F7008A6000A3026021E
:100ED000031C6E2FF630A607A80A662F38080F39B4
:100EE000A9000310A90D0310A90D38080F39A9078F
:100EF0000310A90C0310A90C0310291C842F290C22
:100F0000F000700AA9000800A90C080083013B0842
:100F10003A04031D8E2F0A30BA00BB013D083C0481
:100F2000031D952F0A30BC00BD0141084004031D7C
:100F30009C2F0A30C000C10143084204031DA32FA7
:100F40000A30C200C301450844040319AA2FFF3028
:100F5000C400C50147084604031DB12F0A30C6006E
:100F6000C70149084804031DB82F0A30C800C90149
:100F70004D084C04031DBF2F0A30CC00CD01A01832
:100F8000C52F320BC52FF101C72F3A08F100BD253F
:100F9000A018D02F3208023A031DD02FF101D22F12
:100FA0003C08F100BD25A01C211DD92F0F30F100F8
:100FB000DA2FF101BD25A018E32F3208033A031DF3
:100FC000E32FF101E52F4008F100BD25A018EE2F19
:100FD0003208043A031DEE2FF101F02F4208F10010
:100FE000BD254408F100BD254608F100BD2548088F
:100FF000F100BD250F30F100BD254C08F100BD2DDD
:02400E00183F59
:00000001FF
