:020000020000FC
:1000000000C008E00EBF0FE50DBF0FEF0ABB00EB0D
:1000100007BB09E50DB97CD018D160926000509201
:1000200061004092620030926300209264008BD0A5
:10003000B0E0A0E003D00FD032D0EFCF1F93C49830
:10004000BFB9779BFECFAFB99FB1779BFECF8FB182
:10005000C49A1F9108950F9391FF0CC015E896D094
:100060001DE2B2D090959370809509E1992758E0F0
:10007000869508C015E88AD01BE2A6D002E359E0B5
:100080009795879508F4900F979587955A95D1F78E
:10009000843301E2900708F049970F9108959F93E8
:1000A0008F930F93222433244424552466242394CD
:1000B00080519742E0F700E1800F07E2901F2A94F9
:1000C0003394885E9340E0F708EE800F03E0901FC2
:1000D0003A94439484569040E0F704E6800F00E0A1
:1000E000901F4A9453948A509040E0F70AE0800FA2
:1000F00000E0901F5A94639481509040E0F701E033
:10010000800F00E0901F6A940F918F919F91089546
:1001100013E30E94C6000E940D0112E30E94C60074
:100120000E940D0118E20E94C6000E940D011CE011
:100130000E94C60011E00E94C6000E940D0116E058
:100140000E94C60008951F931CE820D01FED3CD0EC
:1001500013E43AD016E81AD01091640066D055D056
:100160001091630062D051D0109162005ED04DD0EA
:1001700019E80CD01CE228D01091610056D045D06F
:100180001091600052D041D01F9108950F93212FFC
:10019000207F0BB30F70022B0BBBD898D998DA9A3B
:1001A0000E940201DA980E940501212F2295207FEA
:1001B0000BB30F70022B0BBBDA9A0E940201DA9884
:1001C0000E9405010F9108950F932F93212F207FF7
:1001D0000BB30F70022B0BBBD89AD998DA9A0E94F6
:1001E0000201DA98212F2295207F0BB30F70022B8A
:1001F0000BBBDA9A0E940201DA980E9405010F9166
:100200002F9108950000000008951F931CE30E94A1
:1002100002011A95E1F71F9108951F9314E10E94BE
:1002200005011A95E1F71F9108951F93E0E4F2E0AC
:1002300020E0E10FF21FC895102DC6DF1F91089531
:10024000303132333435363738391F930F935527D1
:10025000112710E89BDFEAE6F2E056E01591B4DFE3
:100260005A95E1F71F910F91089554656D703D0007
:00000001FF
