:020000020000FC
:100000001DC0189518951895189518951895189558
:02001000189541
:100024005EC01895189518951895189518951895F3
:10003400189518951895189508E00EBF0FE50DBF93
:100044000FEF04BB07BB71E331E038BB00EF0DBD1C
:100054000FE00CBD00270FBD05E00EBD00E00ABB9C
:1000640007E806B900EC07B904E009BF789476D034
:1000740001D150926000409261003092620020925F
:1000840063007DD001D0F5CF369A349BFECF349AED
:1000940044B155B1483C00E0500748F415E894D009
:1000A4001DE2ACD0495C50405095409506C0485C78
:1000B400504015E889D01BE2A1D005E069E05695CF
:1000C400479508F4500F579547956A95D1F7369A96
:1000D4004B3504E0500708F0425011D008950F93B7
:1000E400343011F0330F02C031E070E338BB739544
:1000F400706305EF0DBD0FE00CBD0F9118955F9374
:100104004F930F9322243324442455242394485E8C
:100114005340E0F708EE400F03E0501F2A94339455
:1001240044565040E0F704E6400F00E0501F3A9474
:1001340043944A505040E0F70AE0400F00E0501F5B
:100144004A94539441505040E0F701E0400F00E0DE
:10015400501F5A940F914F915F91089513E334D037
:1001640072D012E331D06FD018E22ED06CD01CE0E4
:100174002BD011E029D067D016E026D008951F9324
:1001840018EC22D0172F3AD072FD77271BE81CD029
:100194001FED34D013E432D016E816D0109163006A
:1001A40059D04AD01091620055D046D010916100C8
:1001B40051D042D019E808D01CE220D01091600040
:1001C40049D03AD01F9108950F93212F207F05B372
:1001D4000F70022B05BBA898A998AA9A2AD0AA98AE
:1001E4002BD0212F2295207F05B30F70022B05BB46
:1001F400AA9A1FD0AA9820D00F9108950F932F93F5
:10020400212F207F05B30F70022B05BBA89AA99854
:10021400AA9A0FD0AA98212F2295207F05B30F7098
:10022400022B05BBAA9A05D0AA9806D00F912F914C
:1002340008950000000008951F931CE3FADF1A9547
:10024400E9F71F9108951F9314E1F6DF1A95E9F772
:100254001F9108951F93EEE6F2E020E0E10FF21FF4
:10026400C895102DCBDF1F910895303132333435CA
:10027400363738391F936627112710E8A5DFE8EAD7
:10028400F2E066E00AD06627112710EC9DDFEEEA63
:10029400F2E068E002D01F9108951591AFDF6A95EE
:1002A400E1F7089554656D703D0053656E736F7288
:0202B400733D98
:00000001FF
