:040000000C946237C3
:1400540075003F15003F817F86A041A100A244A4A83FB12244
:14006800B028B407B246B302BF0BBE02BC13B801112232438A
:14007C00546576AD02AF1D370000000000000000000000008F
:1400900000000000000000000000000000000000000000005C
:1400A4000000000000000000000000012222211110000000C1
:1400B8000000000000000000000000000000000000000234FE
:1400CC00578888887754310000000000000000000000000035
:1400E00000000000000013578AA9AAB9BBAAAA965311000003
:1400F40000000000000000000000000000014569AAABABAB9E
:14010800BBBABAAA9AA877420000000000000000000000000F
:14011C0000145689AAAAABBBBBCBBABBAAAAAAAA97300000B8
:1401300000000000000000000015787999BABBBBBBCCCCBBDE
:14014400BBABBABAABAA8400000000000000000000156879FE
:140158009AABBBBBABBCCCBCCBBCBBBBBBBBAB9840000000F3
:14016C00000000000001587889BAAAABBBBCCCCCBCBCCBCCF8
:14018000CBABBBBBBA8300000000000000014687899ABBBBDB
:14019400BBBCCBCCBCCBCCBCCCBCCBBBBBBAA92000000000EE
:1401A80000001477889AABBBBBBCCCCCCCCCCCCCCCCCCCCCC1
:1401BC00CCBBBAAA610000000001125778AABABBBBCCCCCCC3
:1401D000DCCCCCCCCCCCCCCCCCCBCBBBA99400000000368794
:1401E4007889ABBBCBCCCDCDCDCCDCCCCCCCCCCDCCCDCCBBDD
:1401F800BBA998100000008A98789BBBBBCCCCCDCDDDDCCD84
:14020C00DDDCDDCCCCCCDDCCCBBBAA994000000099978ABBBD
:14022000BCCCDCDDDDDDDDDDCDDDDDCCCCBBBABCDCCCAAAAC9
:14023400998200000078789ABBBCCDCDDDDEEDEDEDDDDDDDE7
:14024800DCCCBCBCBBCCDBBAAA9997100000777AABBCCDCD8A
:14025C00DDDDDDDEDEEDEDEDDDDDDDDDDDAACCCCBB9A98995B
:14027000400003649BBBCCCCDDDEEEEEEEEEDEDDDEEDDEDE30
:14028400EDCAABCCDBCBA99999700006149BBCCDDDDDEEDE83
:14029800EEEEDEEEDEDEEEEEDCCAABBCDDCCAAAA9888700078
:1402AC003729BBBCCCDDDEEEED6115DEDEEEEDEDDDDBBBCDCB
:1402C000DDDCCBBBA988887000697BBCCCDDDDEEEED50000EB
:1402D400BEEEEDEEDDDCCBCDDDDDDCCCBA9A87874002689B35
:1402E800BCCDDDDEEDEED61126DEDEEEDEDDDCDCDDEDDDDC36
:1402FC00CBBA987778400469ABCCCDDDEEEEEEECAABEEEEE1A
:14031000EDEDDDDDDDDDEDDDCCBBBB99777720147BBCBCDDF4
:14032400DEEDEDEDEEEEEEDEDEDDEDDDDDCDDDDDDDCCCBBB60
:1403380097767700269BBCCDDDEEEEEEEEEEEEEEEEEEEDEECD
:14034C00DDDDDDDDDDDDCCCBBA7677760038ABBCDDDEEDED87
:14036000EDEDEDEDEDEEDDDEDDDDDDDCDEDDDCCCCCBA776606
:14037400740038ABCCDEEDEEEEEEDEEEDEEDDDEDDDDDDDDCE9
:14038800DDDDDDCCCCBBA97766830039BCDDDEEDEDDDDEDE4B
:14039C00DDDDDDCDDDDCCCCCBCCCDDEDCCBBBA97766861002F
:1403B00039BCDDEDEDDDCDDDDDDCCCCCCCCBBCBABABBCDDD89
:1403C400DDCCBAA9886688610029BCDDDDDDCCBBCCCCCCCC0F
:1403D800BBBAAA996789BCCDDEDCBB98877767885000000591
:1403EC00CDDCDBAA99ABBAAA99897655456788ABCCCCBA8881
:140400007887778887400000008BBA897678898887655433E3
:1404140046777778789998878889986789883000000025552D
:14042800334555565553333357778777778777898889988894
:14043C005467871000000003333333333332332246888988F2
:140450008888898999899999876766861000000002332332AE
:14046400232333445434788999A999AA9999AA99A9979998D3
:1404780095100000000033456676787789875358AAABBBBB02
:14048C00BBBBABAAAAA979AAA9950000000000146AAABBBB3F
:1404A000BA999873379BBCDBCCCCCCBCBBA9A979ABAAA500E1
:1404B400000000000268999A9AA9998874369BCCCDDDDDDDBE
:1404C800DCBBAA999A9AAA93000000000000367899999999C3
:1404DC008865257BCDDDDDDDDDCCBCBA98BBBAAAA4000000A1
:1404F0000000000368889999998775147BCCDEEEDEDDDCCBB5
:14050400B97ABBBBBB9200000000000000357899889887639D
:14051800037ABDDDEEEEEDCCBBA99CCCCCBB6100000000006F
:14052C00000024677788999762027ABDDEEDEEDDCCCA989C06
:14054000CDDBA83000000000000000025578888887620279E4
:14055400BDDEEEEDDDCCBB97ABCCB8510000000000000000A2
:14056800003457878886400069ACDEDEDEDCCCBA84355520E0
:14057C00000000000000000000000366767885200159BCDD7C
:14059000EEEDDCCBA9710000000000000000000000000001BA
:1405A40046777752000069ABDEEDEDDCBA9830000000000093
:1405B80000000000000000000003444310000059ACDDEEEDD8
:1405CC00DBBA961000000000000000000000000000000000E0
:1405E0000000000158ACDDEDEDCBA983000000000000000054
:1405F4000000000000000000000000000048ACDDEEDCBA9905
:1406080062000000000000000000000000000000000000007C
:14061C00000038BCDDEDDCBA973000000000000000000000AF
:14063000000000000000000000000028ACDDDDBAA983000042
:140644000000000000000000000000000000000000000000A2
:1406580016ACDCDBBA97300000000000000000000000000094
:14066C00000000000000000000049BBBBAA85300000000006B
:1406800000000000000000000000000000000000000000481E
:140694009987631000000000000000000000000000000000BF
:1406A8000000000000000000023443100000000000000000B5
:1406BC000000001D37000000000000000000000000000000D6
:1406D000010010000000000000000000000000000000000005
:1406E400000000000000012234555555332100000000000058
:1406F800000000000000000000000000000012567AA99AA920
:14070C009AA9865210000000000000000000000000000000AE
:1407200000023469ABAAAAAAB9BAA9ABA86521000000000088
:14073400000000000000000000144678AAAAAABBBBBBBABA3C
:14074800AAAAAA9751000000000000000000000000146789B3
:14075C0099AABBABBBCBCBBBBBAAAAAAAAA6200000000000AB
:1407700000000000001468779AAAABBBBBBBCBCCBBBBBBBAE0
:14078400BAAABA83000000000000000000037888999AAABB25
:14079800BBBBCCCCCBCBBCBBBBBABBAAA83000000000000080
:1407AC0000004787899ABABBBBBBBCCCBCBBCCBCCCBCBBBBD8
:1407C000BBBA82000000000000001587898AAABBBBBBBCCB1D
:1407D400CCCCCBCBCCCCCCCBBBBABAA6100000000000126855
:1407E800889ABBABBBBCBCCCCCCCBCCCCCCCBCCCCCCBBBBA2A
:1407FC00AA500000000035668889AABBBCCCCCCCCCCDCCCC8D
:14081000CCCCCCDCCCCCCCCBBAA98200000003A998889ABB5F
:14082400BCCBCCCDCDCDCCDCCCCCCCCCBCCBCDCCBBBBA9945B
:1408380000000004A98789ABBBCCCCCDDDCDDDDCDDDDDDCD5D
:14084C00CCCBBBBCCCCBBA99981000000298899ABBBBCCDC1D
:14086000DDDDDEDDDDDDDDDDCDDCCCCDBABDCBBA9A985100DA
:1408740000017869BBBBCCCCCDDDDEEDEDEDDDDDDDDDDDEEF2
:14088800EDA9BCDCBA9A99850000057339ABCCCDDDDDDDDD53
:14089C00EEEEEDDEDEDDDDDEDCBA9BDCCBBB998888100027B8
:1408B000505ABCCCCDDDDEEEEEB57AEDEDDEEDDDECCBABBDCE
:1408C400CCDCBBAA9889300048719BBCCDCDDEEDEEE7200256
:1408D800EEEEEEEEDDDCBBCDDDDDCCBAA9878840026997AB2E
:1408EC00BCCDDDDEDEEED30306EEDEDEDDDDCCCDDDDDDCCBAE
:14090000BB99888840037979BCCCCDDDDEEEEDEB65BEDEEE85
:14091400EEDDDDDDDDEDDDDCCCB99977773005788ABBCCDD20
:14092800DEEEDEEEEDEEEEEEDEDDEDCCCCDDDDDDCCBBBB98BB
:14093C0077771026669BCCCDDDEEEEEEEDEEEEEEDEEEEDDDF5
:14095000DDDDDDEDDCDCCBBB977777003566ACBCDDDEEDEDB4
:14096400EDEEEDEDEEEEDDEDDEDDDCDDDEDDCCBCBA86777640
:14097800005757ACCDDDEDEEEEEEEDEEEEEDDEDEDEDDDDDDC9
:14098C00DDDDDDCCCCBA867784005969BCDDDEEEEDEDEEEE10
:1409A000EEDDDDDDDDDDDDCCCCDDDDDCBCCBA9775673003851
:1409B40099ADDEDEDEEDDDDEDDDDDDDDCCCCCCBBBBCCDDEDC3
:1409C800CCCABB98766772000579CDDEEDEDDDBCCDDDDCCDF4
:1409DC00CCBBBBBA9A9BBCDDDDCCBAA98755787000015657BF
:1409F000CDEDDDDBA9ABBBCBBAAA998755588CCDEDDDBB9800
:140A04007886667751000001003BDDBA978889A999776643D5
:140A180036677999BBBBBA87878776788850000000001498E4
:140A2C0075555678775533334788687787889978788888771F
:140A4000888750000000223233334444344433335788887745
:140A54008887888988888887578897300000002323333233CB
:140A68002323323336898998998989999998899987445678BF
:140A7C00400000000233333334344344443468999AA9999BAC
:140A9000A8A99A999987566578200000000033345688888806
:140AA4007888535899ABABABBBBBAAAAA99A867878771000EF
:140AB80000000014589AABBBAA999873379BBBBCCCBBBBCB1A
:140ACC00BB9AA97688888810000000000358899A9BA9998718
:140AE00084369BBCCCCCCCCCCCBBAAA87778888610000000DB
:140AF40000003679999999998866357ACCDDDDDDDDCCBBBABD
:140B0800979888988610000000000002578899999988753417
:140B1C007ACCDDDDDDDDDCCBB9889A999995100000000000B2
:140B300000367799889987552279CDDEEEEEDDDCCBA97ABAEB
:140B4400BBA86200000000000000035777889888750069BDC4
:140B5800DDEDEDEDCCBA9989ABCA8410000000000000000133
:140B6C004577888887630159ADDEEEEEDDCCCA9744866310B7
:140B80000000000000000000002457787886520058ACEEDE4E
:140B9400EDDDCCBB95100000000000000000000000000256FF
:140BA8006677763000489BDEEEDEDCCCA98300000000000055
:140BBC00000000000000000036667763100037ABDEDEEDDC38
:140BD000CBA9610000000000000000000000000000024443B3
:140BE40010000026ABCEEEDDDCBA9830000000000000000025
:140BF800000000000000000000000000179BCEDEEDDBBA9673
:140C0C002000000000000000000000000000000000000000B4
:140C200000169BCDEEDDCBA98400000000000000000000007F
:140C340000000000000000000000158BDDEEDDCA98610000A1
:140C4800000000000000000000000000000000000000001583
:140C5C009BDDDDDCBA973000000000000000000000000000D2
:140C70000000000000000000028BCDDDBBA984000000000051
:140C84000000000000000000000000000000000000027ACC14
:140C9800DBB9973000000000000000000000000000000000ED
:140CAC000000000000000039ABBA98410000000000000000BD
:140CC0000000000000000000000000000000000013777642DE
:140CD40000000000000000000000000000000000000000000C
:140CE8000000000000000211000000000000000000000000E5
:140CFC001D370000000000000000000000000000011110105E
:140D10000000000000000000000000000000000000000000CF
:140D24000000011334565675552210000000000000000000CB
:140D380000000000000000000000024589AA99AAA9AAA96589
:140D4C003100000000000000000000000000000000012456E7
:140D60009AAAAAABBABAAAA9AA86531000000000000000008C
:140D740000000000000146788AAAAABABBBBBBBBABAA9A98A1
:140D88007510000000000000000000000004668889AAAABB48
:140D9C00BBBBCBCCBBBBABAA99AA73000000000000000000B5
:140DB0000001678889AAAABBBBABBCBCBBBBBBBBBBBAABA815
:140DC40030000000000000000000468788AAAABBBBBBBBBB9B
:140DD800CCCBCBBCBBBBBAABAA830000000000000000157854
:140DEC00989AAABBBBBBBBBCCCCCBBBCBBCCBCBBBBAAA83025
:140E00000000000000000267889AABABBBBABCBCCBCCBCCCF1
:140E1400CCCCCCBCCBBBBAAA610000000000123788889AABC1
:140E2800BBBCBCCCCCCCCCCCBCCBCBCCCCCCCBBBBBA50000EB
:140E3C000000049A988899ABBBCBCCCCCCCCDCDDCCCCCCCC01
:140E5000BCCCCCCCBBAA983000000007AA8888AABCBCCCDCB6
:140E6400DDCDCDCDDCCCCDCCCCBBBAABCCCBBA9A50000000CE
:140E780004A9888AABBBCCCCDDDCDDDDCCDDDDCDCDCCCBCCB3
:140E8C00CBBCBCBA99720000000389889BBBBCCCCCDDDDDDF5
:140EA000EDEDDDDDDDDDDDDDEDCAACCCAA9895100000158784
:140EB400339ABBCCDCDDDDDEEEECBEDEDDDDDDDDDDCBA9BC6B
:140EC800CCBA99995000003795049BCCDCDDDDDDDDEC633800
:140EDC00EDDEDDDDDDCBABBBCDCCBA9998810000589736AC99
:140EF000CCCDDDDDEEEEE70303FEDEEDEDDCBBCDDDDCDBBB69
:140F0400A98886000378AA78ACCDCDDDEEEEEDDB413BEDEE67
:140F1800EEDDCCBCCDDDDDCCBB9978880005789889CCCCDDB8
:140F2C00DEEDEDEDDDDDDEEEEDDDDDCCDDDDDDDCCBB99888FC
:140F400088001579987BCCDDDDEEEEEEEDEEEEEEDEEDEDDDD8
:140F5400DDDDDDDDDCCBBA987887002587879BCCCDDDEDEDFF
:140F6800EEDEEDEDEEEEDEDDDCCDCDEDDDDCBBBA9777770022
:140F7C003567778BCCDDEEEEEEEEEEEEEEDEEDEDDDDDDDCD7C
:140F9000EDDCCCCBBA86777500666676ABBDDEEDEDEDDEDEB6
:140FA400EDEEDEDDEDEDDDDCDDDDDDCCBCBA867784006965E8
:140FB80056ABCDEDEEEEEDDDEDDEDDDDBDDDCDDCCCCDDDDDA9
:140FCC00CCBBB976677300598635ACDEEEEEDDDCCCDCDDDDEC
:140FE000CCCBCBBABBBBCDDDDCBCBBA8765773002799549BD7
:140FF400CEEDEDDDCBAABBCCCBBBBBAA9799BCDDDDCCCAA998
:1410080077656771000369854336BEDDBBA889AAA999986645
:14101C00555689BCDEDDCBA877775667700000478720006C2D
:14103000BA78757798876544356788899BBBBA9877787656B6
:14104400875000000479500024553355556544323479888707
:14105800897889878788877677885000000259723233333380
:14106C0033333333488998888988789888888888788887509B
:1410800000000047833323232332323226898999998999A92B
:1410940099988999875588873000000014762332333433332E
:1410A80043336898AAAA99AAA9999A99998633367740000073
:1410BC00000266333469A9978777535799AABBABABABAA9ABD
:1410D000A999855554574000000000354458ABBBA998987481
:1410E400369BABBCBBBBBBBBBB99997556765740000000000F
:1410F800025798A99AA9998775348ABBCCCCCCCBCBBBAA9802
:14110C007555666640000000000035788899998A8876337A5D
:14112000BCCCCCCDCCCCBABA98777667762000000000000309
:14113400578899989988763379BCDDDCDDDDCCBBB98788884E
:14114800973200000000000000357789989988753358BCDD43
:14115C00DDDCCDDCCB998568875200000000000000000347A9
:1411700077778888753357ABCDDEDEDDCBBB997111110000AB
:14118400000000000000000035577888886511389BDDEEEE41
:14119800DDCBCB985000000000000000000000000003467728
:1411AC0078866300179BCEEDEDDDCCBA97300000000000004A
:1411C00000000000000001556677774100159BCDDEEDCDCC4F
:1411D400BA9610000000000000000000000000001566776451
:1411E8001000169ACCDDEDDDBBA883000000000000000000DA
:1411FC000000000000012443300000148ABDDDEDDCCBA97161
:141210000000000000000000000000000000000000000000CA
:14122400037ABCDEEDDCBA9840000000000000000000000044
:141238000000000000000000000289BCDEDDDBB99720000055
:14124C00000000000000000000000000000000000000027913
:14126000BCDDDDCBA98400000000000000000000000000000C
:14127400000000000000000159BDDDDDCB98620000000000D0
:14128800000000000000000000000000000000000159BCDD5F
:14129C00DCB9962000000000000000000000000000000000F3
:1412B00000000000000029BCCDBB99620000000000000000C2
:1412C40000000000000000000000000000000016ABCBBA854B
:1412D8001000000000000000000000000000000000000000F2
:1412EC00000000000269998530000000000000000000000035
:14130000000000000000000000000000000013421000000074
:141314000000000000000000000000000000000000000000C5
:1413280000000000000000000000000000000000001D37005D
:14133C00000000000000000000000011122322121110000002
:14135000000000000000000000000000000000000000012365
:1413640077999AA99A8654210000000000000000000000008D
:141378000000000000001237AAA9AAAABABAAA9995310000F4
:14138C000000000000000000000000000001335889AAABAA39
:1413A000BBBBBABAAAAA865520000000000000000000000000
:1413B40000013578899AAAAABBBBBBBBBABBA99AAA8610001C
:1413C80000000000000000000000457989AAAABABABBABBCE0
:1413DC00CBBBBBBBBA9A9A73000000000000000000003678F2
:1413F0008889AAABABBBBBBCBBBBBBBBBBBABBAAA830000008
:141404000000000000001478889AABAABBBBBBBBBBCCCBBBD8
:14141800BBBBBBBBABAA8300000000000000026788889ABB2E
:14142C00BBBCBBCBBBCCCCBBBCBBCBCCBBBBAA9830000000AB
:141440000000223688899AABBBCCCCCCCCCCCCBCCBCBCBBB8F
:14145400CBBCBBAAAA50000000000399988989ABBBBCCCDC8E
:14146800DCDCDCCCCCCCCCCBCBBBBBCBBBAA930000000005D8
:14147C00AA98989AABBCCCCDDCDCDDDDDCDCCCCCCCCBBBAB29
:14149000CCBBA99510000000029A9899BBBCCCDCDCDCCDCC36
:1414A400DDDDDDCCDDCCDCDDDC9CCBBA9820000000037997A7
:1414B80067ABCCCCCDCDDDDDDDDDDDDDCDCDDDDDEDBA9BCB4D
:1414CC00B9986100000015799315BBBCCCCDDDDDDDDEA56B8F
:1414E000DDDDDDDDDDBAAABCCBB99995000000378A8017ABD2
:1414F400CCDCDCDDDEEEEC2004CEEDDDDDDBBBCCDCDCA999D6
:1415080088400000579AA6689CCDDDDDDDDEDDDC4007DEDD6F
:14151C00DDDDCBBDDDDDCCB99888820002679AB989BCCDDDED
:14153000DEEEEEDDDDCABDDEEDEDDCCCCDDDCCDBBA9888859C
:141544000003589AAA99ACCDDDDEDEEDDDDDEEEEEEEDDDCD41
:14155800CCDDDDDCCBBA887886000568999889BCDDDDDDEEAA
:14156C00DEDDEDEEEEDEDDDDCCCCDDDDDCCBBA9777860025E3
:1415800077898889BCCCDDEEEEEDEEEDDEDEEEDDDDDDDDCD52
:14159400DDDCCBBB98678500366787977ABCDDEEEDEEDDDD2F
:1415A800EEEEEDDDEDDCDCCDDDDDDCCBBA7677850048657667
:1415BC00877ABCDDEDEEEDDCDDDDDCDDCDDDDDDCCCDDDCCCB6
:1415D000BBBA867784005984567579BDDDEEEDDDCCBDCDDC6C
:1415E400DCCBCCBBBBCDDDDDCBCBB967777300389854565811
:1415F800CDFEEEEDDDBAABBBCCBCBBBB99ABBDDDDCCBAA9877
:14160C00766773000479844447766ACDDCBBA889BBAAA988E3
:1416200066689BDDDDDDBA99877567710001578863332001F8
:141634005CCA887679998665476789ABDDCDCA9987775577C8
:14164800700000158897321000366545566655433579899AA3
:14165C009AABAA97777776577761000003688984232233333E
:141670003443343334889989888898988888877678876000FE
:1416840000005789963333333333333347AAA9999AA99999CF
:14169800A878888768878850000000168899423323333232E2
:1416AC003488AAAB9AAAAAAA9A8999898767888740000000FF
:1416C00003799A63223333333332589AAABBAAAABA9AAA983C
:1416D40098863367774000000001478964347AAA988763473D
:1416E8009AAAABBBBBAABA9AA9998544336850000000001580
:1416FC00789879BBA9989884368AABBBBBCBBCBBBB999965C4
:1417100055665650000000000357889A9AA9989877348ABB85
:14172400CCCBCCBBCBBBA99964556556400000000000367869
:141738009999A9899876346ABBCCCCCCCCCBBAAA97765556BB
:14174C006620000000000003778998999997864358BBCCCC2B
:14176000CDCCCCCBAA87787877430000000000000146788922
:14177400989A88774358ACCCDCCCCDBBBBA9855787530000D3
:14178800000000000000256888899988754346ACCCDDDCDD82
:14179C00DBAA98821221100000000000000000025578889967
:1417B000987543379BCDDDDDCCCBBB98510000000000000041
:1417C400000000000045688888886500168BCCDDDCDCCBBAE0
:1417D800A730000000000000000000000000246787888763A2
:1417EC0010157ABCDDDDCCCBBA8710000000000000000000EC
:14180000000000046767788740000479BDDCDDDDCBB98500EA
:14181400000000000000000000000000003687787510000204
:1418280079BCDDDDDCBBA783000000000000000000000000FC
:14183C0000000256543000000159ABDDDDDCBAA8710000004E
:1418500000000000000000000000000001000000000168AC6E
:14186400DCDEDCBB9850000000000000000000000000000037
:141878000000000000000148ABCDDDCBB99620000000000084
:14188C0000000000000000000000000000000000279CBDDCEC
:1418A000CCA88300000000000000000000000000000000003D
:1418B4000000000000169BCCDDCA9841000000000000000023
:1418C8000000000000000000000000000000148BBCCCB884A9
:1418DC000000000000000000000000000000000000000000F8
:1418F000000000026ABBBA873000000000000000000000004C
:14190400000000000000000000000000003698874100000039
:141918000000000000000000000000000000000000000000BB
:14192C00000000332000000000000000000000000000000054
:14194000000000000000000000000000000000000000000093
:1419540000000000000000000000000000000000000000007F
:1419680000000000000000000000000000001D370000000017
:14197C000000000000000013357899999986631100000000D2
:141990000000000000000000000000000000012379AAAAAAA8
:1419A400ABAAAAA986421000000000000000000000000000AF
:1419B8000000023689AAABBABABBBBAAA9999856320000000F
:1419CC0000000000000000000000235789AA9AAAABABBBBB4A
:1419E000BBBBB99AAAA830000000000000000000000025780B
:1419F4009899AAAABABBBBBBBBBBBBBBBAABAA8500000000EF
:141A080000000000000003787889AAAABBBBBBBBBBBBBBBB22
:141A1C00BBBBABAAA95100000000000000000267888999AA34
:141A3000ABABBBABBBBCBBBBBBABBBBBBAA9A5000000000015
:141A440000000036788899ABBBBBBBBBBBBBCBCBBBBBBBBC2F
:141A5800CBBBAAA94000000000000003788888AABBBBBCCB2F
:141A6C00CCBCCCBCBBBCBBBCBBBCCBBAAA8300000000002619
:141A80007888899ABBBBCCCCDCBCCCCCCCCCCBCBBCBBBCBBD5
:141A9400AAA99500000000008BA88989ABBBCCCCDCDCDDDCA2
:141AA800DCCDCCCBCCBBBAAACBBBAA9720000000007A99996C
:141ABC00AAAABCCCCDDCDDDCDDDCDDCCDCDCCCCDDDABBBA939
:141AD00099500000000059999A9BBBCCDDDCDCCCDCDDDDDD97
:141AE400DDCDDCDDEDCB8ACBBA9873000000017999857ABCEB
:141AF800CCCDDDDDDDDDEDCACDDDCDDDDDDBA9ACCBB9898721
:141B0C001000000378A93038BCCCCCDDDDDEDEDC424BEDDD2C
:141B2000DDDCBBBCCDCCAA99885000001669AA3059BCDCDDA6
:141B3400DDDEEDEDDB001AEDDDDDDCBBDDDDCCBA99888100F3
:141B4800003779AB8479BBDDDDDDDDDDDDDB628DDEDDDCCB1C
:141B5C00CDDDCDCBA998789500005679ABB999BCDDDDEDEEC8
:141B7000EDDDDDCCDEEEDDDDCCCDDDCDCCB9987887000066A3
:141B840089AAAA8ABDCDDDDDEDDDDDDDEEEDEDDDCCCBCDDD38
:141B9800DCBBBB9777870002668999A98AACDDDDDEDEDDDDB9
:141BAC00DDDEEEDDDDDCDCDDDDDCCBBA8677850003667899F3
:141BC0008889BCDDDDDEEDEDDDDDDEDEDDDDDDDCCDDDDDCB97
:141BD400BA86668500047578789979BCCDDEEEDDEDCDDDDDB1
:141BE800DCCDDDCCDDCDDDDCCBB987778400059656689778C6
:141BFC00BCCDEDEDEDDDBDCDDCCCCDDCDCCCDDDCCBBBA966D7
:141C1000778300059855667778ACDDEEDEDDCBBBDCCCCCCC87
:141C2400BBBBBCDDDDCBAA97656773000268954566579CDFF9
:141C3800EEEDDDBBAAABBBBBAA979BBDDEDCCBA987657871BE
:141C4C00000035785245558A88ACEDCBB988AAA9865667ABF3
:141C6000CDDEDCAA877656687100000467753344630225CD65
:141C7400B88777876446889ABBCDDCC9887866678860000071
:141C8800014779633331000177555565533589AAAAA9BAAAC7
:141C9C0098888776788851000000158887322321233344434F
:141CB00033348AAA9AAAA9AAA98888777888885000000005E1
:141CC400799995333333233333349AABAAAABAAAAAA98888AF
:141CD80086688887400000000278999952333333233367ABBC
:141CEC00BAABAAAABBAB99A9898634788840000000017799EF
:141D0000AA933232333233489AAABBAAABBABAAAA8988665B1
:141D1400568820000000004799AAA7334556555358AAABABBE
:141D2800BBBBBBAAAAA9897678767810000000001579AAAB21
:141D3C00779BAA9874368BBBBBBBCBBBBBBB999867788778CE
:141D5000100000000003789ABBBBBA9A9886359ABBCCCBCC85
:141D6400CBCBBB999867798887100000000002679AAABBAAD8
:141D7800AA9986347ABBCCCBCCBCCBAAA98678788888100052
:141D8C0000000001468AAABABABB98763359ABBCBBCDCBBB8A
:141DA000AAA987888889861000000000003689ABBBABBA9903
:141DB400763458ABBCCBCCBBCBBA9878A9999994000000005C
:141DC80000002689AAABBBBA99663357ACBCCBBBBCBAAA985F
:141DDC0079AABBA74100000000000004789AABBBAAA77433B9
:141DF000369BBDCDCBBCBAAA9868AAA95100000000000000F5
:141E040003789ABBBBBA986201268ABCCCCDBCBAA99732336A
:141E180031000000000000000002699ABAABAA9751001589EB
:141E2C00BCDCCBBBBBAA88100000000000000000000002582D
:141E40009AAAABB98640000379BBCCCCBBBAA97500000000BE
:141E54000000000000000000489ABBAAA97730000178ABBB04
:141E6800CCCCBBA973000000000000000000000000269BBA7C
:141E7C00ABA974100001689BBCBCBCBAA8710000000000006F
:141E9000000000000000049ABAAA9862000001389ACCCCBC1B
:141EA400BB98410000000000000000000000000157A9A88568
:141EB800200000002799CCCCCCB98620000000000000000073
:141ECC00000000000002355321000000001699CBDBCBA9830B
:141EE0000000000000000000000000000000000010000000DE
:141EF40000000369BBCCBB9840000000000000000000000054
:141F080000000000000000000000000048AABBA9630000000C
:141F1C000000000000000000000000000000000000000000B1
:141F30000015889874210000000000000000000000000000D3
:141F4400000000000000000000000013321000000000000034
:141F5800000000000000000000000000000000000000000075
:141F6C00000000000000000000000000000000000000000061
:141F800000000000000000000000000000000000000000004D
:141F9400000000000000000000000000000000000000000039
:141FA80000000000000000000000001D3700000000000000D1
:141FBC00000000000001123334433311100000000000000000
:141FD00000000000000000000000000000123789999A9A9BC3
:141FE4009654210000000000000000000000000000000000DE
:141FF800001478AAA9AAABBBAA9A9985532100000000000010
:14200C000000000000000000013479A9AAABBBBBBBBBBAA9C5
:14202000AAA987300000000000000000000000000146899939
:14203400AAABBBBBBACBBBBBBBBAAAAB851000000000000073
:1420480000000000014688899BABBBAABBBCBBBBBBBBBBABB8
:14205C00AAA952000000000000000000013579999AABBABBC9
:14207000BBBBCBBBBBBBBABBBBBAAAA6200000000000000090
:142084000025878899AABBBBABBABBBCBBBBBBBBCCCBBBAA97
:14209800AA510000000000000003677899AAABBABBCBCBCC92
:1420AC00CBBBBCBBBCBBBBCBBAAA9400000000000000368870
:1420C000899AABCBBCCCBCCBCCBCCBCBCBBBBBBCBBAAA998A3
:1420D40020000000000113777999ABABCCCCDCDCCCCCDCBC65
:1420E800CCBCBBBBABCBBBAAA94000000000169889989AAA0F
:1420FC00BCCDDCDDDDDCDCDDCCDCDCCCAABBBBCBA99882001E
:14211000000000299A89999BABCCDCDCDCCCCDDDDDDDCDDC57
:14212400DCDDDCABBBB999941000000007999999ABBBCCDDD5
:14213800DCDDDEDDDDDCDDDCDDDDDDCA9ACBBA8889400000DC
:14214C000025988999ACCCDCDDDDDDEDDDDDDEEDDDDDDDCBE1
:14216000AABCCCA998888100000047899636ABCDCDDDDEED66
:14217400EDDDC85ADDDDDDDDBACCDDCCB99888850000005614
:142188008A92059BCCDDDDEDDDDDDD9103CEDDDCCCBCDECD2F
:14219C00CBAA987888000002678AA3079BCCDDDDEEDDDDCDEF
:1421B0009006DEDDDDCBCDDDDCDBB9977788000004679AA9C4
:1421C400689BBDDDDDEDDDDDDDCA9CDEDDCCCCCDDDDCBBBA55
:1421D8008777870000065899AAA9ABBDDDDDDEDDEDCDCDDEE2
:1421EC00EDDDDCDCCDDDDCCBBA8767850000166899AAA99BDA
:14220000CDDDDEEDEEDDDDDDEEDDDDDDCCCDDDDCCBBA766797
:142214008500001677889A989BCDDDDEDDEDDDDDDDDEDDDDCE
:14222800CCCCDDDDDCCBB8778784000036578898999BBDDDF4
:14223C00DEEDEDDCCCDCDDCDCDDDCCDDDCCCBBA876687300F9
:142250000058557699998ACCDDDDEEEDDCBCCCCCCCCCCCCCDA
:14226400DDDDBBAA97667882000058755688787ABCDDDEDE5E
:14227800DDDBBCBCCBBBBBBBBCEDDCCBAA8646888100002532
:14228C007644677789BCDEEEDEDDBBAABBBBBBA99BCDDEDD78
:1422A000BB97766798700000015743356668ADDEEEEEDCB959
:1422B40089A99876679BDDEDDCA9777688885000000046747E
:1422C8002346568BA68CDDCB97888755799ABCDDDDB9878793
:1422DC00788998400000001367523343641023ACA8665744E7
:1422F00068ABBABBBCBB98887757998730000000037786336A
:14230400333300015753444338BBAABAAABAA9888876447887
:142318008810000000016999733233312333333335AAAABB0D
:14232C00BBAAABA99987779868961000000001688AA8533287
:142340003323232335ABBBBBBBBBBBBAA9999878AAA8940074
:1423540000000001589ABAB7333233233359ABABBABBBBBA8A
:14236800BAAA99887AABAA941000000000389ABBBB63232279
:14237C00332358AAABBBBBBCBCBBA998887BBBBAA400000044
:142390000000289ABCCBC743566653369ABBBBBCBCCBBAAAEA
:1423A40089979BBBBAB2000000000027AACCCDDCA9BBA9856B
:1423B800369ABBCCBBCBBCBBA98887BBBBBBA2000000000032
:1423CC00178BBDDCDDDCBB9875347ABBBBBCBBCBBBA9987867
:1423E000CBCCBB810000000000169BBDDDDCCDCAA97533699E
:1423F400AABBABBBBBBA99987BCCCCBB71000000000016AB64
:14240800CDDDDDDCCA986433589AABAABAABA999878CDDDDA9
:14241C00BB61000000000016ABCDDDEDDCBB866333579BBAD9
:14243000BABABAAA98878DDDDCBA30000000000016ABCDEDF6
:14244400DDCBAB8753233589ABBBAAAAB89987BDCCBA73002E
:14245800000000000016ABDDDDDDCCBA7710001679BABAAA5E
:14246C00AB9999878886410000000000000027ACDEDDCDCB83
:14248000A97310001479ABBBAAAAA998830000000000000011
:1424940000000028ACDEDDDCCA9772000001589AAABAB9A93D
:1424A80098610000000000000000000017ADDDDDDDBA97403B
:1424BC00000001568AAAAABAAA995100000000000000000089
:1424D0000015ACDDDDCCA985100000003689AAABBAB9963026
:1424E40000000000000000000000039BCDDDCBA863000000C6
:1424F800000488ABACABAA9400000000000000000000000004
:14250C005ACCCCB997300000000002689BBBABA962000000D3
:1425200000000000000000000016ABBA986300000000000031
:142534003689AAAA85100000000000000000000000000136B4
:1425480087641000000000000003798A8740000000000000B7
:14255C00000000000000000001111100000000000000001236
:142570003321100000000000000000000000000000000000F3
:14258400000000000000000000000000000000000000000043
:1425980000000000000000000000000000000000000000002F
:1425AC0000000000000000000000000000000000000000001B
:1425C000000000000000000000000000000000000000000007
:1425D4000000000000000000000000000000000000000000F3
:1425E80000000000000000001D37000000000000000000008B
:1425FC000000000000000000000000000000000000000000CB
:142610000000000000000000000000000000000000000000B6
:142624000000000000000000000000000000000000000000A2
:1426380000223444444332200000000000000000000000001B
:14264C00000000000000000003457989AA9AAA9875321000F3
:14266000000000000000000000000000000000001358A99AB8
:14267400AAAAABAAAA9A967552000000000000000000000008
:14268800000000011578AAAAAABBBBBBBBAAA99AA9A7400049
:14269C00000000000000000000000001466999BABBABBBBB4B
:1426B000BBBBBABABA9AAAA610000000000000000000000177
:1426C400577899AABABBBBBBBBBBBABBBBBBABAA9972000044
:1426D80000000000000000002688889AAABBABBBBBCCBBBB56
:1426EC00BBBCBBBBABBAA83000000000000000001477799913
:14270000AABBBABCCBCBCBBBBBCBBBCBBBBBAAAA7200000086
:1427140000000000015787899ABBBABBBCCCBCCCCBBBCCCC51
:14272800BBBCBBBBA995000000000000002679899AABABBB9F
:14273C00CBCBCCBCBBBCCCBCBCBCCCCCBBAA8830000000003F
:1427500000025889999BABCBBCCCCDCCCCCBCDCCCCBBBBBC99
:14276400BCBBA88951000000000236899989BBBBCCCCDDDDBD
:14277800DDDDDDCCCDCCBBBAABBCCBA9998400000000278934
:14278C00998999AACCCCCDDDDCDDDDDDCDCDCDCCBCCBABCCEE
:1427A000B9989740000000399988999BBBCCDDCDDDEDDDCCCB
:1427B400DDDDDDDDDDDDDA9CCCAA9888810000001798889A85
:1427C800ABBCCCDDDDDDDDCDDDDDDDDDDDDDDC9ABDCBA9981C
:1427DC0088950000002788999ABBCCDDDDDEDDDDDDCDDDDDAD
:1427F000DDDDDDBABCDDCCAA8888870000004779A428ABBDEA
:14280400DDDDEDDDDDDDB43CEEDDDDDBACDDDCCBA9977787A1
:14281800000000669A5007ABBDDDDDDEDDEDDD6007EDDDCCB1
:14282C00CBCDDDDCBBA9867786000003678A7127ABCDDDDEA1
:14284000EDEEDDDD713AEEDDDCCCDCDDDCCBB9867786000035
:1428540004589AA7699BCDDCDEDDEDDDDCB9ADEEDDDCCCCD1F
:14286800DDDCCBB9667684000005688AAA9AABCCDDDEEDED78
:14287C00DDCCCDDDDDDDCDCCDDDCCCBAB876687300002668CC
:142890009AAAA8ABBDDDDDEEEDDDCDCDDEEDDCDCCDDDDDCDFD
:1428A400BCA8666882000026678899989BBCDDDEDEDDDDCCB0
:1428B800CCDDDDDDCDCDDDDCCBBB966788810000474688991C
:1428CC00998BBCDEEEDEEDDCCCDDDDCDDDDCCDDEDDBBBB8615
:1428E000679860000058556688998BBCDDDEEDEDDCBCCCCC45
:1428F400BBCCCBCDEDDCBBB976899840000016765688787A41
:14290800BCDDEEEEEDDBBBBBBBBBBABBCDDEDCC9877798989F
:14291C0030000001553467687ABCDEEDEEDDBBA9BABB9A9748
:142930009BDDEDDBB877458998100000002543346768ACDDBA
:14294400EEEEDCBA8898865578BCDEDDC977768869951000D7
:14295800000003543345569CCDDDDDCBA87775448BBBBCDCA2
:14296C00CB987779CBAA94000000000167533344697103AD3F
:14298000B87555447BABABAABB9888777ACCCBA200000000FD
:142994000168863323320000596444347ABAABBBAABAA99844
:1429A800879DDDDC92000000000059AB952323211222333312
:1429BC0059BBBBBBBCBBBB989887ADDCDD6100000000015973
:1429D000ABCB64232323333345AABBBBBCBBBBBAB98888DD53
:1429E400DDDC600000000000489BCDDA33333232325999ABA3
:1429F800BBABBBCABA99878ADDDDCC50000000000048ACCCE6
:142A0C00DDA323223343379AABBBBBBBBBAAA8786CDEDDDB47
:142A200030000000000159ABCDDDDA43577663368AAAABABB6
:142A3400BABBAA98878DEDDDC920000000000159BCDDDDDD63
:142A4800BABAA8633479AAAAAAAAAAAA9987AEEEDCC61000E4
:142A5C00000000016ABDDEEDEDDCBB975333589AAA9AAAAA48
:142A7000A99876BDDDCB830000000000017BCDEEEDDDCCC91D
:142A84007622114799A999A99998887667655320000000005C
:142A980000019BDDDEDEDDCCB974000015799AA899A89888EE
:142AAC0074100000000000000000049BDEEDDDCDCB986200B9
:142AC0000004798A99988987887300000000000000000005BA
:142AD400ACDEDEDDDCBA88400000015889999999888861002D
:142AE800000000000000000005BCDEEDDDDCB9951000000136
:142AFC00368898989898884000000000000000000015ADDE40
:142B1000EDDDBBA972000000001567889898998710000000AD
:142B240000000000000002ACEEDDDCBB87300000000002577D
:142B3800899999998310000000000000000000017CDDDDCBA0
:142B4C00A96400000000000036798A89A851000000000000AD
:142B600000000000003BCDDBB996300000000000000368890B
:142B74009994100000000000000000000000059BAA875100EE
:142B8800000000000000002576652000000000000000000019
:142B9C0000000000135431100000000000000000001110005C
:142BB000000000000000000000000000000000000000000011
:142BC4000000000000000000000000000000000000000000FD
:142BD8000000000000000000000000000000000000000000E9
:142BEC000000000000000000000000000000000000000000D5
:142C00000000000000000000000000000000000000000000C0
:142C14000000000000000000000000000000000000000000AC
:142C280000000000001D370000000000000000000000000044
:142C3C00000000000000000000000000000000000000000084
:142C5000000000000000000000000000000000000000000070
:142C6400000000000000000000000000000000000000022238
:142C780033333222000000000000000000000000000000008E
:142C8C0000000000000135578899AAA8776422000000000037
:142CA00000000000000000000000000000035689A9AA9AAAA7
:142CB400AAAAA98765310000000000000000000000000000F2
:142CC8000024589AAAAABBBBBBABAAA9A9AA87500000000035
:142CDC00000000000000000000256999BAABABBBBBBBBBBA07
:142CF000ABAAAAAA961000000000000000000000001578995B
:142D0400AAAABBBBBBBBBBBBBBBBBAABAAA873000000000065
:142D180000000000001577899AAABBAABBBBCBBBABBCBBCB00
:142D2C00BBABBAA730000000000000000015878999AABBBABF
:142D4000CBBCBBBBCBBBBBBCBBCBBAAAAA720000000000007F
:142D540000014787899ABABABBBBCBBCCBBBBCBCCCCCBCBBFB
:142D6800BBAA950000000000000026788999AABBABBBCCBC4A
:142D7C00BCCBBBCCBCBCBBCCCCBBAA983000000000000267D4
:142D90008889ABABBBBCCCCCDCCCCCCCCCCCBBBBCCCBBBAA6F
:142DA400987200000000012588899AABBBCCCDCCCDCDDDDB23
:142DB800CCCDCBCBABBCCBCBA9A9841000000056889989AA4B
:142DCC00AACCCCCDDDDCDDDCDDCDCDCCCBBABBBCCBA98988AE
:142DE0004000000089A88899ABBBCCDDCDDDDDDDDCDDCDDD77
:142DF400DDCCDDD9ACCBB98888810000006999899ABABCDC34
:142E0800CDDDDDDDCDCDDDCDDDDDDDDDB9BDDBA998889500EB
:142E1C0000004988889ABBCCDDDDDDDDDDDDDDDDDDDDDDEDBC
:142E3000CAABCDCBA99878880000005789868ABCCDDDDDEE1F
:142E4400DDDDDECACEEEDDEEDBABCDDCCBA997778700000356
:142E580077994049BBCDCDDDDDDDEDDB316DEDECDDCBBDDD60
:142E6C00CCCB9987678600000467A92049BBBDDDDEEEEEDD45
:142E8000DA003BEEDDDCBCCDDDDCBBAA767786000006699A5F
:142E94006279ACDDDDDDDDEDDDDC428DEEDDDCDCCDDDDCCBE6
:142EA800B977778400003678AAAA99BBCCDDDEEDEDDDCCDDAE
:142EBC00EDEDDDDCCCDDDCDCBAB8767774000035788AA99AC1
:142ED000ABDCDDDDEEEDDDCDCDEEDDDDCDCDDDDDCCCBA866BA
:142EE400788200004578899A99BBDCDDEEDEDDDCDDCDDDDD0A
:142EF800DDDCDCDDDCCCBBA766888100005568789989BBCDFC
:142F0C00DEDDEEEDDCCDDCDDDDCDDCCDDEDCCBCA8668886041
:142F200000007746788899ABCCDEDEEDEDDDCCCCCBCCCCDC86
:142F3400CDEDDCCABA7788994000005764678887ABCDDDEE23
:142F4800DEEDDBCCCCCBCCCCBCCDDEDCBBA768899840000066
:142F5C0014554677789BCDDEDEEEDDBBBBBBBBBBBABBCDEDFE
:142F7000DCB98645799820000000453356678ACDDDEEEEDC9B
:142F8400BA9AABAA9978BCDEDDDB9766998995000000000475
:142F980043336579CDCDDEDCCB98798775557ACDDDEDB88700
:142FAC0079CCAB94000000000355333447AB879DDCA9667657
:142FC0005448ABBBBCCCBA87776BCCCB92000000000168635B
:142FD4003335520018BA75444347AAAAAA9AABA887777CDDD8
:142FE800CD9200000000016997422320121454333357BBAA54
:142FFC00ABABAAAA988887ADDCDD710000000000589BA632CE
:14301000322123233346ABBAAAABABBAAA998777BDDDDC5074
:14302400000000000048ABCC933323333232699AAABBBABB7C
:14303800BAB9998878DDDDCC400000000001499CCDD93333C0
:14304C002223334799AAAAAABB9AA9988779DEDDDC300000BD
:1430600000000039ABCDDC92233567633789AABABABAAAA930
:1430740098775CEEDDD920000000000049ACDDDED969A9A8D6
:14308800643579A9AAAAAAA99A97768EEEDDC71000000000FB
:14309C000039BDDDEDEDCCCB986101689999AA9999A88876C6
:1430B0008DDCCB9400000000000149CDDEEDDDCCBA86400039
:1430C400478998899999988775999986300000000000006AEF
:1430D800CDEEDDDDCCBA7610001578988898987877753331BE
:1430EC0010000000000000017ACEDDEDCDCBA964000003679E
:1431000079988789877853000000000000000000028BDEEDF0
:14311400DDDCCB986200000136788898788788610000000072
:143128000000000000038BDEDEDDDCBA87400000001567880B
:14313C008787988740000000000000000000029DDEEDDDCB00
:14315000A9851000000012567788889976200000000000000F
:14316400000000019CDEEEDDBAA85100000000003567989892
:14317800997300000000000000000000017CDDEDDCBA8720B3
:14318C00000000000003568798862000000000000000000011
:1431A00000003BDDDDBB99620000000000000013677631004F
:1431B400000000000000000000000017CCCBB985100000000B
:1431C8000000000001111100000000000000000000000000D0
:1431DC000269A9853000000000000000000000000000000016
:1431F000000000000000000000000133100000000000000087
:143204000000000000000000000000000000000000000000B6
:143218000000000000000000000000000000000000000000A2
:14322C0000000000000000000000000000000000000000008E
:1432400000000000000000000000000000000000000000007A
:14325400000000000000000000000000000000000000000066
:1432680000001D3700000000000000000000000000000000FE
:14327C0000000000000000000000000000000000000000003E
:14329000000000000000112222223221000000000000000060
:1432A400000000000000000000000000000234578899A9A916
:1432B8008753211000000000000000000000000000000000F7
:1432CC00002458AAAAAAAABAAAAAA9866442000000000000E7
:1432E00000000000000000000024799AAAAAABABBBABAAA940
:1432F400AAAAA8520000000000000000000000000135699940
:143308009AAAAABBBBBBABABABAAAAAAA730000000000000BC
:14331C000000000001557789AABAABABBBBBBBBBBBBBBBAAC6
:14333000AAAA9510000000000000000001467888AAAABABB80
:14334400BBBBBBBBBBBBBBBBBBABAA995000000000000000A4
:14335800001577898AAAAABBABBBBBCBBBBBBBCBCBBBBBBAD0
:14336C00AA94000000000000000368899AABBABBBABCBBCB65
:14338000BBBBCBBCBBCBBCBBBAA99820000000000000468856
:143394008A9ABABBCCBCBCCCCCCBBCCBBCBCCBCCCBBBAA9986
:1433A80051000000000224689899AACBCCCCDCBCCDCCCCBC3B
:1433BC00CCCCBBBBABBCBBA9989400000000388988899ABBD1
:1433D000CCCBCDCDDDCDDCDDCDCCBCBBBBBBBCCBA99987205F
:1433E4000000007998889AAABBBCCCCCDCDCDDDDDDCDCDCC34
:1433F800CDCDDC9BCBBA9988710000003998999ABCBCCDCC84
:14340C00DDDDDDDCDDDDCDCDCDDDDDB9ACCBBA9988850000CE
:14342000003798648ABBCCCCDDCDDDDDDDBBDDDDDDDDDDDA61
:14343400AABCCBB988888810000067893049BBCCDCCDDDDD9F
:14344800DDD9338DEEDDDEEBABCDCDDBAAA88798300002574C
:14345C0099206ABCCDDDDDDEDDDDC7004CEEDDDDCBCCDDDD52
:14347000CBAA977787300004689A878ABCCDCDDDEDDDDDDA43
:1434840035CEDEDDECCCCEDDDCCBB997777730000678AAA92D
:1434980099BCCDDDDDDEDDECDDCDEDEEDDDDCDCDDDCCCBAAA6
:1434AC00867778200015689AA98ABCCDDDDEEDEEDDDDDEEE88
:1434C000DEDDDCCCCDDDDCBBBA7677770000367888898ABB32
:1434D400DDCDDDDEEDDDDDDEDEDDDDDCCCDDDDDCCBB96766D3
:1434E8008700004578789989BBCDDDDEEEDDDDCDDEDDEEDDB4
:1434FC00DCCCDDDDCCCBB86657840000665669887ABBDCDD2F
:14351000DEDEECDDDCDDDDDDDDCDCDDDDDBCBBB865788400EE
:14352400005855577779BCDDDDDEEDDCBCDDDDDCDDDDDCDDBD
:14353800DDDDCCBA9757888200003774467668ACCDDEEDED47
:14354C00CBBCCCDCDCCDCCBCCCDDDCBBA97668887000000349
:1435600055335657ADDEEDEDDCBB99BBBBBBBBAAACDDDEDDB3
:14357400BA9876889951000000354334458A668DEDCBA788B4
:14358800A999886768BCDEEEDCA86654698840000000145536
:14359C002334520016DC977568875446799ABDDEDDB98776AA
:1435B000777899300000000157633330000266434555433673
:1435C40099AAABABCCBA877767BBA998100000000057873253
:1435D80033122333333333369AA9AAAA9AAA98887768BCCA15
:1435EC00B60000000000378985323332323333359ABAAAAAC4
:14360000AB9AAA9978777CCDCCB400000000001889AA3323D5
:143614002332323378AAAAAAABAAABA99888779DDCDCB40029
:1436280000000000178ABB7332323433335899AAAAAAABA97E
:14363C00AA998777BDDDDCB200000000001699BCD6334678DF
:14365000886436999AAAAABBAAAA988787DDDDDC92000000E0
:143664000000159ABCCBA8ACBBA9853488AAABAABAAA99988F
:143678007869DDDDCC710000000000038ABDCDDDCBBB9875DF
:14368C00236999A9BAAAAA9A98786CDEDDCC61000000000050
:1436A000038ABDDDDDCCCBA975105799A99A9899A988775DE4
:1436B400EDDDDB400000000000039BCDDDDDCCCAA97400261F
:1436C80088998999899887768EEEDDCB300000000000029B9C
:1436DC00CCDEDDDCBB986300046889989889877886ADDDCC38
:1436F000B6100000000000028BCEEDDDCCBA9751000157878E
:14370400989788877775ABAA9951000000000000039BDDEDE0
:14371800DDCCBA7630000136788887878777766654420000DF
:14372C000000000000039BDEDDCDCCA98610000014678887CE
:143740007878877100000000000000000000159BDDDDDCBB8C
:14375400A87400000001466778898897400000000000000037
:1437680000000004ACDEDDDDBB97510000000025668888992E
:14377C00851000000000000000000000039CDDDDCCBA76301F
:143790000000000002568898985100000000000000000000C4
:1437A40000029CDDDDCBA9740000000000001467976400005B
:1437B80000000000000000000000015BDEDCBB975000000045
:1437CC00000000012232100000000000000000000000000084
:1437E00018CCCBB874100000000000000000000000000000EA
:1437F400000000000000000000037AB9751000000000000006
:1438080000000000000000000000000000000000000000129A
:14381C00331000000000000000000000000000000000000055
:14383000000000000000000000000000000000000000000084
:14384400000000000000000000000000000000000000000070
:1438580000000000000000000000000000000000000000005C
:14386C00000000000000000000000000000000000000000048
:14388000000000000000000000000000000000000000000034
:14389400000000000000000000000000000000000000001D03
:1438A800370000000000000000000000000000111111110190
:1438BC000000000000000000000000000000000000000000F8
:1438D0000001234566888887553210000000000000000000E7
:1438E40000000000000000000002479AAAABAAABAAAAA965E1
:1438F80033210000000000000000000000000000001457AA53
:14390C00AAAABABABBBAAAAA9998764200000000000000002D
:14392000000000000014689AAAAAAABBBBBBBABBAABA99A933
:1439340097300000000000000000000001355899AAAAABAAE8
:14394800BBBBBBBBABBBBABAB9A985000000000000000000BE
:14395C0000366889AAA9BAABABBBBBBBBBBBBBABBABBAAAAF7
:143970005100000000000000000467899AAABBBBBBBBBBBB58
:14398400BBBBBBBBBCBBBBBAA9940000000000000003688827
:143998009ABBABCBBBBBBBBCCCBBBBBBCBCBBCBBABAA98402C
:1439AC00000000000001368889ABBBBCBCCCCDCCCCBBBBBB7F
:1439C000CBBBCBBCCBBAAA997200000000034588888ABBBC53
:1439D400BCCCDDCCDCCCCCDCCCCCBBBBABCBCBAAA89300002A
:1439E80000005A988899AABCCBCCCCDCDDDDCDDDDCDDBCCB6F
:1439FC00BBBBBBCBA9999720000000599888AAABCCCCDDCDB2
:143A1000CDDCDDCCDDCCCDDCDDDDDB9BCBBAA98960000000B7
:143A24002889779BBBCCCDDCDDCDEDDEEDDDDDDDDDDDDDA962
:143A3800BBCBB99888950000004786239BBBCCCCDDDDDEDD33
:143A4C00C77CDDDDDDDEDDBAABCCCBAAA98889300002689344
:143A6000059BBCCDCDDCDEDDED3006EEEDDDDDCBBCDDDDCB01
:143A7400BA98888850000379A7479BCCDDDDDEDDEDDC000677
:143A8800EDDEEDDDCCCDDDDCDBAA99877860000579A978AB7C
:143A9C00CDCCDDDDDEDDDDA6ADEDEEDDDDCCDDDDDDCBB997C5
:143AB000777850002678A989BCBCCDDDDDEDDDDDDDEDEEDEB7
:143AC400DDDDCCDDDDDCCBAA977778400036889888BBDCDD45
:143AD800DDDDEDDEDDDEEEEDEDEDDDCDCDDDCCCBAA867777DC
:143AEC00400046778779BCCCCDDDDEEDEEDDDDEDEDEEDDDCA3
:143B0000BCDDDDDCBBBA777778300055769879BBCCDDDDDE59
:143B1400DDEDDDEDDEEEDDDDDCDDDDDDDCCCB976668710013B
:143B280075567668BCDDDDEEDEEDDDDDCDDDDDEEDDDCDCDD10
:143B3C00DDCCCBA9765797000178546668BCDDEEDDDECCCC7F
:143B5000DDDDDDDDDDCDCDCDDDDDBCBBA855778500004774C4
:143B64004557BDDEEEEEDCBBACBCCCCCCCCCBCBCDDDDDDCB31
:143B7800BA87558884000005663346A889DEDDCCA98BBBBB51
:143B8C00BBBBB99ABCDDDDDCCA986678887100000146533403
:143BA00031026DDB997789A99987655679BCDDEEDBA876760A
:143BB400899871000000156533100028865456777754436869
:143BC80089ABBDDDDCB98787535898600000000358533112E4
:143BDC00233334545433357999AAAA9BBBA9887776787698DB
:143BF00040000000016796323333333333323489AAA99A9ADC
:143C0400999A99888867BBB9993000000001478943232322B0
:143C180032323479AAA9A9AAAA9AAA99887769BCBAB81000B4
:143C2C0000000026885332333333333368A9B9AAAAAAAAA937
:143C4000A898886ACDCCB7100000000016898423356976651F
:143C5400535899AAAAAAAAB9AA9A88777DCDDCB50000000099
:143C680000048AA556ABBAAAA97336999AAAAAABA9999987CA
:143C7C00879CDDCDC500000000000168ABCBBBBBAB9985354F
:143C9000899AAAAABAAAA9987886BCDDDCC3000000000002CC
:143CA400689BCBBCBBABA887336999AAABAAAAAA988876DCF3
:143CB800DDCBB2000000000001589BBBCCCCBBA98630579A4C
:143CCC00AA9A99AA9988876ADDDDDC8200000000000048AB40
:143CE000BCCCCCCBA97630268999889A99A989775CEEDDCCC3
:143CF40081000000000000389ABCCDCCBAA87620046989998D
:143D080099999878868EEEDDCB61000000000000279BBCCD0F
:143D1C00CCCBA86510025889999889887886ADDCCDB930007D
:143D3000000000000027ABBCDDCCBAA86400014688989898EB
:143D4400888875ABBBAA7300000000000000169ACCDCCCBA85
:143D5800976200001678998989888876766542100000000072
:143D6C0000000015ABCCCCBCB9875000001468788988998879
:143D8000730000000000000000000000159BDDCCBBB9762059
:143D94000000014688888989894000000000000000000000E9
:143DA80000059BDDCDCBB974100000002567999889851000DA
:143DBC0000000000000000000000039BCDCCBB986200000007
:143DD00000036799A89851000000000000000000000000014A
:143DE4006ABDCCBA87300000000001358889641000000000AC
:143DF80000000000000000000028BCBBB974000000000000EB
:143E0C00014333100000000000000000000000000000037A9E
:143E2000A9763000000000000000000000000000000000003F
:143E34000000000000000000134331000000000000000000F3
:143E4800000000000000000000000000000000000000000066
:143E5C00000000000000000000000000000000000000000052
:143E700000000000000000000000000000000000000000003E
:143E840000000000000000000000000000000000000000002A
:143E9800000000000000000000000000000000000000000016
:143EAC00000000000000000000000000000000000000000002
:143EC0000000000000000000000000000000000000000000EE
:143ED400000000000000000000000000000000001D37000086
:143EE80000000000000000000001235878999999855311001E
:143EFC00000000000000000000000000000000000001379AE0
:143F1000AABABBBBAA9AAA86432110000000000000000000DB
:143F24000000000000134799AAAAAABBBBBBAAAAA99A8752F7
:143F38000000000000000000000000000123589A9AAAAAABC6
:143F4C00BBBBBBBBBABAAAAAA84000000000000000000000C5
:143F600001357889AAAAABAABBBBBBBBBBBBBBABAAAA8510BC
:143F7400000000000000000000357789AAAAABABBBBBBBBB6E
:143F8800BBBBBBBBCBBBBAA9710000000000000000047889DA
:143F9C009AAAAABBBBBABBBBBBBBBABBBCBBBBABAAA6200045
:143FB00000000000000267898ABABBBBBBCBCCCBBBCBBBBB38
:143FC400BBBCBCBBBBAAA93000000000000036888AABABBB64
:143FD800CBCCCBCDCCCBCBCCBBCBCBBCCCBBAAA9720000001F
:143FEC000015887788AABBCCBCCCCDCDCDCDDCCDCCCBBBBA83
:14400000ACBBBBBAA993000000003A998799ABBCBCCDDCDDF8
:14401400CDDDDCDCDCDDCCCBBBBCCBCCBAA988300000002994
:144028009889AABBBCCCDCDCDDDDDDDDDDCDDDCDDDDEDB9BC5
:14403C00CBBA999960000000078769ABBBCCDCDDDDDDEEDEF1
:14405000DDDDDDDDDDDEDBB9ACCBBB999883000000277329F0
:14406400ABBCCCDDDCEEEDD969BEDDDDEDDDDCBBABDDCCBA58
:14407800A98988300000585049BCCBCDCCDDEDEE81108FED74
:14408C00EDDEDDCBBCDDDDCBBB99988870000279846ABBCC98
:1440A000CCDDDDDEDD5003BEEDEDDDDDCBCDDDCDCCBA99873E
:1440B4008881000479989BCBCCDDDDDEDDDDB78BDDEDEEED6F
:1440C800DDCCDDDDDDCBAB99878781002588889BCCCDDCDDE4
:1440DC00EEDEDDEDDEEEEDEDDDDDCDDDEDDCDBABA8777760EB
:1440F00000368777BBCCBCCDEDEDEDDDEDDEEDEEDEEDECCCAB
:14410400DDDDDCCBBB9877777000357779BBCCCDDDEEDDED87
:14411800DEEEEEDEEEEDDDDDCDDDDDCCCBBA96677750005575
:14412C005769BCCDCEDEDDDEEEDEDEDEDEEDEEDDDCDDDDDD3E
:14414000CCCBBA8776784000765579BCDDDEEEEEDDDDEDDE49
:14415400DDDDEDDDDDDCDCDDDDCCCCB9766777300288546A67
:14416800CDDDEDDEDDCDDDDDDDDDDDDDDDDDDCDDDDDDCCBB42
:14417C00A87656972000688359BDEEDDEDDCBBCCCCDCDCCC98
:14419000CCBBBBBDCDDDDCCBBB986657860000258545569D53
:1441A400DEDCCBA9ACBCBBBBBBAA8889CDDDDDDCCA997756F2
:1441B800788500000267510018CDAA98789AAAA98865566607
:1441CC009ABDDDEDDAA8877666898400000057620004776533
:1441E000656788776544457899AAACCCCB9888777788987274
:1441F4000000001575222333344555554333468999A99A9AD7
:14420800ABA988888766899871000000047623332333333333
:14421C003333479AA9989A9A999998988877544699500000EE
:14423000000166332332323323224689A9A9AAAAAA9AAA99E5
:14424400989877887788500000000047532323333333333309
:1442580078A9AA9AAAAABAAAA99889779BA9994000000000D7
:14426C001653345999998889635899AAAAAAABBAAAA99888DB
:1442800078BBAAB91000000000156569AABBBBA9A9844799CB
:14429400AAAAAAAAAAA9A9988869BBCBA81000000000037830
:1442A800ABBBAABAA9A885359AAAABAABBBBAAAA89987BBD71
:1442BC00CCB6100000000001678ABBBBBBABA986347AABAB5B
:1442D000ABBABBABAA98879CCCCCC5000000000001379ABBC0
:1442E400BBBBAB99873368AABAABBABABB998886BDCCCCB5FB
:1442F800100000000000268ABBCBBBBAA9864357AAABAAAB84
:14430C00AAAAA99878CCDDCBB30000000000002689ABBCBA99
:14432000BBA98641479AABBAABAABAA98879CDDDDBB2000028
:144334000000000004889BBBBBBB987620158AABBBBAABB9CC
:1443480099986CDEDCCC9200000000000003889ABBCBBBA99D
:14435C0065201579ABBABAAAA999888DDDDDBB710000000034
:14437000000003689ABBBBBAA975000378AABBBBBBA99997B7
:144384008DDDDBB82000000000000001699ABCBBAB976300E8
:1443980001589BBBBABAAAA9769BAA97400000000000000009
:1443AC000048ABBBABBA97610001378AAABABAAA9975322107
:1443C0001000000000000000000048ABBBBBB98740000026CA
:1443D4008AAABBBABA98710000000000000000000000002643
:1443E8009BCABBA9852000001488ABBBBBB998400000000005
:1443FC000000000000000000059ABBBBA96300000002789B77
:14441000ABBBBA87100000000000000000000000000158ABDD
:14442400BA874100000001599ABBBBA963000000000000008C
:1444380000000000000000136887531000000000269AABABF5
:14444C00852000000000000000000000000000000012221073
:1444600000000000000369998630000000000000000000008D
:144474000000000000000000000000000000001333110000DD
:14448800000000000000000000000000000000000000000020
:14449C0000000000000000000000000000000000000000000C
:1444B0000000000000000000000000000000000000000000F8
:1444C4000000000000000000000000000000000000000000E4
:1444D8000000000000000000000000000000000000000000D0
:1444EC000000000000000000000000000000000000000000BC
:144500000000000000000000000000000000000000000000A7
:14451400000000000000000000000000001D3700000000003F
:14452800000000000000001134688898987653110000000040
:14453C000000000000000000000000000000001368A99AAA03
:14455000BB9AAA9A7532110000000000000000000000000006
:14456400000001337AAAAAABBBBCBBAAAAA9A9863100000007
:14457800000000000000000000001355899AAAABABBBBBCB63
:14458C00BBBAABAAAAA7410000000000000000000000136844
:1445A00089AAAAAAAABBBBCBBCBBBABBAABAAA9510000000F6
:1445B4000000000000000367899AAAABABBBBBBBCBBBBCBB38
:1445C800BBBBBBABAA61000000000000000002578889AAAA3A
:1445DC00BBBBBBBBCBBBBBBBBBBCCCBBBBAAA61000000000CA
:1445F00000000046789ABAABBBBBCBCCCBBCBBBBCBCBCCBCD2
:14460400BCBBAAA930000000000000136889ABABBBBCBCCB50
:14461800CDCCCCBCCCBCBCBCCCCBBBABAA72000000000255FD
:14462C0067789ABBCBCCDCCDCDCDCCCCCCCCBBBBCBBCDBBBA9
:14464000BAA9930000000019A9889AABBBBCCCDCCDCDDDDC6F
:14465400DCCCDDCCBBBBCBCCCCBBA997100000001988788A7A
:14466800BBBCCCDDCDDDDDDCDDDDDDDDCCCBBBBBBCBCCAA94F
:14467C009930000000178789ABBCCCDCDDDDEDDEEDEDCDDD22
:14469000DDDDDDDDDA9CCCBBAAA97300000017758BABBCCC95
:1446A400DDCDDEEDFEEEDEDDDDEDDDDDDBB9BCCBCB999897B4
:1446B80000000036339BBBBCCCCDDDEDEDAADEEEEEDEDEDD26
:1446CC00DCBABBDDCCBAA998884000016505BBCCCCCDDDDED7
:1446E000DE95127EDEEDEEDDDDBBCCDDDCDCBAA98888710050
:1446F400028758BBBCCDDDDDEDED20205EEEDEDEDDDCCCDD4F
:14470800DDDDCBBAA99788810005897BBBCCCDDDDDEEDD84AF
:14471C0038CEEDEEEEDDDDCDDDDDDCCBBAA887788100268743
:144730009BBCCCCDDEEEDEEDDDCDEDEEEDDEDDEDCDDDDDDC71
:14474400CBBBA8877771003778ACCCCDDDEEEEDDDEDEEEDEB2
:14475800EDEEEDEDDDCDDDDDDCCBBB98777770005569BBCC97
:14476C00CDDEEEDEEEEDEEDEEEDEDEDDDDDCDDDDDDCCCBBBF2
:144780009766775002647BBCCDDDDDEDEEDEDDEEDEDDDEEE32
:14479400DEDDDCDCDDDDCCCBBA9777684003858ACCDDDDEE57
:1447A800DEEEDEEDDDDDDDDEDDDDDCDCDDDDDDCCBBBA8675AC
:1447BC00772003889BCDDDDEDDEDDDEDEDDCDDCCDCDCBDCC5D
:1447D000CCDDDDDCCBBCA97756771001689BDDEEDEDDDCCDBC
:1447E400DCDDDCDCCBCCCBABABCCDDDDDCBBBA9876568600D7
:1447F8000036769BEEDEDDBBABCCBCCBBBBBAAA9789BCDDD7E
:14480C00EDDBC999876568930000052025CDDBBB998AABBB51
:144820009A9987556568AACDDDDDCA997877667883000001C3
:1448340000016A98876778988876543457788899BBBBBA8841
:1448480088886678887100000032223343456566655433347B
:14485C0068898998988A9998988887788899710000001423FB
:144870003323333333333234789999889A99999A89899888E2
:14488400657888500000000333233232232323333789A9A900
:14489800999AAAAAAA9999898765479850000000003332336D
:1448AC0033333345454478A9AAAA9AABBAAAAA999987898601
:1448C000893000000000324579A99BA9A9A964589A9BBAAAA7
:1448D400AABAABAAAA89889BA9981000000000146AAABABBD3
:1448E800BAAA9974469ABBBBBBBBABBBAAA99969ABBAA710A8
:1448FC000000000014779ABBABBBAA9985359ABBCBCCCBBBF3
:14491000BBBA99A88ABBBBB6100000000001578AAABABAAA6D
:144924009887358ABCCCBCCCCCCCBB9A979AABBBB600000057
:144938000000003679A9BBB9AB99863379BBCCCCCDCCCBBBB7
:14494C00AA97ABBBCBB50000000000001478A9AAAABAA976CE
:144960004369BCCDDCDCCCCBBAA979CBCBCBA40000000000DE
:1449740000025789ABAABA99764358BCCDDDCCDDCCBA987CEB
:14498800CCDCCBA300000000000001578999AAAAA8660157D1
:14499C00ABCDDDDDCDBBBA988DDDDCCBA10000000000000049
:1449B00036789AAABAA96400389CCDDCDDDCBBBB979DDDDCA1
:1449C400BB610000000000000025779AAA9A977300279BCDB0
:1449D800DDDDCCBCAA97BCDDCCA620000000000000000478A1
:1449EC008A9AA9976200168BCDDDDDCCCBB9869AAA863000F9
:144A00000000000000000003689999A9874100169ABCDDDD6E
:144A1400DCBAA9722220000000000000000000000058999911
:144A2800998620001489BCDDDCDCBAA850000000000000009B
:144A3C0000000000000016999998630000037ABCDDDCDCBA9B
:144A5000983000000000000000000000000000015788753005
:144A640000000179ACDCDDDCA9861000000000000000000044
:144A780000000000000222200000000169ACCCDDCBA8830031
:144A8C00000000000000000000000000000000000000000016
:144AA0000038ACBDDCCA9840000000000000000000000000E3
:144AB4000000000000000000000027ABCCBBA8840000000069
:144AC8000000000000000000000000000000000000000003D7
:144ADC007A9A99873000000000000000000000000000000062
:144AF00000000000000000000036877640000000000000003F
:144B040000000000000000000000000000000000000001128A
:144B1800000000000000000000000000000000000000000089
:144B2C00000000000000000000000000000000000000000075
:144B4000000000000000000000000000000000000000000061
:144B5400000000000000000000001D370000000000000000F9
:144B6800000000000000000000000000000000000000000039
:144B7C000000000000000000000000000000000122122111BE
:144B9000000000000000000000000000000000000000000011
:144BA4000000023456788887775331000000000000000000EF
:144BB8000000000000000000000013588A9AABAA9AAABA9671
:144BCC005211000000000000000000000000000000023569D2
:144BE0009AAABBABBBBABAAA9AA87752000000000000000033
:144BF40000000000001346889AABBBBBBBBCBBBBABAAAAAA7B
:144C0800A73000000000000000000000001567799AAABBBB12
:144C1C00BBBCBBBBBBBBBAAAABAAA5000000000000000000C3
:144C30000004788899ABABBACBBCBCBBCBBCBBCCBABBAB99FE
:144C440050000000000000000001578899ABAABBBBCCBCCC74
:144C5800BCBCBCBBBBBCBBBBBAA40000000000000000368751
:144C6C0089AABABCCBCCCDCCCCCBCCCBCCCCCCCBBBBBA930AF
:144C8000000000000000157899ABAABBBCBCCCCCCDCCCCBCB9
:144C9400CCBCCCCCCCCBBBA98200000000023357889ABABB4C
:144CA800CBCCCDDCCCCCCCCCCCCCCCCCCCCCBCBBAA9400000B
:144CBC00000018A87799BBBBCCDCCDDCDDDDCDDDCDCDCCDDA6
:144CD000CCCDCCCCBAA998100000004A9779ABBBCDCDDDDE7F
:144CE400DDEEDDDCDDDCDCCCCBBBCCCCCBCBAA99410000009F
:144CF80038888ABBBCCCCCDDEDEEDEEEDDDDDDDDDCBBBBBC49
:144D0C00CCCCBAAA99740000003878BBACCCCDDDDEDEDEDD86
:144D2000EDDDEDDDDDDDDDDDBABCCCBBA99988000000444A22
:144D3400BBBCCDDDDDDEDDEEEDEEDDEEEEDDDDDDDBAADDCC6B
:144D4800BBA99888500002417ABBCCCCDDEEEEEEEEEEDEED25
:144D5C00DDEEDDDDDCAAACDCDBBBA9998880000463ABBCCC36
:144D7000DDDEEDEE8432BDEDEEEEDEDEECBBCCDCDCCCBAAA46
:144D8400989870003689ACCCCDDDEEDEEB20205EDEEDEEED9F
:144D9800EDDBCCDDDDCCCBBBA997877000378ABBCDDDDEDE4E
:144DAC00EEEA2113BEEDEEEDDDDDDCDDEDDDDDCBBAA997770B
:144DC000600057ABBCCCDDDEEEDEEECBBEEDEEEDEEDDDDDCAB
:144DD400DDDDDDDCCCBA987777300349BBBCCDDDEEDEEEDE17
:144DE800EDEDEDEDEEDDDDDDCDDDDDDCCCBBBBA8776730041F
:144DFC007ABBCDDDEEDEEEDEEEEEEEEEEEDDDDDDDCDCDDDD7D
:144E1000DDBCCCBA97776720069BBCDDDEEDDEDEEDEDEEDE73
:144E2400EDEEDEDDEDDDDDDDDDDCCCCCBA8777760007ABCC63
:144E3800DEEEEEEDEEEEEDEDEDDDEDDDDDDDDDCDDEEDCCBCBE
:144E4C00BCB98666750006ABDDDDEDDDDDDEDEDDDDDDCDDD6D
:144E6000CDDCDCCCCDDDDCCCBBBBA98667840006BCDDEEED91
:144E7400DDDDDDDDDDDCDCCCCCCBBBBABBCDDDDDCCBBBA972F
:144E8800656871000568DDEDDDDBBABCCCCCCBBBBBAAA987C0
:144E9C0078ACCDDDDDCBB988876688700000015CDCCBAA9820
:144EB0009BBAAAA9997655555689ABCDCDCB99888876788780
:144EC4005100000308AA7776678888876543333667777888FA
:144ED80099A9997889878788874000000013343334554665DF
:144EEC00443333577877777787878898899988678898300045
:144F000000000333233333323223234688898888888989999A
:144F14009989A9875457982000000002332333233334444437
:144F280035789999A9999AA9999A9999977876871000000090
:144F3C00002345667677888898535899ABBBABBBBABAAAAA26
:144F50009A889AA8961000000000257A9ABBBCBAA9997437EC
:144F64009BBBCBCCCCCCCBBBBAA979AAA99600000000000366
:144F78006789AAAAB9999875359BCCDCCDDDDCDCBBBAA98901
:144F8C00ABAAA50000000000004689999AA99A8976348ACC49
:144FA000DDDDDDDDDCBBBA98AAAAAAB4100000000000036873
:144FB400989999A99866337ACCDDDDDEDDDDCBBA98BABABA62
:144FC800A400000000000001368899999998651279CCDDEE88
:144FDC00EEEEDCCBA97BBBBBCB920000000000000025678833
:144FF000889988640079BDDDEEEEDCCCBAA99CDDDCBB710025
:14500400000000000000025677989987630159BCDEDDEDDD13
:14501800CCBB98ACDDDCA8300000000000000000446888886C
:14502C0087520159ACDDEEEDCDCCBA97ABBCA952000000008D
:1450400000000000002566778877400058BBDDEDEDDDBBB900
:1450540084356530000000000000000000000257767874102F
:145068000058ABDDEEEDDCBB995000000000000000000000F9
:14507C000000000025677641000058ACDDEDDDDCBA983000D4
:14509000000000000000000000000000000022320000004771
:1450A400ACDDEEEDCCAA861000000000000000000000000088
:1450B800000000000000000137ACDDEDDDCBA9730000000072
:1450CC00000000000000000000000000000000000028ACDD1F
:1450E000EDDDBA985000000000000000000000000000000050
:1450F40000000000000018BCDDDDDBAA8620000000000000EF
:1451080000000000000000000000000000000016ACDDDCBA5E
:14511C00A87200000000000000000000000000000000000065
:1451300000000000059BCCCBA98610000000000000000000F5
:14514400000000000000000000000000000159AAA9873000F3
:14515800000000000000000000000000000000000000000043
:14516C00000000136555200000000000000000000000000042
:1451800000000000000000000000000000000000000000001B
:14519400000000000000001331FFFFFFFFFFFFFFFFFFFFFFCE
:1451A800FFFFFFFFFFFFFFFFFFFFFFFFFFFFFFFFFFFFFFFF07
:1451BC00FFFFFFFFFFFFFFFFFFFFFFFFFFFFFFFFFFFFFFFFF3
:1451D000FFFFFFFFFFFFFFFFFFFFFFFFFFFFFFFFFFFFFFFFDF
:1451E400FFFFFFFFFFFFFFFFFFFFFFFFFFFFFFFFFFFFFFFFCB
:1451F800FFFFFFFFFFFFFFFFFFFFFFFFFFFFFFFFFFFFFFFFB7
:14520C00FFFFFFFFFFFFFFFFFFFFFFFFFFFFFFFFFFFFFFFFA2
:14522000FFFFFFFFFFFFFFFFFFFFFFFFFFFFFFFFFFFFFFFF8E
:14523400FFFFFFFFFFFFFFFFFFFFFFFFFFFFFFFFFFFFFFFF7A
:14524800FFFFFFFFFFFFFFFFFFFFFFFFFFFFFFFFFFFFFFFF66
:14525C00FFFFFFFFFFFFFFFFFFFFFFFFFFFFFFFFFFFFFFFF52
:14527000FFFFFFFFFFFFFFFFFFFFFFFFFFFFFFFFFFFFFFFF3E
:14528400FFFEAFFFFFFFFFFFFFFFFFFFFFFFFFFFFFFD9EFFDE
:14529800FA18FFFFFFFFFFFFFFFFFFFFFFFFFFFFF709FFF906
:1452AC0034BFFFFFFFFFFFFFFFFFFFFFFFFFFFE424FFFA65A2
:1452C000AFFFFFFFFFFFFFFFFFFFFFFFFFFFD455CFFB669F40
:1452D400FFFFFFFFFFFFFFFFFFFFFFFFFFF6579DC8777FFF2C
:1452E800FFFFFFFFFFFFFFFFFFFFFFFFFA466667775CFFFFE0
:1452FC00FFFFFFFFFFFFFFFFFFFFFFFA5667777767FFFFFFA0
:14531000FFFFFFFFFFFFFFFFFFFFF85667777775AFFFFFFFCF
:14532400FFFFFFFFFFFFFFFFFFF656677777775DFFFFFFFF0D
:14533800FFFFFFFFFFFFFFFFD4556777777767FFFFFFFFFF12
:14534C00FFFFFFFFFFFFFFB4446677777765AFFFFFFFFFFF82
:14536000FFFFFFFFFFFF945446666654455ADCCDEFFFFFFFBD
:14537400FFFFFFFFFF6456534444456655665569DFFFFFFF95
:14538800FFFFFFFF545566666666666654444347CFFFFFFF1A
:14539C00FFFFFD4455665556666764334444433DFFFFFFFFF0
:1453B000FFFC34455555666667434774444429FFFFFFFFFFEE
:1453C400FB34444556666676335964445425FFFFFFFFFFF9E4
:1453D80024444455666676233233356322DFFFFFFFFFF92345
:1453EC003344555666762223333332227ABDFFDBFFF8233352
:145400003555555566222222222112566688656DFA133234BA
:14541400555555563122222211235866676CBDFE313234453C
:1454280044455531111111123367766769FFFFC202244444CE
:14543C00444442111111223367656767FFFFFE502344444435
:145450004443221112332466556767FFFFFFF91233334444A6
:1454640033333223332565545659FFFFFFFFB233333333330C
:1454780033322332355444444DFFFFFFFFF602223333332336
:14548C00322322234433318FFFFFFFFFFD2012222222222266
:1454A000222233322314EFFFFFFFFFFFE6101122222225217B
:1454B400233325512BFFFFFFFFFFFDCEC7111212643722234B
:1454C80032277369FFFFFFFFFFE313552112237334233333CF
:1454DC00136765CFEFFFFFFFC22333212223433332123314A3
:1454F0006654689EFFFFFD73123321233333346544553366C0
:14550400769CDFFFFFFFD864443122233467777777669EFFAC
:14551800FFFFFFFFFFFFFC888656677888888899ACEFFFFF7C
:14552C00FFFFFFFFFFFFFEEDDDDEEFFEEEFFFFFFFFFFFFFFF7
:145540001331FFFFFFFFFFFFFFFFFFFFFFFFFFFFFFFFFFFF25
:14555400FFFFFFFFFFFFFFFFFFFFFFFFFFFFFFFFFFFFFFFF57
:14556800FFFFFFFFFFFFFFFFFFFFFFFFFFFFFFFFFFFFFFFF43
:14557C00FFFFFFFFFFFFFFFFFFFFFFFFFFFFFFFFFFFFFFFF2F
:14559000FFFFFFFFFFFFFFFFFFFFFFFFFFFFFFFFFFFFFFFF1B
:1455A400FFFFFFFFFFFFFFFFFFFFFFFFFFFFFFFFFFFFFFFF07
:1455B800FFFFFFFFFFFFFFFFFFFFFFFFFFFFFFFFFFFFFFFFF3
:1455CC00FFFFFFFFFFFFFFFFFFFFFFFFFFFFFFFFFFFFFFFFDF
:1455E000FFFFFFFFFFFFFFFFFFFFFFFFFFFFFFFFFFFFFFFFCB
:1455F400FFFFFFFFFFFFFFFFFFFFFFFFFFFFFFFFFFFFFFFFB7
:14560800FFFFFFFFFFFFFFFFFFFFFFFFFFFFFFFFFFFFFFFFA2
:14561C00FFFFFFFFFFFFFFFFFFFFFFFFFFFFFB6FFFFFFFFF22
:14563000FFFFFFFFFFFFFFFFFFFFFB4EFFF929FFFFFFFFFF0B
:14564400FFFFFFFFFFFFFFFFFFF70AFFF955BFFFFFFFFFFF53
:14565800FFFFFFFFFFFFFFFFE447FFF966AFFFFFFFFFFFFF14
:14566C00FFFFFFFFFFFFFFE456CFFA669FFFFFFFFFFFFFFF30
:14568000FFFFFFFFFFFFF7479DC8777FFFFFFFFFFFFFFFFF8B
:14569400FFFFFFFFFFFA466667775CFFFFFFFFFFFFFFFFFF30
:1456A800FFFFFFFFFA5667777767FFFFFFFFFFFFFFFFFFFFF0
:1456BC00FFFFFFF85666777775AFFFFFFFFFFFFFFFFFFFFF21
:1456D000FFFFF656667777775DFFFFFFFFFFFFFFFFFFFFFF5F
:1456E400FFD4556678777658FFFFFFFFFFFFFFFFFFFFFFFF73
:1456F800B45445555652689FFFFFFFFFFFFFFFFFFFFFFF93C5
:14570C00547AB44446675ADCCDEFFFFFFFFFFFFFFFFF645573
:1457200079A767666555665569DFFFFFFFFFFFFFFF545566C3
:14573400666555666654444347CFFFFFFFFFFFFD4455665538
:1457480056666764334444433DFFFFFFFFFFFC34455555660B
:14575C006667434774444429FFFFFFFFFFFB344445566666E8
:1457700076335964445425FFFFFFFFFFF924444455666676CB
:14578400233233356322DFFFFFFFFFF92333445556667622B8
:1457980023333332227ABDFFDBFFF8233335555555662222E4
:1457AC0022222112566688656DFA133234555555563122221F
:1457C0002211235866676CBDFE313234454445553111111115
:1457D400123367766769FFFFC2022444444444421111112242
:1457E8003367656767FFFFFE50234444444443221112332482
:1457FC0066556767FFFFFFF9123333444433333223332565A2
:14581000545659FFFFFFFFB23333333333333223323554444D
:14582400444DFFFFFFFFF602223333332332232223443331CB
:145838008FFFFFFFFFFD20122222222222222233322314EF29
:14584C00FFFFFFFFFFE610112222222521233325512BFFFFA5
:14586000FFFFFFFDCEC71112126437222332277369FFFFFF5E
:14587400FFFFE313552112237334233333136765CFEFFFFFB6
:14588800FFC223332122234333321233146654689EFFFFFDD3
:14589C0073123321233333346544553366769CDFFFFFFFD805
:1458B00064443122233467777777669EFFFFFFFFFFFFFFFCCD
:1458C400888656677888888899ACEFFFFFFFFFFFFFFFFFFECB
:1458D800EDDDDEEFFEEEFFFFFFFFFFFFFF1331FFFFFFFFFF01
:1458EC00FFFFFFFFFFFFFFFFFFFFFFFFFFFFFFFFFFFFFFFFBC
:14590000FFFFFFFFFFFFFFFFFFFFFFFFFFFFFFFFFFFFFFFFA7
:14591400FFFFFFFFFFFFFFFFFFFFFFFFFFFFFFFFFFFFFFFF93
:14592800FFFFFFFFFFFFFFFFFFFFFFFFFFFFFFFFFFFFFFFF7F
:14593C00FFFFFFFFFFFFFFFFFFFFFFFFFFFFFFFFFFFFFFFF6B
:14595000FFFFFFFFFFFFFFFFFFFFFFFFFFFFFFFFFFFFFFFF57
:14596400FFFFFFFFFFFFFFFFFFFFFFFFFFFFFFFFFFFFFFFF43
:14597800FFFFFFFFFFFFFFFFFFFFFFFFFFFFFFFFFFFFFFFF2F
:14598C00FFFFFFFFFFFFFFFFFFFFFFFFFFFFFFFFFFFFFFFF1B
:1459A000FFFFFFFFFFFFFFFFFFFFFFFFFFFFFFFFFFFFFFFF07
:1459B400FFFFFFFFFFFFFFFFFEFFFFFFFFFFFFFFFFFFFFFFF4
:1459C800FFFFFFFFFEBFFFF86FFFFFFFFFFFFFFFFFFFFFFFB7
:1459DC00FFFFFFF83FFFFA49FFFFFFFFFFFFFFFFFFFFFFFF4D
:1459F000FFFFF84BFFF955BFFFFFFFFFFFFFFFFFFFFFFFFF62
:145A0400FFE557FFF866AFFFFFFFFFFFFFFFFFFFFFFFFFFF54
:145A1800D456CFFA769FFFFFFFFFFFFFFFFFFFFFFFFFFFF689
:145A2C00479DB8777FFFFFFFFFFFFFFFFFFFFFFFFFFFFA46A1
:145A40006666765CFFFFFFFFFFFFFFFFFFFFFFFFFFFA56660B
:145A5400777767FFFFFFFFFFFFFFFFFFFFFFFFFFF8566667DB
:145A680077769FFFFFFFFFFFFFFFFFFFFFFFFFF6556667781A
:145A7C0076AEFFFFFFFFFFFFFFFFFFFFFFFFD4544567646D59
:145A9000DDFFFFFFFFFFFFFFFFFFFFFFFFB4545BFEB5BA3928
:145AA4009FFFFFFFFFFFFFFFFFFFFFFF93557DF84A88565A7B
:145AB800DCCDEFFFFFFFFFFFFFFFFF645557985665655566C7
:145ACC005569DFFFFFFFFFFFFFFF545566666555666654449D
:145AE0004347CFFFFFFFFFFFFD4455666556666764334444BB
:145AF400433DFFFFFFFFFFFC3445555566666743477444444B
:145B080029FFFFFFFFFFFB3444455666667633596444542568
:145B1C00FFFFFFFFFFF924444455666676233233356322DF1D
:145B3000FFFFFFFFF9233344555666762223333332227ABD15
:145B4400FFDBFFF8233335555555662222222221125666888D
:145B5800656DFA133234555555563122222211235866676C43
:145B6C00BDFE3132344544455531111111123367766769FF5B
:145B8000FFC202244444444442111111223367656767FFFFB8
:145B9400FE50234444444443221112332466556767FFFFFF17
:145BA800F9123333444433333223332565545659FFFFFFFF79
:145BBC00B2333333333333322332355444444DFFFFFFFFF61A
:145BD000022233333323322322234433318FFFFFFFFFFD20F7
:145BE400122222222222222233322314EFFFFFFFFFFFE61031
:145BF800112222222521233325512BFFFFFFFFFFFDCEC71147
:145C0C0012126437222332277369FFFFFFFFFFE313552112D2
:145C2000237334233333136765CFEFFFFFFFC2233321222305
:145C34004333321233146654689EFFFFFD731233212333333E
:145C4800346544553366769CDFFFFFFFD864443122233467FE
:145C5C00777777669EFFFFFFFFFFFFFFFC8886566778888883
:145C70008899ACEFFFFFFFFFFFFFFFFFFEEDDDDEEFFEEEFFEC
:145C8400FFFFFFFFFFFF1331FFFFFFFFFFFFFFFFFFFFFFFFDA
:145C9800FFFFFFFFFFFFFFFFFFFFFFFFFFFFFFFFFFFFFFFF0C
:145CAC00FFFFFFFFFFFFFFFFFFFFFFFFFFFFFFFFFFFFFFFFF8
:145CC000FFFFFFFFFFFFFFFFFFFFFFFFFFFFFFFFFFFFFFFFE4
:145CD400FFFFFFFFFFFFFFFFFFFFFFFFFFFFFFFFFFFFFFFFD0
:145CE800FFFFFFFFFFFFFFFFFFFFFFFFFFFFFFFFFFFFFFFFBC
:145CFC00FFFFFFFFFFFFFFFFFFFFFFFFFFFFFFFFFFFFFFFFA8
:145D1000FFFFFFFFFFFFFFFFFFFFFFFFFFFFFFFFFFFFFFFF93
:145D2400FFFFFFFCEFFFD7EFFFFFFFFFFFFFFFFFFFFFFFFFCA
:145D3800FFFFD1AFFFC39FFFFFFFFFFFFFFFFFFFFFFFFFFF85
:145D4C00FFB37FFFC55AFFFFFFFFFFFFFFFFFFFFFFFFFFFF02
:145D6000656EFFA558FFFFFFFFFFFFFFFFFFFFFFFFFFFF5519
:145D74006BFFB669FFFFFFFFFFFFFFFFFFFFFFFFFFFF947894
:145D8800CB9768FFFFFFFFFFFFFFFFFFFFFFFFFFFFB56666CA
:145D9C006766DFFFFFFFFFFFFFFFFFFFFFFFFFFF956667777B
:145DB00075AFFFFFFFFFFFFFFFFFFFFFFFFFFF756667777798
:145DC4005CFFFFFFFFFFFFFFFFFFFFFFFFFE55555666767C25
:145DD800FFFFFFFFFFFFFFFFFFFFFFFFFB45448CC838DCFFD8
:145DEC00FFFFFFFFFFFFFFFFFFFFFFF84558FF987D75AEFFE3
:145E0000FFFFFFFFFFFFFFFFFFFFF64566AC65877658BAAB2C
:145E1400DFFFFFFFFFFFFFFFFFD4456566765556665544455A
:145E280079DFFFFFFFFFFFFFB34556655566667643344443CC
:145E3C003AFFFFFFFFFFFF934555556666676336854444348F
:145E5000EFFFFFFFFFFF73444455666667433674445433DF3A
:145E6400FFFFFFFFFF53444455666667423233336522BFFFAD
:145E7800FFFFFFFE434444555666675222333332219FFFFF0E
:145E8C00FFFFFD334334555555565222222222217FFFFFFF91
:145EA000FFFD333334555555565122222221127FFFFFFFFF9E
:145EB400FF423224444445555211111111228FFFFFFFFFFFDF
:145EC800B1122344444444431111111232AFFFFFFFFFFFFA72
:145EDC001023344444444322211123339DFFDBFFFFFFFFD44B
:145EF00002333344444333322233236688656DFFFFFFFF7161
:145F04002333334333323223333676676CBDFFFFFFFFF7029F
:145F1800223333332232233236766769FFFFFFFFFFFF601229
:145F2C002222222232222223666767FFFFFFFFFFFFF71011FA
:145F400022222223223332456767FFFFFFFFFFFFFFB201116D
:145F5400124337323333345659FFFFFFFFFFFFFFF9511223BA
:145F6800834523233333444DFFFFFFFFFFFFFFFFF6022341CC
:145F7C002222233333318FFFFFFFFFFFFFFFFFF9011111115F
:145F90002233322214EFFFFFFFFFFFFFFFFFFB011111122306
:145FA4003325512BFFFFFFFFFFFEDEFFEEC5232111122332D0
:145FB80037615AFFFFFFFFFFF76776322232212223333321A1
:145FCC002245CFEFFFFFFFC566662123233333322233123276
:145FE00034689EFFFFFFC34555432333333465445532333581
:145FF400ACDFFFFFFFF87789833222346777777776788CFFC9
:14600800FFFFFFFFFFFFFFFBBBAABCCCDDDDDDDEEFFFFFFF42
:14601C00FFFFFFFFFFFFFFFFFFFFFFFFFFFFFFFFFFFFFF1370
:1460300031FFFFFFFFFFFFFFFFFFFFFFFFFFFFFFFFFFFFFF3E
:14604400FFFFFFFFFFFFFFFFFFFFFFFFFFFFFFFFFFFFFFFF5C
:14605800FFFFFFFFFFFFFFFFFFFFFFFFFFFFFFFFFFFFFFFF48
