:020000040000FA
:0600000080EF0FF012007A
:020006000000F8
:080008008E888E8A8E928E9084
:10001000640EE66EC9EC0EF0E5528E80C80EE66EF8
:10002000E66AC9EC0EF0E552E552030EE66EC00E2C
:10003000E66E0BD8E552E5526ED8030EE66E3F0E23
:10004000E66E03D8E552E5521200D9CFE6FFE1CFC4
:10005000D9FF8E968E94FE0EDB50846EFD0EDB5023
:10006000030A09E0010A05E0030A01E007D08E98BF
:1000700005D08E9A03D08E988E9A00D08E828E9262
:100080008E888E8AE552E7CFD9FF1200D9CFE6FFDE
:10009000E1CFD9FF8E868E94FE0EDB50846EFD0E6E
:1000A000DB50030A09E0010A05E0030A01E007D07A
:1000B0008E9805D08E9A03D08E988E9A00D08E821C
:1000C0008E928E888E8AE552E7CFD9FF1200D9CF63
:1000D000E6FFE1CFD9FFFD0EDBCFE6FFFE0EDB50E2
:1000E000B80FE66EB2DFE552E552E552E7CFD9FF31
:1000F0001200D9CFE6FFE1CFD9FFFD0EDBCFE6FF3F
:10010000FE0EDB50400FE66EA0DFE552E552E552F1
:10011000E7CFD9FF1200D9CFE6FFE1CFD9FF040E18
:10012000E126DE6ADD6ADECF10F0DDCF11F0D89077
:10013000115004E6080E105C000E115830E2030E58
:10014000E66EDFCFE6FFC3DFE552E552030EE66E53
:10015000E66ACFDFE552E552020EDB6A030EDB6A88
:10016000020EDBCF10F0030EDBCF11F0D890115050
:1001700004E6400E105C000E11580CE2030EE66E11
:10018000E66A84DFE552E552020EDB2A030E01E344
:10019000DB2AE6D7DF2A010E01E3DB2AC4D7030EF0
:1001A000E66EE66A94DFE552E552030EE66EE66A15
:1001B000A0DFE552E552040EE15C02E2E16AE5529D
:1001C000E16EE552E7CFD9FF1200D9CFE6FFE1CFCC
:1001D000D9FF060EE126FE0EDB50070804E3FD0EF4
:1001E000DB50140801E2CFD0030EE66EFE0EDBCF2B
:1001F000E6FF6DDFE552E552FD0EDB50060DF350D4
:10020000DE6EDD6ADECF10F0DDCF11F0D890115038
:1002100004E63F0E105C000E11580FE2010EF36E63
:10022000020EF3CFDBFF030EDB6A010EE66EDFCFBB
:10023000E6FF5FDFE552E55215D0020EF36EF3CF15
:10024000DBFF030EDB6A020EE66EDECF10F0DDCFC1
:1002500011F0400E105E000E115A1050E66E49DF8C
:10026000E552E552FB0EDBCFF6FFFC0EDBCFF7FFCE
:100270000800F55001E187D0040EDB6A050EDB6A49
:10028000040EDBCF10F0050EDBCF11F0D89011502B
:1002900004E6060E105C000E11586FE2D950040FF0
:1002A000E96EDACFEAFF050EEE1801E1ED5008E144
:1002B000020EDBCFE6FFE66AE9DEE552E55223D027
:1002C000020EDBCFE6FFFB0EDBCFF6FFFC0EDBCF33
:1002D000F7FF0800F550E00F050DF3CF10F0F4CF55
:1002E00011F0DC0E1026150E1122040EDB50102426
:1002F000F66E050EDB501120F76E0800F550E66E25
:10030000C5DEE552E552D9CFE9FFDACFEAFFEE2AA2
:10031000000EED22EECF10F0EDCF11F0113404E21B
:1003200010507F08000E115401E22DD0D950020F59
:10033000E96EDACFEAFF010EEE1801E1ED5017E1A8
:10034000DECF10F0DDCF11F0113404E210503F0881
:10035000000E11540CE2020EF36EF3CFDBFF030E1E
:10036000DB6A020EE66EE66AC4DEE552E552040E72
:10037000DB2A050E01E3DB2A83D7FB0EDB2AFC0E0A
:1003800001E3DB2A6FD7060EE15C02E2E16AE55287
:10039000E16EE552E7CFD9FF1200D9CFE6FFE1CFFA
:1003A000D9FF060EE126FE0EDB50070804E3FD0E22
:1003B000DB50140801E2CDD0030EE66EFE0EDBCF5B
:1003C000E6FF85DEE552E552FD0EDB50060DF350EB
:1003D000DE6EDD6ADECF10F0DDCF11F0D890115067
:1003E00004E63F0E105C000E11580FE2010EF36E92
:1003F000020EF3CFDBFF030EDB6A010EE66EDFCFEA
:10040000E6FF77DEE552E55215D0020EF36EF3CF2C
:10041000DBFF030EDB6A020EE66EDECF10F0DDCFEF
:1004200011F0400E105E000E115A1050E66E61DEA3
:10043000E552E552FB0EDBCFE9FFFC0EDBCFEAFF16
:10044000EF5001E186D0040EDB6A050EDB6A040E74
:10045000DBCF10F0050EDBCF11F0D890115004E681
:10046000060E105C000E11586EE2D950040FE96EB2
:10047000DACFEAFF050EEE1801E1ED5008E1020EB9
:10048000DBCFE6FFE66A02DEE552E55222D0020E3D
:10049000DBCFE6FFFB0EDBCFE9FFFC0EDBCFEAFF95
:1004A000EF50E00F050DF3CF10F0F4CF11F0DC0E9C
:1004B0001026150E1122040EDB501024F66E050EC8
:1004C000DB501120F76E0800F550E66EDFDDE552D7
:1004D000E552D9CFE9FFDACFEAFFEE2A000EED228E
:1004E000EECF10F0EDCF11F0113404E210507F0880
:1004F000000E115401E22DD0D950020FE96EDACF6F
:10050000EAFF010EEE1801E1ED5017E1DECF10F029
:10051000DDCF11F0113404E210503F08000E1154E9
:100520000CE2020EF36EF3CFDBFF030EDB6A020E6A
:10053000E66EE66ADEDDE552E552040EDB2A050EC4
:1005400001E3DB2A84D7FB0EDB2AFC0E01E3DB2A66
:1005500071D7060EE15C02E2E16AE552E16EE55216
:10056000E7CFD9FF1200D9CFE6FFE1CFD9FF020EC6
:10057000E126FC0EDB50DF6E010EDB6AD9CFE6FF11
:10058000DACFE6FFFD0EDBCFE6FFFE0EDBCFE6FFA8
:1005900004DFE552E552E552E552020EE15C02E26B
:1005A000E16AE552E16EE552E7CFD9FF1200D9CFFB
:1005B000E6FFE1CFD9FF060EE126FE0EDB5007086D
:1005C00004E3FD0EDB50140801E2B9D0030EE66E21
:1005D000FE0EDBCFE6FF7BDDE552E552FD0EDB5084
:1005E000060DF350DE6EDD6ADECF10F0DDCF11F0C8
:1005F000D890115004E63F0E105C000E11580FE227
:10060000010EF36E020EF3CFDBFF030EDB6A010E69
:10061000E66EDFCFE6FF6DDDE552E55215D0020E46
:10062000F36EF3CFDBFF030EDB6A020EE66EDECF66
:1006300010F0DDCF11F0400E105E000E115A105078
:10064000E66E57DDE552E552040EDB6A050EDB6A05
:10065000040EDBCF10F0050EDBCF11F0D890115057
:1006600004E6060E105C000E115869E2D950040F22
:10067000E96EDACFEAFF050EEE1801E1ED5008E170
:10068000020EDBCFE6FFE66A01DDE552E5521DD042
:10069000020EDBCFE6FFFC0EDB50E00F050DF3CFC3
:1006A00010F0F4CF11F0DC0E1026150E1122040EFE
:1006B000DB501024F66E050EDB501120F76E08009B
:1006C000F51CE66EE3DCE552E552D9CFE9FFDACF5F
:1006D000EAFFEE2A000EED22EECF10F0EDCF11F082
:1006E000113404E210507F08000E115401E227D0AB
:1006F000D950020FE96EDACFEAFF010EEE1801E1E0
:10070000ED5017E1DECF10F0DDCF11F0113404E22F
:1007100010503F08000E11540CE2020EF36EF3CF9E
:10072000DBFF030EDB6A020EE66EE66AE2DCE552F0
:10073000E552040EDB2A050E01E3DB2A89D7060EFB
:10074000E15C02E2E16AE552E16EE552E7CFD9FFF2
:100750001200D9CFE6FFE1CFD9FF020EE126FE0E4F
:10076000DB50070801E228D0030EE66EFE0EDBCF59
:10077000E6FFADDCE552E552030EE66EE66AB9DC53
:10078000E552E552DE6ADD6ADECF10F0DDCF11F012
:10079000D890115004E6400E105C000E11580CE287
:1007A000030EE66E080EE66E71DCE552E552DF2AB6
:1007B000010E01E3DB2AE8D7020EE15C02E2E16A06
:1007C000E552E16EE552E7CFD9FF1200D9CFE6FF3F
:1007D000E1CFD9FF180EE126170EDB6AFC0EDB50C5
:1007E000F36E170EDBCFF4FFF350F45C11E2D9CFB8
:1007F00010F0DACF11F0170EDB500F011024E96E64
:10080000000E1120EA6E200EEF6E170EDB2AE6D7DF
:10081000D9CF10F0DACF11F0FC0EDB500F0110240D
:10082000E96E000E1120EA6EEF6AD9CFE6FFDACF4B
:10083000E6FFFD0EDBCFE6FFFE0EDBCFE6FFADDD14
:10084000E552E552E552E552180EE15C02E2E16A3A
:10085000E552E16EE552E7CFD9FF1200D9CFE6FFAE
:10086000E1CFD9FF070EE126FE0EDB507F0804E33F
:10087000FD0EDB503F0801E2D7D0FE0EDB50106EBC
:10088000116A800ED8801056000E1156050E10C049
:10089000DBFF060E11C0DBFF050EDBCF10F0060EEE
:1008A000DBCF11F0FC0EDB50126E136A13501118DF
:1008B000E8AE02D0113404D01050125C115013581D
:1008C0000CE2FC0EDB50E66ED950050FE96EDACF74
:1008D000EAFFE552E750EE6EED6A030EE66EFD0E9E
:1008E000DB50F80BE842E842E842E66E67EC00F0C5
:1008F000E552E552FE0EDB503F0809E2400EF36E72
:10090000040EF3CFDBFFDE52020EDD6E05D0040EC7
:10091000DB6ADE52010EDD6E010EF36E030EF3CFC5
:10092000DBFFDF6AFD0EDB50070BDF5C09E2030E25
:10093000DBCFF3FFF39EF346F3CFDBFFDF2AF2D7E3
:10094000010EDBCFE6FFFE0EDBCFE6FF040EDB5031
:10095000E552E75CE66E79EC00F0E552E552DF6ABD
:10096000DF50106E116A050EDBCF12F0060EDBCFE2
:1009700013F011501318E8AE02D0133404D0125003
:10098000105C1350115850E2010EDBCFE6FFB7ECBC
:100990000AF0E552010EDBCFE6FFB7EC0AF0E552B4
:1009A000E76E020EE7CFDBFFDBCFE7FF030EDB5086
:1009B000E712020EE7CFDBFF010EDBCFE6FFFE0EF4
:1009C000DBCFE6FF040EDB50E552E75CDF24E66E8A
:1009D00079EC00F0E552E552010EDBCFE6FF020EA6
:1009E000DBCFE6FF46EC00F0E552E552010EDB04FA
:1009F00019E1FE0EDBCFE6FF040EDB50E552E75CAB
:100A0000DF24010F3F080EE2400EF36E040EF3CF19
:100A1000DBFFDE52020EDD6EE66EE66A79EC00F078
:100A2000E552E552DF2A9CD7070EE15C02E2E16A5B
:100A3000E552E16EE552E7CFD9FF1200D9CFE6FFCC
:100A4000E1CFD9FF080EE126FE0EDB507F0804E35C
:100A5000FD0EDB503F0801E205D1FD0EDBCFE6FFC6
:100A6000400EE552D880E754E66ED950060FE96E85
:100A7000DACFEAFFE552E750EE6EED6A060EDBCF05
:100A800010F0070EDBCF11F0FC0EDB50126E136A74
:100A900013501118E8AE02D0113404D01050125C7B
:100AA000115013580CE2FC0EDB50E66ED950060FC5
:100AB000E96EDACFEAFFE552E750EE6EED6AFE0E20
:100AC000DB503F080EE2400E106EFE0EDBCFE7FF5C
:100AD0001050E75EFE0EE7CFDBFFDE52020EDD6E4A
:100AE00003D0DE52010EDD6E060EDBCF10F0070ED6
:100AF000DBCF11F0113404E210500008000E115445
:100B000001E3B0D0FD0EDB50F80BE842E842E842CA
:100B1000E76E040EE7CFDBFF010EDBCFE6FF040E2E
:100B2000DBCFE6FF67EC00F0E552E552010EDBCFCC
:100B3000E6FFFE0EDBCFE6FF79EC00F0E552E55272
:100B4000010EDBCFE6FFB7EC0AF0E552080E106E9F
:100B5000FD0EDB50070B105CE76E050EE7CFDBFFE9
:100B6000DBCFE6FF080EE552D880E754106EFF0E8B
:100B7000105204E0E846FE0B1006FCE1E76E030E9F
:100B8000E7CFDBFF050EDB50106E116A060EDBCFE0
:100B900012F0070EDBCF13F013501118E8AE02D09D
:100BA000113404D01050125C115013581EE2050E7F
:100BB000DB50136E146A060EDB50135C116E070EC9
:100BC000DB501458126EFF0E11C0E7FFE75204E02D
:100BD000E8427F0BE706FCE1106E030EDBCFE7FF78
:100BE0001050E716030EE7CFDBFF010EDBCFE6FF69
:100BF000B7EC0AF0E552E76E020EE7CFDBFFDBCF82
:100C0000E7FF030EDB50E712020EE7CFDBFF010E1A
:100C1000DBCFE6FFFE0EDBCFE6FF79EC00F0E5521E
:100C2000E552010EDBCFE6FF020EDBCFE6FF46EC1E
:100C300000F0E552E552FD0EDBCFE7FF050EDB507D
:100C4000E726FD0EE7CFDBFF050EDB50106E116AC5
:100C5000D950060FE96EDACFEAFF1050EE5E115060
:100C6000ED5A42D7080EE15C02E2E16AE552E16E1C
:100C7000E552E7CFD9FF1200D9CFE6FFE1CFD9FF88
:100C8000FC0EDBCFE6FFFE0EDB50E552E75C010F0A
:100C9000E66EFD0EDBCFE6FFFE0EDBCFE6FFDEDD10
:100CA000E552E552E552FC0EDBCFE6FFFE0EDB50CF
:100CB000E552E75C010FE66EFB0EDBCFE6FFFE0EB2
:100CC000DBCFE6FFCBDDE552E552E552FB0EDBCF95
:100CD000E6FFFD0EDB50E552E75C010FE66EFD0E10
:100CE000DBCFE6FFFE0EDBCFE6FFA8DEE552E552E6
:100CF000E552FB0EDBCFE6FFFD0EDB50E552E75C75
:100D0000010FE66EFD0EDBCFE6FFFC0EDBCFE6FF4C
:100D100095DEE552E552E552E552E7CFD9FF1200E4
:100D2000D9CFE6FFE1CFD9FF180EE126FB0EDB504D
:100D3000F36EFD0EDB50F35C14E1FC0EDBCFE6FF3F
:100D4000FE0EDB50E552E75C010FE66EFD0EDBCFD9
:100D5000E6FFFE0EDBCFE6FF81DDE552E552E55210
:100D600083D3FC0EDB50F36EFE0EDB50F35C14E11C
:100D7000FB0EDBCFE6FFFD0EDB50E552E75C010F1B
:100D8000E66EFD0EDBCFE6FFFE0EDBCFE6FF56DEA6
:100D9000E552E552E55268D3FE0EDB507F080CE3C6
:100DA000FD0EDB503F0808E3FC0EDB507F0804E338
:100DB000FB0EDB503F0801E257D3FE0EDB50DE6E28
:100DC000DD6AFD0EDB50E66ED950020FE96EDACF18
:100DD000EAFFE552E750EE6EED6AFC0EDB50126E54
:100DE000136AFE0EDB50146E156A1450125C106EFE
:100DF00015501358116E040E10C0DBFF050E11C004
:100E0000DBFFFB0EDB50126E136AFD0EDB50146E1F
:100E1000156A1450125C106E15501358116E060EA0
:100E200010C0DBFF070E11C0DBFF040EDBCF10F09C
:100E3000050EDBCF11F0113404E210500108000E52
:100E4000115408E2010EF36E080EF3CFDBFF090E1A
:100E5000DB6A04D0080EDB68090EDB68060EDBCF08
:100E600010F0070EDBCF11F0113404E2105001082E
:100E7000000E115408E2010EF36E0A0EF3CFDBFFF1
:100E80000B0EDB6A04D00A0EDB680B0EDB68040E67
:100E9000DBCF12F0050EDBCF13F0133404E2125057
:100EA0000008000E135407E2040EDBCF10F0050E0D
:100EB000DBCF11F00AD0040EDBCF10F0050EDBCF34
:100EC00011F0106C111E000E1122040E10C0DBFF79
:100ED000050E11C0DBFF060EDBCF12F0070EDBCFD5
:100EE00013F0133404E212500008000E135407E20A
:100EF000060EDBCF10F0070EDBCF11F00AD0060E86
:100F0000DBCF10F0070EDBCF11F0106C111E000EBE
:100F10001122060E10C0DBFF070E11C0DBFF0C0E06
:100F2000DB6A0D0EDB6A060EDBCF12F0070EDBCF9D
:100F300013F0040EDB50125C106E050EDB501358DC
:100F4000116E113404E210500008000E11542BE20F
:100F5000060EDBCF08F0070EDBCF09F0100E08C03D
:100F6000DBFF110E09C0DBFF040EDBCF08F0050E1E
:100F7000DBCF09F0060E08C0DBFF070E09C0DBFF60
:100F8000100EDBCF08F0110EDBCF09F0040E08C005
:100F9000DBFF050E09C0DBFF010EF36E0C0EF3CF75
:100FA000DBFF0D0EDB6A060EDBCF12F0070EDBCF88
:100FB00013F0D89012361336040EDB50125C106E0C
:100FC000050EDB501358116E0E0E10C0DBFF0F0E16
:100FD00011C0DBFF010EF36E120EF3CFDBFF130E19
:100FE000DB6A080E106E116A020EDBCF08F0030EEA
:100FF000DBCF09F010C00DF011C00EF044EC0FF083
:10100000140E08C0DBFFDECF10F0DDCF11F011347D
:1010100004E210503F08000E11540BE2400EF36E34
:10102000150EF3CFDBFF020EF36E170EF3CFDBFFCF
:1010300007D0150EDB6A010EF36E170EF3CFDBFF40
:10104000DBCFE6FF140EDBCFE6FF67EC00F0E552E6
:10105000E552120EDBCF10F0130EDBCF11F0040EB1
:10106000DBCF12F0050EDBCF13F013501118E8AEF2
:1010700002D0113404D01050125C1150135801E208
:101080003FD1DECF10F0DDCF11F0113404E210506B
:101090003F08000E11540DE2170EDB040AE1400E6A
:1010A000F36E150EF3CFDBFF020EF36E170EF3CFC8
:1010B000DBFF140EDB50106E116A020EDBCF12F054
:1010C000030EDBCF13F0080E0D6E0E6A12C008F08F
:1010D00013C009F044EC0FF008C012F009C013F07F
:1010E0001250101802E1135011181CE0080E106E77
:1010F000116A020EDBCF08F0030EDBCF09F010C03F
:101100000DF011C00EF044EC0FF0140E08C0DBFF20
:10111000170EDBCFE6FF140EDBCFE6FF67EC00F027
:10112000E552E552170EDBCFE6FF150EDB50126ECF
:10113000136A1250DE5C106E1350DD58116E1050A1
:10114000E66E79EC00F0E552E552170EDBCFE6FFD4
:101150000EDAE552170EDBCFE6FF09DAE552E76E4D
:10116000160EE7CFDBFF020EDBCF11F0030EDBCF55
:1011700012F0080E0D6E0E6A11C008F012C009F0D0
:1011800044EC0FF004C011F005C012F0010E11C0C4
:10119000E7FFE75204E0E846FE0BE706FCE1106ECD
:1011A000160EDBCFE7FF1050E712160EE7CFDBFF7E
:1011B000170EDBCFE6FF150EDB50126E136A1250CE
:1011C000DE5C106E1350DD58116E1050E66E79EC37
:1011D00000F0E552E552170EDBCFE6FF160EDBCF2F
:1011E000E6FF46EC00F0E552E5520E0EDBCF10F0C4
:1011F0000F0EDBCF11F00001800E111441E1D95028
:101200000C0FE96EDACFEAFF010EEE1801E1ED50A6
:1012100011E1080EDBCF12F0090EDBCF13F0DE5028
:101220001224106EDD501320116E10C0DEFF11C0AD
:10123000DDFF14D00A0EDBCF12F00B0EDBCF13F064
:10124000020EDB501224106E030EDB501320116EC1
:10125000020E10C0DBFF030E11C0DBFF040EDBCF5C
:1012600010F0050EDBCF11F0D89010361136D950A2
:101270000E0FE96EDACFEAFF1050EE5E1150ED5A14
:10128000D9500C0FE96EDACFEAFF010EEE1801E13A
:10129000ED5010E10A0EDBCF10F00B0EDBCF11F09A
:1012A000D950020FE96EDACFEAFF1050EE26115046
:1012B000ED220ED0080EDBCF10F0090EDBCF11F0BF
:1012C000D9CFE9FFDACFEAFF1050EE261150ED2218
:1012D000060EDBCF10F0070EDBCF11F0D8901036E2
:1012E0001136D9500E0FE96EDACFEAFF1050EE2614
:1012F0001150ED22120EDB2A130E01E3DB2AA9D6D0
:10130000DECF10F0DDCF11F0113404E210503F08B1
:10131000000E11540DE2170EDB040AE1400EF36ECD
:10132000150EF3CFDBFF020EF36E170EF3CFDBFFCC
:10133000140EDB50106E116A020EDBCF12F0030E9A
:10134000DBCF13F0080E0D6E0E6A12C008F013C04A
:1013500009F044EC0FF008C012F009C013F012506D
:10136000101802E1135011181CE0080E106E116ADB
:10137000020EDBCF08F0030EDBCF09F010C00DF03A
:1013800011C00EF044EC0FF0140E08C0DBFF170E76
:10139000DBCFE6FF140EDBCFE6FF67EC00F0E55293
:1013A000E552170EDBCFE6FF150EDB50126E136A07
:1013B0001250DE5C106E1350DD58116E1050E66E48
:1013C00079EC00F0E552E552170EDBCFE6FFCFD8FF
:1013D000E552170EDBCFE6FFCAD8E552E76E160ED0
:1013E000E7CFDBFF020EDBCF11F0030EDBCF12F0F5
:1013F000080E0D6E0E6A11C008F012C009F044EC20
:101400000FF004C011F005C012F0010E11C0E7FF8B
:10141000E75204E0E846FE0BE706FCE1106E160E0C
:10142000DBCFE7FF1050E712160EE7CFDBFF170EFA
:10143000DBCFE6FF150EDB50126E136A1250DE5C36
:10144000106E1350DD58116E1050E66E79EC00F0FE
:10145000E552E552170EDBCFE6FF160EDBCFE6FFB7
:1014600046EC00F0E552E552180EE15C02E2E16A5A
:10147000E552E16EE552E7CFD9FF1200D9CFE6FF82
:10148000E1CFD9FF030EE126FE0EDB507F0804E317
:10149000FD0EDB503F0801E260D0FE0EDB503F083E
:1014A00006E2400EDF6EDE52020EDD6E04D0DF6A11
:1014B000DE52010EDD6E010EDBCFE6FFFD0EDB50CE
:1014C000F80BE842E842E842E66E67EC00F0E552CD
:1014D000E552010EDBCFE6FFFE0EDB50D880DF5475
:1014E000E66E79EC00F0E552E552010EDBCFE6FF47
:1014F0003ED8E552010EDBCFE6FF39D8E552E76E64
:10150000020EE7CFDBFFFD0EDB50070B116E010E65
:10151000115204E0E846FE0B1106FCE1106E020ECB
:10152000DBCFE7FF1050E712020EE7CFDBFF010E23
:10153000DBCFE6FFFE0EDB50D880DF54E66E79ECA1
:1015400000F0E552E552010EDBCFE6FF020EDBCFE5
:10155000E6FF46EC00F0E552E552030EE15C02E2E4
:10156000E16AE552E16EE552E7CFD9FF1200D9CF2B
:10157000E6FFE1CFD9FFE65296688E868E84FE0E96
:10158000DB50030A09E0010A05E0030A01E006D086
:101590008E9804D08E9A02D0FF0E0AD08E8284508C
:1015A000DF6E8E928E948E888E8A966ADF5000D07F
:1015B000E552E552E7CFD9FF1200D9CFE6FFE1CFE0
:1015C000D9FFE65296688E968E84DFBEFED78E9443
:0C15D000966AE552E552E7CFD9FF120001
:0415DC00000000000B
:1015E0000000004F00000007000700147F147F1464
:1015F000242A7F2A12231308646236495522500098
:1016000005030000001C2241000041221C001408B8
:101610003E081408083E080800503000000808087A
:101620000808006060000020100804023E5149458F
:101630003E00427F400042615149462141454B31C5
:101640001814127F1027454545393C4A4949300155
:10165000710905033649494936064949291E0036AC
:1016600036000000563600000814224100141414FD
:10167000141400412214080201510906324979412B
:101680003E7E1111117E7F494949363E414141223A
:101690007F4141221C7F494949417F090909013E97
:1016A0004149497A7F0808087F00417F4100204076
:1016B000413F017F081422417F404040407F020C9F
:1016C000027F7F0408107F3E4141413E7F090909A6
:1016D000063E4151215E7F09192946464949493153
:1016E00001017F01013F4040403F1F2040201F3F3C
:1016F0004038403F631408146307087008076151BD
:10170000494543007F414100020408102000414147
:101710007F000402010204404040404000010200FA
:101720000020545454787F4844443838444444207A
:10173000384444487F3854545418087E090102083C
:101740005454543C7F0804047800447D40002040F9
:10175000443D007F1028440000417F40007C041875
:1017600004787C0804047838444444387C14141405
:1017700008081414147C7C080404084854545424A5
:10178000043F4440203C4040207C1C2040201C3C26
:101790004030403C44281028440C5050503C446495
:1017A000544C4400083E410000007F000000413ED0
:1017B00008000601020403000066000000000800A3
:1017C0000000000000000000000000000000000019
:1017D0000000000000000000000000000000000009
:1017E00000000000000000000000000000000000F9
:1017F00000000000000000000000000000000000E9
:1018000000000000000000000000000000000000D8
:10181000000006070100000407030060500060504C
:1018200005030005030000000000000000000000A8
:1018300000000000000000000000000000000000A8
:101840000000000000000000000000000000000098
:101850000000000000000000000000000000000088
:101860000000000000000000000000000000000078
:101870000000000000000000000000000000000068
:10188000000000007C5554450000000000000000EE
:101890000000000000000000000000000000000048
:1018A0000000000000000000000000000000000038
:1018B0000000000000000000000000000000000028
:1018C0000000000000000000000000000000000018
:1018D00000000000385554551800000000000000BA
:1018E00000000000000000000000000000000000F8
:1018F00000000000000000000000000000000000E8
:10190000007F494949337F494949367F0101010335
:10191000E0514F41FF7F4949494177087F087741AE
:10192000494949367F1008047F7C2112097C7F08D1
:1019300014224120413F017F7F020C027F7F080873
:10194000087F3E4141413E7F0101017F7F09090936
:10195000063E4141412201017F010147281008074D
:101960001C227F221C63140814637F404040FF0741
:101970000808087F7F407F407F7F407F40FF017FD6
:101980004848307F4830007F7F48484830224149EE
:10199000493E7F083E413E462919097F2054545450
:1019A000783C4A4A49317C545428007C0404040C95
:1019B000E0544C44FC38545454186C107C106C4463
:1019C000445454287C2010087C78422412787C10DF
:1019D00028440020443C047C7C0810087C7C1010C7
:1019E000107C38444444387C0404047C7C14141473
:1019F00008384444442004047C04040C5050503CF7
:101A00003048FE483044281028447C404040FC0CBC
:101A10001010107C7C407C407C7C407C40FC047C32
:101A20005050207C5020007C7C50502000284444A2
:0C1A300054387C10384438085434147CBE
:041A3C00D9CFE6FF19
:101A4000E1CFD9FF020EE1260F0EC112070EB4122C
:101A5000926A936A946A956A966A976A986A996A8A
:101A60009A6A04EC00F08E8C2F0EE66E1F0EE66E66
:101A7000080EE66E030EE66EE5EC00F0E552E55268
:101A8000E552E5522A0EE66E1F0EE66E090EE66E70
:101A9000040EE66EE5EC00F0E552E552E552E55243
:101AA0003D0EE66E7D0EE66E020EE66EE66E3CECD8
:101AB00006F0E552E552E552E5523B0EE66E7B0E2E
:101AC000E66E040EE66EE66E3CEC06F0E552E5527C
:101AD000E552E5528E8CDE6ADD6ADECF10F0DDCF96
:101AE00011F0D890115004E6400E105C000E115811
:101AF00017E2030EE66EDECF10F0DDCF11F0C00E60
:101B00001024E66E25EC00F0E552E552640EE66E18
:101B1000C9EC0EF0E552DF2A010E01E3DB2ADDD726
:101B2000030EE66EC00EE66E25EC00F0E552E552BF
:101B3000E80EE66E030EE66E85EC0EF0E552E55219
:101B40008E9CDE6ADD6ADECF10F0DDCF11F0D8901A
:101B5000115004E6400E105C000E115829E2010EEF
:101B6000E66EDECF10F0DDCF11F03F0ED8801056BC
:101B7000000E1156C00E1024E66E25EC00F0E55262
:101B8000E552020EE66EDECF10F0DDCF11F0C00E92
:101B90001024E66E25EC00F0E552E552640EE66E88
:101BA000C9EC0EF0E552DF2A010E01E3DB2ACBD7A8
:101BB000030EE66EC00EE66E25EC00F0E552E5522F
:101BC000E80EE66E030EE66E85EC0EF0E552E55289
:101BD0008E8CDE6ADD6ADECF10F0DDCF11F0D8909A
:101BE000115004E6400E105C000E115873E2DECF77
:101BF00010F0DDCF11F00A0E0D6E0E6A10C008F065
:101C000011C009F044EC0FF004C010F005C011F051
:101C10001050111011E18E8C010EE66E3E0EE66E34
:101C200025EC00F0E552E552020EE66E3F0EE66E40
:101C300025EC00F0E552E552DECF10F0DDCF11F0DB
:101C4000140E0D6E0E6A10C008F011C009F044ECBD
:101C50000FF004C010F005C011F01050111011E188
:101C60008E9C010EE66E3F0EE66E25EC00F0E5520E
:101C7000E552020EE66E3E0EE66E25EC00F0E552F1
:101C8000E552010EE66EDECF10F0DDCF11F03F0E13
:101C9000D8801056000E1156C00E1024E66E25ECAA
:101CA00000F0E552E552020EE66EDECF10F0DDCF19
:101CB00011F0C00E1024E66E25EC00F0E552E5525E
:101CC000640EE66EC9EC0EF0E552DF2A010E01E368
:101CD000DB2A81D7E80EE66E030EE66E85EC0EF089
:101CE000E552E552030EE66E3F0EE66E25EC00F07F
:101CF000E552E552EFD6020EE15C02E2E16AE552FE
:0A1D0000E16EE552E7CFD9FF1200B3
:061D0A00D9CFE6FFE1CF96
:101D1000D9FF040EE126020EDB6A030EDB6A020E17
:101D2000DBCF10F0030EDBCF11F0FD0EDBCF12F096
:101D3000FE0EDBCF13F011501318E8AE02D01334AF
:101D400004D01250105C1350115819E2DE6ADD6A9B
:101D5000DECF10F0DDCF11F0D890115004E6580E10
:101D6000105C020E115805E2DF2A010E01E3DB2AA6
:101D7000EFD7020EDB2A030E01E3DB2AD0D7040ED5
:101D8000E15C02E2E16AE552E16EE552E7CFD9FF9C
:101D90001200D9CFE6FFE1CFD9FF020EE126DE6ABD
:101DA000DD6ADECF10F0DDCF11F0FD0EDBCF12F0DB
:101DB000FE0EDBCF13F011501318E8AE02D013342F
:101DC00004D01250105C1350115805E2DF2A010EA6
:101DD00001E3DB2AE6D7020EE15C02E2E16AE552AA
:0A1DE000E16EE552E7CFD9FF1200D3
:061DEA00060EF66E000E6D
:101DF000F76E000EF86E0F010900F550056F09002F
:101E0000F550066F03E1056701D03DD00900F5509C
:101E1000006F0900F550016F0900F550026F0900CD
:101E20000900F550E96E0900F550EA6E0900090055
:101E30000900F550036F0900F550046F090009000F
:101E4000F6CF07FFF7CF08FFF8CF09FF00CFF6FF67
:101E500001CFF7FF02CFF8FF0F01035302E1045354
:101E600007E00900F550EE6E0307F8E20407F9D722
:101E700007CFF6FF08CFF7FF09CFF8FF0F010507DF
:081E8000000E065BBFD7120043
:081E8800006A0EAE4DEF0FF0F1
:101E90000D6C0E1EE86A0E22001E09AE55EF0FF003
:101EA000086C091EE86A0922001E6AEC0FF009BEE0
:101EB00065EF0FF000AE000C086C091EE86A0922FD
:101EC000046C051EE86A0522000C00BE5CEF0FF0F2
:041ED0000188FF0C7A
:0C1ED400056A046A100EE76ED89008360C
:101EE0000936043605360D50045C0E50055805E3DE
:101EF0000D50045E0E50055A082AE72EF0D7120046
:101F00001EEE00F02EEE00F0F86A019CF5EC0EF0EB
:0C1F10009BEC0FF01EEC0DF0FBD7120054
:041F1C0000EE00F0E3
:0A1F20000F0EEE6AEA62FDD7120010
:061F2A00C3F3F1E800CB57
:061F3000E5F2FFF2FC00E7
:021F3600120097
:00000001FF
