:060000000A128A11D82F3C
:100E7800B20007110330B400B40B402F83120313E0
:100E88008711B108031D4A2F07124B2F0716871524
:100E98000330B400B40B4E2F083083120313B30091
:100EA8008711B21F592F07165A2F071287150330BB
:100EB800B400B40B5D2F831203130310B20DB30BF0
:100EC800542F07150800B501B601311C712F3308DE
:100ED800B5070318B60A3408B6070310B30DB40DE6
:100EE8000310B20CB10C32083104031D692F350808
:100EF800B1003608B2000800A40022088313A90034
:100F0800AA012A08AC0021082902AB00031CAC0383
:100F1800013EB3002C080318013EB4002008AD00C0
:100F2800AE012E08B00024082D02AF00031CB00348
:100F3800013EB10030080318013EB20067273108AE
:100F4800A5003208A600B1012A303C27B101B10A38
:100F5800240883133C27B101B10A200883133C27D6
:100F6800B1012B303C27B101B10A210883133C277A
:100F7800B101B10A220883133C27B1012C303C2768
:100F8800A701A801CF2FB101B10A230883133C2779
:100F9800A70A0319A80A26082802031DD52F250821
:100FA800270203180800C72F83168701831207102A
:100FB80087120715871607110330A3003230A200E5
:100FC8002830A1001E30A00014308027FC30A30078
:100FD8004630A2003730A1005030A00046308027AC
:100FE800E030A3001630A2001430A1004630A00063
:080FF800323080270714FF2F9F
:02400E00F23F7F
:00000001FF
