:040000000C94DA2161
:140054001226AD26AD26AA26BE26BE26BE26BE26BE26BE2692
:14006800BE26BE26BE26BE26BE26BE2675003F15003F817F24
:14007C0086A041A100A244A4A83FB122B028B407B246B302E4
:14009000BF0BBE02BC13B80111223243546576AD02AF2F03E3
:1400A4000003123F123F12267F32130B34321A251A28037E34
:1400B80081817E0303081C086008080820300C031E21211E2D
:1400CC0000023F00322929261221251A18163F1027252518BD
:1400E0001E252518013905031A25251A0629291E24640814B2
:1400F40022141414221408022905023E49555D110E300C0B8B
:140108000C303F2525251A1E212121123F2121211E3F252503
:14011C00213F0505011E2121293A3F0404043F213F21302046
:140130001F3F0C12213F2020203F0618063F3F0204083F1E33
:140144002121211E3F090909061E2129112E3F09090936127D
:140158002525251801013F01011F2020201F030C300C0303DA
:14016C000C300C300C0321120C12210304380403312925239E
:140180007F41030C30417F02010240404040400102102A2A00
:140194003C3F2424181C2222141C22223F1C2A2A0C3E0902A4
:1401A8001CA2A27E3F04023C3DFD3F0814223F3E023E023C32
:1401BC003E02023C1C22221CFE22221C1C2222FE3E04020431
:1401D000242A2A12021F22101E20203E0E30300E1E201C20AC
:1401E4001E360808361EA0A07E322A2622087E817F81760868
:1401F800020102013C1211123C3F252525183F2525251A3F73
:14020C00010101603E21213F603F252525213B043F043B12BE
:140220002125251A3F1008043F3F1009043F3F040A11212071
:140234001E01013F3F0618063F3F0404043F1E2121211E3F4D
:140248000101013F3F090909061E2121211201013F01010723
:14025C002828281F0E113F110E21120C12213F2020203F60CA
:14027000070808083F3F203F203F3F203F203F60013F24243A
:14028400183F2424183F3F24242418122125251E3F041E2190
:14029800211E261909093F102A2A3C1E2525183E2A2A1C3E77
:1402AC000202603C223E601C2A2A0C36083E083614222A1434
:1402C0003E10083E3E11093E3E081422201C023E3E081008AA
:1402D4003E3E08083E1C22221C3E02023EFE22221C1C222292
:1402E80014023E021EA0A07E1C22FF221C360808363E20205B
:1402FC003E600608083E3E203E203E3E203E203E60023E2840
:1403100028103E2828103E3E282810222A2A1C3E081C2222EF
:140324001C2C12123E0000000100040009000C0010001400DD
:140338001500170019001B001E001F002200230026002A007F
:14034C002E00320036003A003E00420046004A004E004F0020
:1403600050005300560059005D00630068006D0072007700B9
:140374007B007F00840089008C008F00930097009C00A100EC
:14038800A600AB00B000B500BA00C000C400C900D000D500FF
:14039C00DA00DE00E000E300E500E800ED00EF00F300F7003F
:1403B000FB00FF00030106010A010E010F01100114011501CE
:1403C4001A011E01220126012A012E01320136013A013E0163
:1403D800430147014B014F015201530156015A015A015F01D5
:1403EC00640169016D01730178017D01820187018C0191012B
:1404000096019B01A001A501AA01AF01B401B901BE01C30121
:14041400C801CE01D301D801DE01E301E801ED01F201F80109
:14042800FD010102050209020C02110215021A021E02220215
:14043C0026022A022E02330237023B023F02430247024A0262
:140450004E02530257025C02600265026B02700275027902A2
:140464007D0283028702000034347F1A007F0B000111111039
:140478007F0B007F09000258998AC86676417F090000FF7FF6
:14048C000600158857A007F504B368857F08000F00F07F0419
:1404A000001678A002C006F507A004B6957F07000FFFF000E3
:1404B400000005C700C3004006D503300B601BB47F06000F89
:1404C8007F04000287DB003212355478643204102ED9807F44
:1404DC00050000FF00000048208F70259CEFFCDFFFEB841098
:1404F0008F705A207F04007F040004BA002BB7BFFDA75445DD
:1405040068CFFFA48A104BA37F04007F0400580A8014AFE8EE
:14051800307F0400015CF95502D21B300000000000000480CE
:14052C0000226BD7107F07003BEC622001B200000000000065
:140540002AC40039EA100024566766654210006FF71019A950
:14055400000000000000914A139E70035654332222233332EB
:140568001002EF816A06800000000006600028E605B7207F3E
:14057C0009001EF71000A3000000001BC7117D608F507F0A62
:140590000001FE5128EB0000000056AFC6C902D37F0C004FB1
:1405A400B5BFCB500000027027A9B006507F0C0008E587115C
:1405B800A000000650005C40057F0C000200D7300094000070
:1405CC000AC9128A00227F0C0002506F705CB700003726243A
:1405E000A400317F0D00910EC2541A0000640016A100407FFD
:1405F4000D009609E5000830008400288000407F0D006A04C4
:14060800F8101760009DB23A6001407F0D004901EA17CB7023
:14061C000181214A4002407F0D004700CB2212900280005A1D
:140630003002407F0D004500AC3000900296666A3003407FAD
:140644000D004400AC5667A0019EFF7A3103407F0D004300ED
:14065800AA6DFFB00155566A3102407F0D003200A93546A0BD
:14066C000160004A3102407F0D003100AA1000900192313A57
:140680005001307F0D002000B913239000ADB2297000307F13
:140694000E0002C707CC70008400279000307F0E0005C50076
:1406A800075000650015A200207F0E0009A3000830002838DA
:1406BC00239700107F0E002B61562900000AD8116A107F0FCD
:1406D0000079304BB6000006500149707F0E0002A630008374
:1406E400000001902AA5B3017F0D000984B812900000006813
:1406F800CFC47A107F0D007A43AFCB40000000079611499047
:14070C0012107F0A0005A62016C90000000002500014991174
:140720005874347F0444431000005B6210007200000000006C
:14073400835B01499204BEDA9888888763000007A6306B067B
:140748006000000000001BC300148A50059BA987653100000B
:14075C00039A620008B80000000000000390003136A94000E7
:140770001111000000028A84212002A10000007F04004A1A78
:14078400801557A9637F0400258A954301D32A100000007FD2
:14079800040003CA002EA2479AA9877889AA8532BB004C92A0
:1407AC007F04007F050029408F800134678888765320008F96
:1407C0005058107F04000F7F040001869B104200011453116B
:1407D4000005102BC8600000FFFF000F7F0500025700D200ED
:1407E8005007F503300A701672000000F000F00F7F06000503
:1407FC0089B002C006F507A004B6627F0400F000F00F7F0738
:1408100000047969B106E504B367637F0500FFFF000F7F08B9
:140824000001467964775444207F0600F000F00FFFF07F1477
:1408380000F000F00A001E127F06003666307F06007F050038
:14084C000568DB857F06007F04000165AFFFD8617F05007F73
:140860000400275AFEEEFE87207F04000000000276BEDEEEE9
:14087400EFFA837F0400000000275BCCDDDDCCEFA7200000F7
:1408880000000001749B7F04BBBDF972000000000007367F2A
:14089C0005AAA9DF87100000000063499888899888888DF7F9
:1408B000600000000451787F067778ED65000000170586554A
:1408C4006666555556658FA6200000713B88A8544444444559
:1408D8007AABF860000443B511AF8343333343149ACD740075
:1408EC00076700137EC23322225413233577102A6357568AB6
:14090000F6665665886757751530076420017AC66666674489
:1409140052001565100000000195107F0400627F04007F0462
:1409280000577F0566407F04000C001C137F070035547F05E9
:14093C00007F06003668A8507F04007F05002656CFFD857F39
:1409500004007F040005669EFFFFC740000000000000017687
:140964007CEDEEEEFB730000000000003748CCCCDDDDEFA765
:14097800200000000004637AABBBCCCCCEF9600000000056EF
:14098C00269999AAAABBBBEE7500000005606887888899993C
:1409A000AAAFA71000004604766666777888888CF7600003C2
:1409B400607CAAA7555666667778EC630017487325EE6444C0
:1409C800555556669F76004A6322349F9343444445886DC6A0
:1409DC0020186555487CA2323333425DEBF750000000056ED3
:1409F000E986433351038CDA610000000877579BBBB8728716
:140A040055577400000004854211246623514772167F040092
:140A1800134666653204400047557F07002356650000003000
:140A2C000E011C147F07001345627F04007F060035668A9773
:140A4000100000007F04000146668CFFF9600000007F0400FB
:140A54004667BDFFFFFE7400000000000037559CDDDDEEEFF5
:140A6800A7100000000006635AAABBCCDDDFF75000000003C9
:140A7C0073279889AABBCCCDFC720000004602776778899A7E
:140A9000ABBBDF85000005517CC97666778899AAAFC7100049
:140AA4003857668BFB55566778899CF740002A854323CF8475
:140AB8004555667789F86000012344598E934444556677DC5A
:140ACC006200000000073C723333445555AF65000000003760
:140AE0008FE953233447C98F86000000002A758DEC843420CB
:140AF4008FDDA61000000003775359DEB62355CEC6307F0453
:140B08000002577436A5177868A6407F060026764035028834
:140B1C0043607F0700036661000672607F080001000000472B
:140B30002010021A167F080011220000007F05000134555631
:140B4400776000007F0400146667789CDD85000000000026C6
:140B58006558ADEFFFFFC710000000366347ACCCCDDEEFF871
:140B6C00400000265237A9999ABCDDEEF9600003633798662F
:140B80007889ABBCDDFD630009679BEEA766789AABCCDF95B9
:140B94000006975348FD6567889AABBFB60000024776BF94F8
:140BA8005567889AAED720000000196C83445667889BE64064
:140BBC000000003509534444566789F75000000075BFA42384
:140BD00034455678F8500000005A69FE7323345666E96100F1
:140BE400000004865BFC63335DB6CA527F040006856DFB528F
:140BF80007FDBB527F050027857E70676EEA537F0600387576
:140C0C00127587D9537F07005836204986537F07000142007B
:140C200004A2437F0B0056527F0B00043012041A177F05001C
:140C3400012233332110000000000003456666676677660034
:140C480000000146654568ABDDDDDDC84000004643369BBCDF
:140C5C00CCDEEFFFFA600004836ABA88889ABBCDEEFD710059
:140C700003A978DFB66789ABCDDEFE730000147658FD667843
:140C84009ABCCDEF740000000486BF956789ABBCDF8500003D
:140C98000000096C94556889ABBFA600000000630653455692
:140CAC00789AAEB61000000273BA33444567899DB610000070
:140CC0000198BFB3334456788DA6200000001868FC42344546
:140CD400577CA5207F0400878FE52346666CA6207F0400066C
:140CE80086DF7326EA5BA5207F0500596CF500BF9B85107F44
:140CFC000500039692096BFC65107F060029507487DD5600A3
:140D10007F0600016730298A36007F0900049635007F0A00E9
:140D24008534007F0A002861007F0A0001100016061617010C
:140D380034556555555542100000365445567789987666537C
:140D4C00008658ABCDDDEEFFFDBA98603998DEA6788ABCDFD2
:140D6000FFFD7200586BFA6789ABCDEEFF83000396CF867816
:140D74009ABCDEFF8400001A8F946789BCCDEF74000065082E
:140D8800745678ABCCDF74000541354445678ABBDF75000641
:140D9C007AF833445679ABCE85000197CF623445689ABD6428
:140DB0000000297EE423456788BC6400000397FD3334567861
:140DC400BA53000000498FB3356567B8520000000689FA23CC
:140DD800CC66B6607F040077BD008FC6B5607F040008830789
:140DEC008AF984507F040001936477EC55307F050015202858
:140E0000AC36107F0700079926007F070002A444007F0800A9
:140E14009361007F08003730001806161A7F0B0005666555EB
:140E280054327F0500293567777666653100000006A9EEDE83
:140E3C00FEDCA87652000000587EC78ABDFFEB7763000005AB
:140E500088FC6789ACEFFDA860000058BF7678ABCDEFFD739E
:140E64000000396E85789ACDDEFF730005510765678ABCDED2
:140E7800FE7300272544445689ABCDFC6200088FB334567820
:140E8C009BCCFA5200048AF73345679ABCF860000087ED33E6
:140EA000345789ABE8500000299F823456789BC65000000644
:140EB4008CE43345678BA63000000198FA3455678B661000F6
:140EC800000058BF53CC66894600000000088C108FB69653D9
:140EDC00000000000392188CF79361007F0400666388FA53BD
:140EF00060007F0400020068DA2620007F060038B6260000E8
:140F04007F060018A26200007F060008635000007F0600066D
:140F1800761000007F0700410000001A07161B0033207F084C
:140F2C000004546654207F06000485897666527F05000079BD
:140F4000CFEEC976637F040000087ED9DFFC97640000000086
:140F54000298F968BEFEA7620000000058DE6789BEFD775021
:140F6800000002688E6689ABDFFB8610004531295678ABCD8E
:140F7C00FFE9600073454445689BCDEEFB610068DC3345679B
:140F90009ACDEEF9500028AF5344678ABCDEF75000088F9246
:140FA400345689BCDEB53000058DD3345679ABCE760000014F
:140FB80089F62345789ACD6500000078FA2345679AC96200F4
:140FCC00000048CE5455678AB560000000189F66DA578A75FF
:140FE00030000000068801CF868836000000000392598FB6F8
:140FF4008463000000000046357CD7536000007F0400038B70
:14100800D5171000007F0400027AA0540000007F0400017AE7
:14101C0032600000007F04000197177F04007F0500A4727F60
:1410300004007F050047207F04001C08141C0013107F07003D
:14104400016465307F060000857866417F05000049AFD867BA
:14105800407F040000088EEFE9663000000000048CE8CFD89E
:14106C0075000000000089F969EFC7720000001287EB678C71
:14108000FE87300003654089578ABFF8730006325455578AA9
:14109400BCFF9740058BA444578ABCDFFB73047CE3345689DE
:1410A800BCDEFFA6028AF4345689BCDEEFA50188F5345679B3
:1410BC00ACDEFE650078F7244578ABCDF9610067EA244578DF
:1410D000ABCEC4500057DC2345689BCD66100038BF554567A6
:1410E4009ACA55000028AE5CD6678AA4700000097108FB575E
:1410F8008946300000067588DD678455000000002137AE6758
:14110C004460000000000037AE632700000000000036AA11CB
:141120007100000000000047B217100000000000005A42711D
:141134007F040000000088377F050000000047507F05001CAA
:141148000A141C000046407F060000027276307F05000000B0
:14115C0087A8657F0500000058BFB6727F0400000038AEFEC1
:1411700077400000000000188F8DF8750000000000078F95E8
:14118400BFA75000000036684DA56AFC660000016144077523
:1411980078BFC750000173895345689CFA64000178E5334528
:1411AC0068ABDF87200178F4234568ABCEF7700178E42335C4
:1411C00068ABCDFE750178E4234568ABDEEFA50178E42345B9
:1411D40078ABDEEF750178F4234568ABCDFA350178E42345F9
:1411E80068ABCEB3700178F8534568ABCC26200189B8EB454F
:1411FC00689BC36300009623CF85789A4550000036698EA530
:1412100078835500000000075D9575155000000000174E85BD
:1412240031640000000000366D301730000000000054A4040B
:14123800727F040000007841757F05000001B647207F050059
:14124C00000056307F06001C0B141D000000017F06000000A5
:141260000166507F050000000263867F050000000087C76121
:141274007F040000000077DE771000000000000077DFE7705A
:1412880000000000000067EAEE6600000000024276EA6FD6C4
:14129C0050000000264661B958FB74000000441B726657AF64
:1412B00097200000558A8444678CF760000064D81334679AFE
:1412C400FD64000074D62335689ACF86000175D4233568AB07
:1412D800CFD6500367D3234578ABCEF9610459B2234579AC81
:1412EC00DEFE64064B92334679BCDEFF65074D81334689BC48
:14130000DEF945078FD9435689BCDF937119748FC45689BC12
:14131400D5271004768CF65789BB437000000386D66789839D
:14132800560000000535B667643640000000070AA5421472AC
:14133C0000000000534C3003747F040001659103657F0500F1
:1413500005962475107F05000396637F070000017F08001A9D
:141364000D161C7F0500107F05007F04000267107F04007F20
:1413780004000537807F04007F0400055A867F04007F0400B0
:14138C00066AD6500000007F0400066AFA7300000000000057
:1413A00010075CCF8700000000000366574E8CE650000000A0
:1413B400000716731C67FA7100000000350CE63756BF7500BF
:1413C80000000062686644578FB62000000071A72234678C80
:1413DC00F75000000453B32345689AFA6100000627922345C0
:1413F00078ABED640000161A52334679ABDF760000544B3230
:1414040034568ABCDFA6100071882334579ABDEFD630027604
:14141800FB4334679BCDEFF75003978EE54568ABCDEFF450E4
:14142C0000576AFA4678ABCEFB3640000096CA4679ABDB5351
:141440006400000350875789AB725610000008039677775315
:141454004730000000621C84321246400000000454A4001332
:1414680066407F04001976124664107F0500078565317F07C0
:14147C000000107F0900181016197F060005610000007F06FD
:141490000035670000007F060054883000007F060063A9602A
:1414A40000007F060073BE6400007F0400440363BF860000A8
:1414B80000000005556826ACD63000000000170A950888F749
:1414CC005000000000620AFA3666EA6100000002606646441D
:1414E00056BE640000000712832235679F8500000045075264
:1414F4003345689FA6100000703722335679ADD630000530FC
:14150800842334578ABDE640001606722345689ABDF6500035
:14151C00648F72334679ABCDF75000697CF734568ABCDEF922
:1415300060000578FD45679ABDEEFA510000768C45789BCD6A
:14154400EFFA52000550485679ABCEFE836000560376689AC1
:14155800BCC953462005506CA8888876335640005648842146
:14156C00111345652000006A7412335665427F04000455552C
:1415800044217F0600141218187F09003200007F080003785B
:1415940020007F0800064A60007F0800163B61007F0600111D
:1415A80000533E64007F0500027631706F75007F05001727F7
:1415BC0079219FA6107F0500712FB5068CC6307F0400073011
:1415D00049FA366AE6407F0400550463465568F65000000076
:1415E40004602632334568F86000000037026323345678F945
:1415F8006000000170164233456789EA61000007116523342F
:14160C005678AAEB620000285ED423356789BBFA5200000755
:1416200099FB3445789BCCFA5200000069CF445689BCDDFA90
:1416340052000003724B55679ABDDEFA5200005711465678D7
:14164800ABCDEEFA5100274036656789BCDEFFF8510383493A
:14165C00DDBABBCCDDDDCA636003A8753344566665323456A1
:1416700020003666554343444566542000000001234444437D
:141684003210000000121518167F0A0037207F090002788059
:141698007F0900073A817F0600015300552C627F0600274844
:1416AC0032706D637F050004708A78019E547F05005602AF40
:1416C000A2069E657F04000750254AF8467E6500000001748C
:1416D40003543345557E65000000282044322334568E65009D
:1416E8000002700443223345679E6500000746953233445650
:1416FC0078AE650000049AF9233456789ABD6500000069EF7F
:1417100033456789ABCD55000003756D4456789ABCEB540004
:141724000376203755678ABCDDF95204652146556779ABCD3A
:14173800EEF76119458CDA76678ABCDEEFF66006B867ADDD9E
:14174C00DCCCCDEFFFF55000257642358ACDDEEFFF953000E7
:1417600000036766444443334337007F0400124566666655CC
:14177400510010171A167F0B0001007F0B0069407F07000174
:1417880020000649707F0700467400635A507F06003743879B
:14179C002650C7507F0500266119F79305E6607F04000572B9
:1417B0000466EF5047D55000000004740255435CB557C45082
:1417C4000000006512553222334558A45000000372664322ED
:1417D80023345569954000000188FA22333445677B8520003B
:1417EC00000059DE33344566788C6610000136735D43456631
:141800007899AC5600156653223744567899ABCC5500663489
:14181400478755567789ABBCD953002A99DFC7556789ABBC9F
:14182800DDE56100027757DFDA889ABCDDDFC36000000377C9
:14183C0046BFFDCCCDDEEF85300000000377548CEFFFFFFF35
:141850005600000000000257655679CEF94400007F050035DD
:14186400665444437000007F0600012455551000000E1A1C17
:14187800157F0C0053007F070003564000167A107F06002500
:14188C00653680047298207F040001466323AE656608A51079
:1418A00000000003664224778FA7215D560000000055224627
:1418B40075433AF7369A350000000073576432222389658718
:1418C800440000000048DC32222333345694520001112368ED
:1418DC009F423333445567936000565655412A4334455667D9
:1418F00079745000844567864544556677888B5620003A9BD8
:14190400FC86555567788999AA46000002869FD756677899E6
:14191800AABBC7530000001876DFB8789AABBCCCC4600000AE
:14192C0000006859FFBAABCCCDDE64400000000003876BFF73
:14194000DCCDEEEB2700000000000004866BEFFFEEF56200C2
:1419540000007F0400157657BFFFA3600000007F050014665B
:141968005678377F04007F0600025664627F04007F08001323
:14197C00107F04000C1C1C147F0700124563000001007F04A8
:14199000000235666544780001579000000005664333457DFA
:1419A400C62157389200000036047889987BD6864199510052
:1419B8000000177A86533224FC324AC360365443488F4222B8
:1419CC0022238E978A3530724555432C523333333565672621
:1419E00000698BAA9536433344445556834400088CFC98549E
:1419F4004445555666677270000187CF855556666777778931
:141A080045400000196CFA677778888999A826000000029660
:141A1C00BFB88999AAAAAAB46200000000187AFDAAABBBCC9E
:141A3000BC74500000000000779FFCCCDDDDD927000000008A
:141A440000000687DFFEEEEEB1720000007F04004868EFFE05
:141A5800FE26300000007F040001676AEFF4547F04007F0593
:141A6C000002776745507F04007F06000374557F05007F0713
:141A80000004307F05000A1D1C137F0400567F04555620001D
:141A9400000000000005327F04556870000000266310055564
:141AA800BDCCCCCDF950003475634666486C84444444D775B7
:141ABC006656A8397A86540972222222AE64337B65078EFE8C
:141AD000D935433323326ED89BC3610289FA885443333333E7
:141AE40035877824500068BF747F075564270000087EE77F59
:141AF800066667616200000298FD877F0488778725500000A8
:141B0C0000499FD9999A999999943600000000058AFD7F042D
:141B2000BBAA6270000000000078BFECCCCCCCC837100000E4
:141B3400000000078AFFEDDDDD72710000007F0400688FFE0B
:141B4800EEE527100000007F04000587EFFE43707F04007FCE
:141B5C000500387AA3557F05007F0500017526307F05007FEF
:141B7000060006817F0600081C1E1401200000166532107F9C
:141B84000700056620006245555654327F050007276630712A
:141B98008ECA865556727F0400078BA65763A79BCEEDCB758C
:141BAC007F0400038BFFB71293222457CC537F04000088FBF7
:141BC000CE73432222227866445577000058DE5554333332C2
:141BD400328F944447A92000188FA555544433334CFBBBCAE9
:141BE800460000068DF766665555444579AA6072000001889C
:141BFC00FC7877776665555563073000000048CFA9999888EB
:141C1000777766307300000000088FEBAAAAA9988873074070
:141C240000000000029AFECCCBBBAA994173000000000000C9
:141C380058BFEDDDCCBBA42720000000000000078CFEEEDDE9
:141C4C00D934717F04007F040087DFFFFB42657F05007F04F2
:141C600000198DFD7256207F05007F040002976346307F06E7
:141C7400007F05002746407F07007F0600307F0800061A1E2B
:141C8800150037307F0C00006384000266527F08000075970D
:141C9C006106156664107F06000067DC66660BFB7566417FA9
:141CB00005000058CFF862388DFEA666527F04000038BDBF42
:141CC400C3452359EFD9871000000000189F769633322236A9
:141CD800BF761000000000078FA5444333322246367F04006B
:141CEC0000048DE665544333325B675432210000018AF977A8
:141D0000665544334FD65556A910000078FC8887765544473B
:141D1400DFECCB7710000048CFAA998876655457AA616400C7
:141D28000000089FDBBAA988776665400740000000059DFDD2
:141D3C00CCBBA99887630472000000000088FFDDCCBBA98651
:141D5000216600000000000048BFEEDDCCB9514730000000D9
:141D6400000000078FFFEFDA6346407F04000000000299FF07
:141D7800D83246517F05007F040049653356407F06007F0430
:141D8C0000056564107F07007F0500117F090006171A160075
:141DA000337F0B000367407F0A000547830002407F070004A4
:141DB4006A97303647307F0600047AF875718866207F0500CA
:141DC800047BEF8740AFB665107F0400047CCAFB2357EF9631
:141DDC00747F0400037BE58B633249FE8662000000028AF6C8
:141DF000544333224BFC884000000079F865443332236ED400
:141E04006000000078FA766544332235162000000068FC882D
:141E18007655433248481000000048EEA9887654435FB566E8
:141E2C0042000028CFBAA98766544AFD8667950007AFDBBBB0
:141E4000A98765557CFFC97800058EFDCCBA98776665532382
:141E54006300028BFEDDCBAA988641015620000079FFEDDC23
:141E6800CBA95202663000000048DFFFFDB96324662000001F
:141E7C000000088CA843334664100000000000038434556571
:141E9000417F05000000002443217F07000614181700117F92
:141EA4000A000168107F09000548707F0900064A747F09008E
:141EB800074D872036507F0600076DF6646367107F050017CD
:141ECC008DED6807E6727F0500279D8FE415EF77407F0400C8
:141EE00037AE57B9435CF8657F040037BE65443323AF9660E1
:141EF40000000037BE6654332238FB6610000037CE876543F9
:141F080032228FD770000028CE987654332237C56200002868
:141F1C00CFA987654333340360000018BFCAA9865443483958
:141F300000000007AFDBBA9865544EB5630000069FEDCBA995
:141F4400876549FC666300058EFDDCBA9876558EFC9A92034D
:141F58008DFEDDCBA9877766787574018BFFFFEEDCA9741053
:141F6C000036500078ABB99A964211246641000038543333BF
:141F800034456653100000000134444444327F050004121826
:141F940018000027307F0800000166907F0800000448827F78
:141FA800080000061A867F080000162DA62015107F0500003E
:141FBC00455DF66374717F05000063AAEC6719767F0500003A
:141FD00074D88FB22ED6607F04000176E758C746FB657F04E3
:141FE400000268E65433338F9640000000046BD76543322832
:141FF800F872000000057DC876543222AF77100000057EC981
:14200C00876543223CF6700000068FDA9876433225ED550074
:1420200000068FDBA98654333332450000068FECBA97654362
:142034003404600000068FEDCBA876544B69100000059FFEDB
:14204800DCB987654DE5730000059FFEDCBA986656EE76501E
:14205C0000048CFFFFECB987768EFA88200196678ADEDCBA14
:14207000986448867000156654444422100001464000000210
:14208400357F05666541007F0600117F0500020F181A7F04A3
:1420980000307F070000000006967F070000000055887F07F9
:1420AC000000000163A6107F060000000624C5307F060000DD
:1420C000001608F650017F05000000524AF86256507F040004
:1420D400000061A8CD6836837F0400000355C68FC24F767FCB
:1420E800040000063AA558C75DD64000000000165D865433E9
:1420FC0036F86100000000359D87653322AE650000000056C5
:14211000DC986543224FA62000000067FCA876533228F660E4
:1421240000000178FCA987543223EC630000026AFCBA9765EC
:1421380033238F860000037CFDCBA875433336353000047E31
:14214C00FEDCA976543300460000058FFEDCBA8754483840F6
:142160000000058DFFEDBA97654CC650000002978CFFECA81D
:142174006547FA65000000167558DFFDCA86AF9640000000B8
:14218800157655689ABB9AEB95000000000356653221110565
:14219C0047207F0500235666665455007F080011121000009C
:1421B0000D161B7F050005407F04007F050067A17F04007F03
:1421C40004000639817F04007F0400543B527F0400000000D9
:1421D80003609B537F04000000000702CC547F040000000073
:1421EC005317AD551530000000000260886F78658300000075
:14220000000625A65CF63C8500000000354B8656BA8F96109B
:1422140000000063AB7654333AD54000000267DA87543325E6
:14222800F7600000054CDA97653323DA620000065FDB986555
:14223C0043228E550000359FCBA97643224F76000056EFDC3D
:14225000B98653223CC6300068FEDCBA86543238F650017B92
:14226400FEEDCA9754333253600188EFFDCA976543101460AC
:1422780000387AFFDB9865485574000002776CFFB86649E687
:14228C005000000004868CFEB855FA6300000000167669DF9C
:1422A000DABF77007F04002675458BBCE7607F0500146743E7
:1422B4003247647F060001466642457F0800023540000B1463
:1422C8001C7F0600363000007F0500056A9000007F05006490
:1422DC00695000007F04000741D55000007F04007409C45031
:1422F000000000000006405BB4400000000000551669B4407D
:142304000000000003626858D5857500000017379756FC5545
:1423180087100000648B87548DAEC520000457CA8754334AB3
:14232C00C54000163DCA97643326E55000539FCA97643325E3
:14234000E6500165FECB98653323D760054CFEDBA8654322FE
:14235400C951168FFEDBA8754322AB5327AFFEDCA97543222A
:142368008D54069AFFDCA97543346D6500689FFCA976433207
:14237C000226000688FFC976544013550000587DFC8655B4FD
:14239000853000000487AFFA64E960000000002776BFE7BEA2
:1423A40065007F04005866BFCF86007F0400016855ABC74078
:1423B8007F050002675344717F0600015752627F080035309F
:1423CC000009141D7F07001200007F0600056B50007F050062
:1423E00003738950007F050066189520007F040027316D3665
:1423F40000000000000373379935000000000046368697437E
:142408000000000005758876A75421000000476A9875AE764A
:14241C006820000367BBA8756EE9B75000166CCB9875458C59
:14243000E5500065CECB98754326C450056DEDCBA87543361B
:14244400C45046AFEDCBA8754326B45087FFEDCBA875432675
:14245800B45048CFFDCBA8754336B450069EFECBA8754336F0
:14246C00B4500088EFCBA8754437C45000299FEB987544570F
:14248000945000039AFE987552000350000059AFE866733519
:14249400463000000689FE95B8653200000000587EF8AC5380
:1424A80000000000000486BFCE6500007F04003968DE86001C
:1424BC00007F04000177688720007F050004861450007F060B
:1424D00000176540007F07002300000008141C7F070001468E
:1424E400307F060003656B807F0500036525B6507F04000240
:1424F80065237D362000000001564478A636000000003755FA
:14250C008976836200000005769A97677260000000558CBA57
:142520008767B67420000659DCB98756FD67830066BEDCB9FE
:1425340086547DFD55056DFEDCB9865433994436BFEEDCA993
:14254800765433855217CFFEDCA97644339461059FFEDBA93A
:14255C007544349360018BFECBA875433583500069EFCB9813
:1425700065433674500018AFDA98654328643000059DFB87F4
:142584006546695520000089FE9765326426000000299FD7DC
:14259800673120160000000499FC5A5686620000000068AF19
:1425AC00AB85100000000000077AFD952000007F040087AFEF
:1425C000952000007F04000878863000007F0500782350002A
:1425D400007F050006635000007F0600351000000207141BB4
:1425E8007F07001345507F05000256656AA47F040014664322
:1425FC0049C5620000002665568ABB24400000167689AA878B
:14261000723600000466ABCA876651710002668CDCA9875828
:14262400254000378DFECBA8765BB7630068FFEDCBA8764799
:14263800FC88507DFEEDCB9865437EF5607BFFEDBA97654314
:14264C0037544059FFDCBA87543347261038DFDCB98654337D
:1426600055260008AFDBA8765433635300059FEA98654434FB
:14267400616000029CFB876543365350000079FD87655757E0
:142688003530000039BF966428B526000000078FE6650230D1
:14269C0045000000029AF9763963610000000068DFA7431498
:1426B0002000000000197ED6527F040000000399D5617F045F
:1426C400000000006884607F04000000000780607F04007F4A
:1426D800040084607F04007F040004207F04000206181A7FA0
:1426EC00070001222210007F05002456655557A800000000C7
:14270000035676566789BA68100000146688ABBBBCCC6163CA
:14271400000015778BDDCB9876620730000167CEFECBA9871C
:142728006630730000046EFFEDCBA8765716300000049FFE0F
:14273C00DCBA97655D97400000049EFEDCBA87554AF98600E8
:1427500000038DFDCBA9765433AF762000018CFDCB9875438D
:142764003354260000007BFCBA9765433450620000007AFCE8
:14277800A986544335236000000059FD987654334407100089
:14278C00000039DF9765433351450000000018AFA76566459B
:1427A000417000000000068FC6643CD5153000000000038CD0
:1427B400F7630481277F0400000088FA726940727F040000F6
:1427C8000058DD726166407F04000000189E64507F060000DD
:1427DC0000068B46207F060000000198267F070000000058D0
:1427F000167F070000000006647F07007F0400107F0700042C
:1428040006181700000134567F0466553200001467778AAA6A
:14281800AA999878AA600167BDDEEEEDDDDDEFEB6670036D97
:14282C00FFFEDCB9876665105610049FFEEDCBA987663027F8
:142840004000059FFEDCBA98766503710000058FFDDCB98778
:14285400655B59000000058FFDCBA876544DE6710000059F41
:14286800ECBA98654436FD550000059FEBA9865443346345BC
:14287C000000059FDA986554334402700000049EE8876543D7
:14289000334118100000038DE8765433342082000000028BC0
:1428A400F86567434307300000000089F8643CE630647F0481
:1428B800000078FA6305D704607F04000068EC616960377F40
:1428CC0005000038CD436284707F05000008AB1720147F064E
:1428E000000006A6267F08000003A2627F0800000084607F9A
:1428F4000800000016207F08000604181700002334444432C1
:14290800107F04000016789778887666542000000056DFFF7F
:14291C00FFFFECB976664100006AFFFFEDDCCDEFFEC9898129
:14293000027CFFEEDCBA98778BDDA775047DFEEDCBA9876632
:1429440053101562058FFDDCBA98766510266300068FECCB26
:14295800A98765561672000007AFDBBA9865545E8800000076
:14296C0017AFBA987654443CF860000017BFA9876544333586
:14298000B653000028BF9876544333430271000028BF8765F2
:14299400443334204710000028AF766753333105600000003D
:1429A80028AF7538F94400757F0400189F7402CF4017407F50
:1429BC000400089F703A8702827F0500079D22729237107F93
:1429D000050006A8081027507F060005A2547F0900049370A2
:1429E4007F09000067107F09007F0C0006021A160000001382
:1429F80022107F070000000167887665427F05000000056E0F
:142A0C00FFDBA9876420000000000016AFFFFFFFFD9766402C
:142A20000000000055EFEEDDCCCEFFC8664000000066FFED3A
:142A3400DCBA999BEFD8763000036AFDDCCBA9887669DFDA7D
:142A4800A500056DECCBAA9876666421354700068FCBBA98DB
:142A5C00766554100245640027AFBA98876554561576320001
:142A70000046BD99876654434D781000000056DC77665543B6
:142A8400333CE64000000066EA6655443333447360000000DD
:142A980076E8666433333310064000000177F754CD533310ED
:142AAC0005730000000278F6206FD42003757F0400027AC272
:142AC000069AD10266107F0400027B5074681067207F0500D2
:142AD400029807401857407F060002A2640001407F07000109
:142AE80086407F0A0000137F0B0008011C14000000026653FA
:142AFC00107F0700000000177BA865317F060000000066FF76
:142B1000FFC987517F05000000045BFEEFFFFB87517F0400EC
:142B24000000165EEEEDDCDFFB7740000000000054BEDDDC16
:142B3800CBAACFF966200000000267DDCCCBBA9988CFD774F4
:142B4C00000000055BDBBBAA99877768EF97500000166DBAC3
:142B6000A998876666678AEC970000458D99887766555431AF
:142B7400100456400064BB87766555444501245456300264DF
:142B8800C866655444334A48543221000548B665444433334C
:142B9C004EA67F0400063BA55BA4333344355530000000164F
:142BB0004E7207FA344320001620000000358A0047CF52104C
:142BC4000146637F040047A017589A000366417F0500592336
:142BD8007205802565207F06006856000176537F080016405E
:142BEC007F0C0008001E137F05000455307F07007F050056A4
:142C00009A86307F06007F0400056AFFEA76207F05007F0473
:142C140000458FEFFFD9757F05000000000366EEEEEEFFC81E
:142C2800727F0400000000276DDDDDDCCDFF873000000000F6
:142C3C00000065ACCCCCBBBAADF97500000000000457CBBB6A
:142C5000BAAA9998CFA75000000000163ABAA9999888777AB8
:142C6400FB6500000000636B988888776666669FB650000038
:142C7800026199777666655555699AFC7400000625A66555EC
:142C8C0055444444113338982000261A86875444433345132C
:142CA0003332245000626C528FA33332335C58445666200089
:142CB40063C3003CF53445565A657F04000379104698FA55EB
:142CC800431000167F04000692474058B300001245647F04A4
:142CDC000004864000492135666542107F04000020000006B5
:142CF0006543107F07005EFFFFFC2ECDFFF906E9CFC0009E2B
:142D0400CF20000BE5000000100000000000000000001CEFC1
:142D1800DB950CDEFFFF04E9EFFA00BCBF90003EF800000434
:142D2C0050000000000000000000049500000BFFE93007ED93
:142D4000FFFC03E9FFFF00CBCFD3007FF80000063000000080
:142D540000000030000008FC300009EFFA1007DCFFF605D94F
:142D6800FFFF03ECFFC400BE9300000100000AF600000DFF49
:142D7C0080000DCFFB001E9FFFD11EBEFFF30CFEB94001315C
:142D900000000000000000051000006FB00000ADFA0000CB89
:142DA400EF7002D8FFF505EBEFFE02BDCCC7000000000006B9
:142DB800F500000DFE10005ECF8000CBCFF202EBDFFB01BF37
:142DCC00FFFF0002458600000000000041000006FA00002EB9
:142DE000DF2000BCCF7006E8FFC008FDFFF3017CFFF70000CE
:142DF40027920000013000001DF30001DDF7000CCAF9008E9F
:142E08008FFB006FEFFD0004CFFF000004DC000004EA000031
:142E1C007FFD001AFFEC005FFFBC001CFBAC00009FCC0000D9
:142E300006EB00000022000002A800019FFE005FFFEC00BF2A
:142E4400FFCB002EEAD80003FCE600005EE300000450000046
:142E58000461005AEFF508FFFFE308FFFCC001ED9E70005FBC
:142E6C00BE20000AFA00000182000000135301AEFFFD04FFD9
:142E8000FFFB01DEFBE3008F9D90002FCE100009F5000001BF
:142E9400300001ACAAA406FFFFFD04FFFDF601EC9E9000CC21
:142EA800DB00009FC1000017100000000000001000000CFC9C
:142EBC0096202FFFFFE21EEFDFD11EC9EC101ECFA0000BF70E
:142ED00000000230000000AC610003FFFF9206FFFFFD08FA19
:142EE400BEF70ADBEB3009FD5000015000000000000000047A
:142EF8001000007FE50000DFFFB203FDFFFE08F9BEFC0BDE21
:142F0C00EA5006B72000000000000000000000033000003F28
:142F2000F60000BFFF7004FDFFF80BD9BEFF1DCDDCB608C894
:142F340041000000000000000000000AE300008FFE1005FEBB
:142F4800FFB02ECAEFF85ECCCEFC1ADDDCC50000000000005B
:142F5C004000001CF90002DFFF203EDCFFA0AEBADFF33ACD12
:142F7000DEF700037BC300003200002AFD0007FFFF408FCB3F
:142F8400FF908EDBDFE0039DEFF300005AA100000000000302
:142F98009D4005CFFFB06FDBFFC03DEAEFE0018EDFF2000264
:142FAC00BFF200000440000000000047ADF409FFFFF908FA32
:142FC000BFF8008FBFF70006FEF600003EF400000140000094
:142FD40000001799AA406FDEEFD02DBAFFA004EBFF70006FF0
:142FE800EF400008FE100000650000000000043100007FFF78
:142FFC00DC405EBCFFA00CBDFF6003FDFE0000AFF900001E00
:14301000F20000023000035100001CEEA6100BCCEFD107DAFC
:14302400FFE102EDFF6000AFFB00005FF2000007500069406F
:143038000000FDFB3000FCBEF900BCBFFF207DEFF8002DFF7F
:14304C0090000CFB000003700000DF700000FFFB1000FFFF0F
:14306000D200FFF9DA00FF9BD300FDEB2000CE9000001200D3
:143074000000024000000DF700003FFF60007FFFF500CFFA28
:14308800CE10FFAAEA00FEEC50009B60000000052000004F1A
:14309C00E10000BFF90002FFFF4007FFBDC00CFAAEC02EFE24
:1430B000C8200572000000011000001EE100009FF60003FF06
:1430C400FC000CFFDF405FD99E909FEEDC402653200000002A
:1430D80054000006FE00004FFF3002FFFF601EFECE907FDBDA
:1430EC00ADC029ABCC50000000000000002000002DF300042F
:14310000FFF6006FFFF607FEEEF70AFEB9F80159CEE40000B3
:1431140001200000023000019FF1006EFFF12CFFFFD06FDA22
:14312800BEC007DEBDA00005BD400000000000003891027C8A
:14313C00FFF37EFFFFE19FBBEF9008EB9F50003CED1000003C
:1431500053000000000028BDEFF7AFFFFFF43EBAEFB003EB27
:14316400AF30002DFA000001610000000000000000001600D9
:143178001A001E002201260428062A0A2C0D2C112C162C1A5E
:14318C002C1E2A2228262628222B1E2C1A2C162C122C0E2C66
:1431A0000A2B062904260222001E001A00160011000D0209F2
:1431B400040606030A010E00120004040045062842025600B4
:1431C800020455CC220004045520CFF42FFC02FC0401025CDE
:1431DC000404020A00220054852002040000008804045A00C0
:1431F0004F820C820045040158002C07000000000000000097
:143204000000000000000000000000000000000000000000B6
:143218000000000000000000000000000000000011039211EB
:14322C00039211039211039211039211039211039211BBA847
:14324000FBBBA8FBBBA8FBBBA8FBBBA8FBBBA8FBBBA8FBBB90
:143254003322B43322B43322B43322B43322B43322B43322DB
:14326800B4330000000000000000000000000000000000006B
:14327C0000000000000000000000000000000000000000003E
:14329000000000000000060708A8008CCC808CFC808FFF807F
:1432A4008CFC808CCC8008A8000607008A8008CCC808CFC834
:1432B80008FFF808CFC808CCC8008A802A0C2767787F078874
:1432CC007F07CCDEFF20008313557F07667F07CCDFEF800028
:1432E0008436897F07AA7F06DDDEFFEF80008557997F07AA14
:1432F4007F06CCCDEFDF84A58772B97F07887F06BBBCFFDE18
:1433080084F68781877F07667F0799CECF84C58780177F0713
:14331C00667F0799BDCF84A58682387F07667F0699988CCE27
:1433300082A48568757F07557F0677789BAE82648425687FF3
:1433440007887F0799878D800083127F08337F0755445B80EA
:143358000026347F08447F0777766B2000120722221FFE5272
:14336C002CF2222222222FA4EA2AE2222222222FC22AEEF25B
:14338000222222222C82226CC2222222224ACCCCACA32222B6
:14339400227CC8655578ACC6226CA521111333568CC40810B2
:1433A800A2222222D2222222C8222222AC2222228C22CA22F7
:1433BC007CAEFFC26AEC22DA5AF622AC4AF5228C4AFA22CA85
:1433D0005CCFACE25C27FF428A222222A6222222C222222248
:1433E4007222222212083CD720000000027C82224ACCA7666B
:1433F8007ACC82222222236AAA753222222222226CFCA522DC
:14340C00222222222FF6225D622222222226ACFC87222222DB
:14342000222227C645DF5222222222224CFC4222222208123D
:14343400222222252222222C2222225A222222A6232222C272
:14344800CFC425A0228FA870224FAA602CC42A60CF422A50CF
:14345C0026DA3A70222FC8A02AEC45C1CC4222D3222222A7CD
:143470002222224D2222222C222222231A1A222AC4447F046F
:14348400224458AD822222C844427F0422445688CA222C8452
:14349800422000202222458AAA8CA2AA24207F040020226C94
:1434AC00FDA8D6C4427F06002028FFFAAD52207F0700028F8F
:1434C000FFAC227F040002000000022AFFCA227F0500020009
:1434D400000004DFC820000000020000002000028FD8207FEF
:1434E80004000200200020004AC87F040020000200200000B3
:1434FC0026867F050002020200000004557F04000200200088
:143510000200000244000000020002002020000002227F0474
:14352400000200202000200002227F05000200002000000265
:1435380022207F040020202000000022027F0B000202027F27
:14354C000B0022207F0B0025807F0B002AD47F0B006C8D20C4
:143560007F090004C42AC27F09004C5222F8207F070004C56C
:1435740022222DD87F0600028C422206000E1A000000DB007A
:143588000000000004DF200000000009CF90000000002A8F0B
:14359C00D000000000774FF500000001A24FEB00000005802E
:1435B0006FED3000000A315EFE90000039123DFED100008578
:1435C400132AFEE60001A12236EFEB0006602244BFDD30085E
:1435D8002411448FAC90098F31446A4B9006BFA034743C30D0
:1435EC0001BCF125616B00008BF70641B600003BDD0524C1AB
:1436000000000ABF521980000005BEC03C30000001BCE07AFC
:14361400000000008CC1B5000000002DC4B1000000000AE90B
:14362800700000000005EA200000000000C900000006000E32
:14363C001A7F040007A0007F04003EF10000000001BEF200D3
:143650000000000A9EF400000000895FF500000004B25FD701
:143664000000002B409FC9000000A600CEBB0000088103BE06
:14367800AC00005A2024AEAC1002B301349EAD300750024488
:14368C008EAC40084921447D9C60077E4144693A80068D6061
:1436A00044521B70048C8044206B10039AA04304B300029934
:1436B400C0302A60000098D1018900000097E106B100000066
:1436C80088D03B300000006AA1B6000000005C8690000000F8
:1436DC00003E9A7F0400002EB27F0400000A407F040004014A
:1436F00012187F070047007F060007FF007F0500019DFD0025
:143704007F05003B9DFA007F040006B55FE700000000019A3C
:1437180040CDB6000000002B9205E7C400000005B71029A6D2
:14372C00C20000007A40035986C1000002A200444977B00012
:1437400000067112445A69A0000007464144595A8000000937
:14375400372244573B70000009281243411B5000001928133C
:1437680032005C2000002828031005B6000000373701017B96
:14377C004000000056460029A100000000747404A87F04007C
:143790000075815B507F0400007A56B27F050000BB997F0622
:1437A4000000FC607F060000637F0700020316147F09002868
:1437B800307F08004AFF807F0600017BBEFE207F0500039C7D
:1437CC00A6AFE9007F040015AC9417FAB40000000007BB73D9
:1437E000126E66B0000000006A411257961B6000000001B465
:1437F400015655724C1000000005902354455198000000000D
:143808000A4132444623C3000000003A1223445507A0000010
:14381C00000085032432311B5000000001A1222223204B00AA
:14383000000000068021232114A7000000000A214221149AA2
:14384400600000000048282126A9507F040000868238A830C5
:143858007F050002BB68A6107F060008FA847F080003727F77
:14386C00090000051A107F0D007F080013568ADF707F050037
:143880002579BCCCBBEFFF407F040006BBA987667DFDD700FA
:143894007F04004B5125678BEB59900000000002B50179994C
:1438A80099506B10000000000A700455545204B30000000078
:1438BC00008910234444302B600000000005A2013444440194
:1438D0009900000000002B401332212007B00000000001B5ED
:1438E40000011234104B200000000009615778877512A47FA4
:1438F8000400006968633222357A707F040003CCA5568999A2
:14390C0087537F050006EB7764317F08007F0D0000071A0C0C
:143920007F0500179754217F04007F040004BBABCDDCBA8693
:1439340053107F04007B6139BBAABCDFFFFB00000019A302CC
:143948008DEEEEEFFEDDE7000003B8202566789AB9449B3011
:14395C0000006B6103444444420029A1000019A30034444438
:14397000431004B7000002A6111100001121016B4000005B32
:1439840099ADEDCB97430028A20000009EECA8789ABCDA03B0
:14399800A87F0400012467899988855A507F04007F04001273
:1439AC003568827F050000061A0E7F0D007F05000387207FFD
:1439C00005007F040016BCBCDA407F040000000028CB734A90
:1439D400DEEC7200000000005ACA5114AFFFEEED93000002FC
:1439E8007BB831146779DFFFFEEEC6109A952003665444572C
:1439FC00BEFFFFFFF9DEDCDDA3012444433468569DED18CDBC
:143A1000CDFFC4001222321016AA500004ACBBEFE8213211E6
:143A240038A930000000028BBBDFE30159A620000000000053
:143A3800015ACB726A947F04007F05003999727F05007F0D89
:143A4C000000071A0C7F0400013468727F05000124679BCC30
:143A6000CCBBDD507F04007AAAAAA876657ADEE87F04004DBA
:143A7400EA5225789ABFFFFEB200000003DFEEA4587778DFC3
:143A8800FFFD4000000009DDFD3034445AFFFFE70000000024
:143A9C006DCFF60244458EFFFFB100000003CCEF90011112AA
:143AB0008DFFFE400000001ACDFD3346778865AFE67F04005F
:143AC4007DCFC6543223469CCB7F040004CB435678998754AF
:143AD800207F0500188765321000000000051A107F0D000431
:143AEC00A99753217F080002CB9BDDCCBA86427F0500006F05
:143B0000C55ABABBCDDE707F04000009EFB7CEEDCCDEF57FF7
:143B140004000000BCFC39CDEFFFFD2000000000002CCF9045
:143B28004568EFFFC0000000000004DDF503446EFFF90000AB
:143B3C00000000008CEF214448FFFE6000000000000ACFD047
:143B500002249FFFE3000000000001CCFB321005EFFD1000AF
:143B64007F04003DCEDEDDB9ADFFB0007F040006D97789ABE2
:143B7800CD9AF8007F05003678999889A8CC407F070001248F
:143B8C00578AAB807F0B0001000203161401617F090005BBB5
:143BA000A37F080001CBCEB5107F0600009E7AFEC8207F0581
:143BB40000003DE9DFEEDA407F0400000ACF9EFFEEEC6000BD
:143BC80000000005BEB3DFFFEEF70000000000BCF239DFFFEB
:143BDC00ED10000000007BF80458EFFE60000000002BCE02C1
:143BF000448FFEC00000000009BF50445BFEE4000000000493
:143C0400BDD00348FFEA0000000000BBFB3003DFED20000016
:143C180000006DCEFD613EFE800000000008CBBDFE97EFC06F
:143C2C00007F040016BBBCFFABF5007F0500049BBCE7BB0054
:143C40007F0600027BDEAC307F0700015BDA807F0900285078
:143C54000401121800437F070000AC607F0600009CF97F06B9
:143C680000008ABFC27F0500006A7EFD407F04000059CDFFEC
:143C7C00E87F04000039BCEFFEB10000000029AC6FFFFD30C6
:143C9000000000199D19FFFFE6000000098E139EFFEE300008
:143CA40000087E2247EFEE700000077D41448FEC90000005B7
:143CB8007C50445DDBA00000049CB0145CEBB0000002CCFBEC
:143CCC00104AEAC10000007DCFE308EAD200000005CCEF62CA
:143CE000DBD4000000002BCDFB7AD6007F04009DCFC5D80052
:143CF4007F040006DCF5AA007F05003CED7B007F050001AF5C
:143D0800BA107F060008CA207F0700480006000E1A00074023
:143D1C007F0400000CE27F0400002BFE7F0400003ABFA0005A
:143D3000000000585FF600000000664FFE30000000846EFFFE
:143D4400D10000009379FFFA0000009283DFFE70000192811F
:143D58008FFFE4000282714BFFFD1004736045DFEE800554D7
:143D6C0051448FCBA0074840446C8A90079EC0246A6B70028B
:143D8000DCF8036A5B50004DDF40795C300008CEF2486C2036
:143D94000000BCFD367C1000001CCFA28B00000004DDF19A1C
:143DA800000000007DF589000000000AFA870000000001DEA2
:143DBC00A5007F04003EA3007F040006B10000022222222226
:143DD00022222220006ACCCCCCCCCCCCCCCCCCA802222222B3
:143DE400222222222222200A200C202C202C202C202C202C2D
:143DF800202C202C202C202C202C202C202C202C202C202CBF
:143E0C00202C202C202C200C200A2000A200C202C202C2025A
:143E2000C202C202C202C202C202C202C202C202C202C202E6
:143E3400C202C202C202C202C202C200C200A2080E001896BC
:143E48000001EFFFB00AF60AF40EE001FB1FC000EE2FA00043
:143E5C00DF2F9000DF2F9000DF2FB000EF1FC000FE0EF0028C
:143E7000FB07F92CF300BFFF9000058500000000000000004C
:143E840000000000000000000000000000000000000000002A
:143E9800000000000000000000000000000000000000000016
:143EAC00000000000000000000080E000075000002FA00007B
:143EC0001EFA0004FFFA005FE8FA003B01FA000002FA000066
:143ED40002FA000002FA000002FA000002FA000002FA0000EE
:143EE80002F900000075000000000000000000000000000056
:143EFC000000000000000000000000000000000000000000B2
:143F100000000000000000000000000000000000000000009D
:143F2400000000080E0017981001EFFFE20CF607FC0FD000FF
:143F3800EF0E5000EF000002FD00000DF40000DF90000CF9C5
:143F4C000000AFA00006FC00000EFDBAA90EFFFFFF015555EC
:143F60005300000000000000000000000000000000000000FA
:143F7400000000000000000000000000000000000000000039
:143F88000000000000000000000000000000000000080E000F
:143F9C0039930008EFFE602FB02FF04F100BF102000EF00097
:143FB00015BF7000AFFF4000134EF1000005F88D0002FAAF44
:143FC4002005F72FD12EF107FFFF60002871000000000000B0
:143FD8000000000000000000000000000000000000000000D5
:143FEC000000000000000000000000000000000000000000C1
:144000000000000000000000000000080E0000055000002F12
:14401400E00000DFE00006FFE0000FACF000BF0CF003F50DA9
:14402800F00ED00CF06F611DF2CFFFFFFF3BBBCFFB00000C43
:14403C00F000000DF0000005800000000000000000000000FE
:1440500000000000000000000000000000000000000000005C
:14406400000000000000000000000000000000000000000048
:144078000000000000080E0034343008FFFFF50DFAAAA10E2B
:14408C00D000000F9000002FDDFC104FFBCFE02E300AF60042
:1440A0000002FA120001FBAF0004F86FA00DF20CFFFF8000BF
:1440B4007CB4000000000000000000000000000000000000C8
:1440C8000000000000000000000000000000000000000000E4
:1440DC000000000000000000000000000000000000000008C8
:1440F0000E00027500008FFFE103FD15FB0BF100CD0FE00000
:14410400001FC3DD502FFFDFF62FF601FE2FE000AF1FE000B4
:144118009F0EF000BF07F903FD00DFFFF20007C91000000087
:14412C0000000000000000000000000000000000000000007F
:1441400000000000000000000000000000000000000000006B
:1441540000000000000000000000000000080E025553313F27
:14416800FFFFFE09AABDFC00000AF100002F800000CF000062
:14417C0001F9000008F200000EE000002FB000006F8000007F
:14419000AF600000BF3000005A0000000000000000000000C3
:1441A400000000000000000000000000000000000000000007
:1441B8000000000000000000000000000000000000000000F3
:1441CC0000000000000000080E0006750000CFFF9009F93DB1
:1441E000F50EE001FB0FD000FB0AF509F500EFFFB006FD9ED6
:1441F400F31FE001FE3F9000DF3F9000DF1FF103FD08FFCF84
:14420800F4005DEC3000000000000000000000000000000035
:14421C0000000000000000000000000000000000000000008E
:1442300000000000000000000000000000000000000000007A
:1442440000080E0007500001EFFE300DF76FF06F9006F69EDF
:144258004001FC9E4001FD6F9005FE0EF77FFE02EFF9FE00CD
:14426C000200FC0B2003F80FD00CF109FDEF90008ED7000054
:1442800000000000000000000000000000000000000000002A
:14429400000000000000000000000000000000000000000016
:1442A800000000000000000000000000000000040E000000F0
:1442BC000000000000000000000000000000000000000000EE
:1442D000002FE00DA0060E000000000000000000000000000A
:1442E40000000000000000000FFFF00FFFF0000000000000CA
:1442F800000000000000000000E7BF9F7F5F4F3F2F271F1B71
:14430C0017130F0B07050302746050403028201814100E0C16
:144320000A080604030201592D4F66667365743D253300588D
:144334002D4F66667365743D253300646570746800646973F7
:1443480074616E63002532002533003C0831092C0A310B2DEF
:14435C000C330D1D0E230F3A1047115312631382148515896E
:1443700016761775188019861A771B851C9B1D9D1E911F92E8
:1443840020AF21C522CC23DB24E425E7260328FD28F029F2EF
:144398002AEF2B7F353936EE36B0376E381C39B2394D3AE44E
:0743AC003A953B543C153D1E
:1443B400CFE5D8E0CDBFDEBFC054D0400AEA08830024E0ECCD
:1443C800F0E014E0E83BF10711F00192FBCF0083E3E5F3E482
:1443DC00A0E6B0E013E4E33BF10721F0C89531960D92F9CF0E
:1443F0000E94E12FFFCF202E332401502220D9F708950E94F2
:14440400C730A80125E030E08A010E94DE30A8011A0141505F
:1444180050402220D9F73320C9F70E94CA3008950E94C73009
:14442C00A80103C008EE13E0E6DF1A01415050402220C1F72C
:144440003320B1F70E94CA3008950895089508950895089523
:14445400089508950895089508950895089508950895089532
:1444680008950895089508950895089508950895089508951E
:14447C00089587B3806B87BB88B38F7488BB87E58DB90330C2
:1444900009F46B9A089508950895089508950895089508952E
:1444A4000895089508950895089508950895089508950895E2
:1444B8000895089508950895089508950895089508950895CE
:1444CC0022242092C4002092C3002092C2002092D000209203
:1444E000CF002092CD002092CE0008950FB9089508950895BE
:1444F400089508950895089508950091C200802F8F5F8770BC
:144508008093C200282E8091C300821987708093C40085ECC6
:14451C0090E0E02FFF27E80FF91F008108950E94C73085ECAF
:1445300090E0E091C300FF27E80FF91F00834091C3004F5FD9
:1445440047704093C3002090C200842F821987708093C40088
:144558000E94CA3008952090C2008091C3008219877080932B
:14456C00C400082F089581ED90E0E091CF00FF27E80FF91F50
:1445800000838091CF008F5F8F7F8093CF002090CE008219CD
:144594008F7F8093D00008950091CE00802F8F5F8F7F809368
:1445A800CE00282E8091CF0082198F7F8093D00081ED90E091
:1445BC00E02FFF27E80FF91F008108950091CD00802F8F5F8E
:1445D0008F7F8093CD0081ED90E0E02FFF27E80FF91F008146
:1445E40008952090CE008091CF0082198F7F8093D000082F05
:1445F80008952090CD000091CF0002190F7F08950E94C53058
:14460C00402F6091B70477276030670769F06030E0E07E07B5
:1446200054F16430E0E07E0779F06630E0E07E07B9F021C09A
:14463400C398C298042F58DF779BFECFC29AC098C19A17C08E
:1446480081B38F6F81BBC398C198C09AC29842BBC29AC098D7
:14465C00C19A0BC081B38F6F81BBC398C09AC198C29842BB51
:14467000C29AC19AC09A0E94B33008950E94C530402F60910C
:14468400B70477276030670769F06030E0E07E0754F16430C4
:14469800E0E07E0779F06630E0E07E07B9F021C0C39AC29844
:1446AC00042F1EDF779BFECFC29AC098C19A17C081B38F6FD3
:1446C00081BBC39AC198C09AC29842BBC29AC098C19A0BC069
:1446D40081B38F6F81BBC39AC09AC198C29842BBC29AC19A46
:1446E800C09A0E94B330089500272091B70433272430E0E041
:1446FC003E0729F02630E0E03E0759F013C0222421BAC39A57
:14471000C19AC09AC29800B3C29AC09809C0222421BAC39AD8
:14472400C19AC098C29800B3C29AC09A08950E94C73022248F
:144738002092F3012092F20181E08093D1012092E00188E0E1
:14474C008093E1012092F9012092FA018FEF8093F7012092D0
:14476000F60102E010E060DEDA9802E010E05CDEDA9A02E06A
:1447740010E058DED99A08E210E054DE4427552704C00027BA
:1447880079DF4F5F5F4F4030E4E15E07C0F34427552709C06C
:14479C0084E790E0FA01E80FF91F04912FDF4F5F5F4F4E32A5
:1447B000E0E05E0798F30E94CA3008950E94C330802F807FC9
:1447C400A82E622F607F681710F4482F01C0462F802F8F70BD
:1447D800A82E622F6F70681710F4480F01C0460F042F0E94C2
:1447EC00B63008950E9458300E94BF302C970024088608827C
:144800000B862E883F88C10101969F8B8E8BF101E491E69518
:14481400E9832E883F88C10101969F8B8E8BF101E491EE8333
:14482800288C398CC1010196998F888FF101449146951C01AC
:14483C000196998F888FF10164912E8C26942F82822D09804E
:14485000800D815089872C8C260E2D822A8C240E2B822EA0E8
:144864000AA4200C2A862CA008A4200C2C8205E7C9DE08A128
:14487800C7DE08A10E80000D0150C2DE00240A829DC005E15F
:14488C00BDDE0F81BBDE0985B9DEAA248EC00880002021F05A
:1448A000642F0A9408821EC02E883F88C10101969F8B8E8B52
:1448B400F1012490422D622D6F3791F41C0101969F8B8E8B2A
:1448C800F101E491E150E8832E883F88C10101969F8B8E8BC0
:1448DC00F1012490422D622D0A8CA01408F433C00B80A014AC
:1448F00008F02FC00A800C8D001608F42AC00D81001638F5DD
:144904000884002019F00A9408861DC0288C398CC10101960F
:14491800998F888FF101E4908E2D8F3791F4288C398CC101A5
:14492C000196998F888FF101E491E150E887288C398CC1015F
:144940000196998F888FF101E4902E2D062F36DF602F0AA049
:144954001BA0002011F4112049F10CA0A01430F10C80A01443
:1449680018F50A800EA10016F8F00A850016E0F40B840020CF
:14497C0019F00A940B8612C0EAA1FBA1C190FBA3EAA38C2DC1
:144990008F3751F48191FBA3EAA381508B87EAA1FBA1C19070
:1449A400FBA3EAA32C2D062F07DF602F062F64DEA39409809A
:1449B800A01408F46ECF0A8003940A820A800E81001608F426
:1449CC005ECF2C960E94BC30249608952090DA012092F501D0
:1449E0002090DB012092F40122242092F9012092FA01089554
:1449F4000E94BF30C02E4091DA014695A090DC01A69405E776
:144A0800FFDD0091DB01FCDD2090DD010091DB01020D01501D
:144A1C00F5DD662710C005E1F1DD042FEFDD042F0A0D015009
:144A3000EBDDEE2403C00C2D21DEE394EA14D8F363952090B5
:144A4400DD01621560F30E94BC3008950730E0E01E0731F44A
:144A58002F30E0E03E0711F408E010E00093DE012093DF0104
:144A6C0008950E94C53005E7C9DD0091F401C6DD0091F401C1
:144A8000095FC2DD442723C005E1BEDD0091F5010695BADD93
:144A94002090F9010091F5010695020D0150B2DD66270EC0F8
:144AA80080E2849F10018BEF91E0280E391EE62FFF27E20DC2
:144ABC00F31D0081DDDD63952090F901621570F343954830CF
:144AD000D8F22090FA013090DA01320C3092F50122242092D4
:144AE400F9012092FA010E94B33008950E94C5302090F801B5
:144AF80080E2829D10018BEF91E0280E391EE091F901FF270F
:144B0C00E20DF31D4081002319F06091DF0102C06091DE0146
:144B20002090FA0120FE05C0407F862F8F70482B04C04F708A
:144B3400862F807F482B2090F80180E2829D10018BEF91E020
:144B4800280E391EE091F901FF27E20DF31D40830E94B330F4
:144B5C0008952090DC013090DA01320C2090FA012314C0F4AC
:144B700022242092F80107C00027BADF8091F8018F5F8093AE
:144B8400F8018091F8018830A8F38091FA018F5F8093FA01BF
:144B9800282E26942092F90108950E94BF30602F2090D1010E
:144BAC00222019F4062FDFDC1CC1462F4F3721F48FE7809340
:144BC000F30115C16091F30177276030E0E07E070CF40DC1F1
:144BD4008FE090E08617970774F002E010E09B010E94A3306C
:144BE800F80184E590E0E80FF91F05901490F00109946F376B
:144BFC00E0E07E0709F0F5C04093F30122242092F20141308F
:144C100019F405E7F9DCEBC0423009F0E8C005E1F3DCE5C0AA
:144C24002090FA0126942092F901442331F42090FA012220F2
:144C380011F019DFD8C04D3079F42090DA012092F5018091A9
:144C4C00F401885F8093F40122242092F9012092FA01C7C04A
:144C6000403611F47CDFC3C0403239F4662702C076DF6395AC
:144C74006430E0F3BAC080E2841708F0B6C0403C10F04156CD
:144C880001C0415282E0849FF0018AE293E0E80FF91FA5902B
:144C9C00B4904AC08091FA01803438F42090DC013090DA01A2
:144CB000320C831508F09BC01501C10101965C0182EA90E01F
:144CC400F101E80FF91F6491CC24C39422242092F80107C0E7
:144CD80000270ADF8091F8018F5F8093F8012090E001309063
:144CEC00F801321498F311C0262E2C2021F081E090E07C011A
:144D000002C0EE24FF240E2DF3DECC0C8091F8018F5F8093B9
:144D1400F8012090E1013090F801321448F38091FA018F5FCC
:144D28008093FA01282E26942092F90182E0849FF0018CE2C9
:144D3C0093E0E80FF91F05901490F001AE16BF0608F4A8CFBB
:144D500006DF4DC0042F92DC4AC08091F201823038F4042F9D
:144D640051DC8091F2018F5F8093F2018091F201823009F067
:144D78003AC031C08091F201823098F4282E33248F5F80934C
:144D8C00F2014090F30182E0849D200182ED91E0480E591E0B
:144DA000E22DFF27E40DF51D40838091F2018230F1F4809158
:144DB400F301843011F40EDE10C08091F301863039F42090EA
:144DC800DE01241641F4042F11DE05C08091F3018F3009F4E1
:144DDC0083D422242092F3018091F2018F5F8093F2010E94E6
:144DF000BC3008950E9458300E94C330AE01485F5F4FFA0168
:144E040040815181662772C08A2D8E3519F48BE1A82E65C05A
:144E18008A2D893019F489E0A82E5FC08A2D8D3019F48DE0BD
:144E2C00A82E59C08A2D8A3029F40DE0B4DE8AE0A82E51C025
:144E40008A2D853209F04DC08E819F8101969F838E831C01D4
:144E540001969F838E83F1012490622D662309F445C0653328
:144E680039F420E137E28A010E945F30005D95DE20E137E249
:144E7C008A010E945D30A801643330F028EE33E00E945F30AE
:144E9000005D87DE28EE33E08A010E945D30A801633330F00A
:144EA40024E630E00E945F30005D79DE24E630E08A010E94B4
:144EB8005D30A801623330F02AE030E00E945F30005D6BDE0A
:144ECC002AE030E08A010E945D30A801613350F0005D61DEE5
:144EE00007C00A2D5EDE8E819F8101969F838E83EE81FF819C
:144EF4002490A22CAA2009F087CF002750DE0E94B630249678
:144F080008950E94BF30422FA02E23972D843E84C1010196A2
:144F1C009E878D87F10164911C0101969E878D87F101E4910D
:144F3000E9832A2C26942A82262E269428826A81620D615082
:144F4400CC2405E75FDB042F5DDB042F0980000D015058DB8B
:144F5800EE242EC005E154DB0A8152DB062F50DB442722C0CB
:144F6C00CC2011F0CA941BC02D843E84C10101969E878D8706
:144F8000F101A4908A2D8F3781F42D843E84C10101969E8714
:144F94008D87F101E491E150CE2E1C0101969E878D87F10182
:144FA800A4900A2D67DB439508804015D8F2E3940980E014D5
:144FBC0008F4CECF23960E94BC3008950E94C530422F602FCD
:144FD0006093DA010C800092DC014093DB010E800092DD0157
:144FE400F9DC0E94B33008950E94C130622F402F2397CB8426
:144FF800AD848EEB91E399838883262F042F81DF81E08A830A
:14500C008C2D88508883262F042F0C5FD7DFEAECF1E304910C
:14502000E9DC81E08A838C2D88508883262F2F5F042F0C5F2C
:14503400C9DFEBECF1E30491DBDC81E08A838C2D88508883BF
:14504800262F2E5F042F0C5FBBDFECECF1E30491CDDC81E0EF
:14505C008A838C2D88508883262F2D5F042F0C5FADDFEDECB3
:14507000F1E30491BFDC8EEC91E399838883262F042F0C0D72
:14508400045041DF8A2D88508A8382E08883262F2C5F042F88
:145098000C0D045095DFEAEDF1E30491A7DC8A2D88508A83C4
:1450AC0082E08883262F2C5F042F0C0D025086DFEBEDF1E3F4
:1450C000049198DC8CED91E399838883262F2A0D2450042F8C
:1450D4000C0D045018DF81E08A838C2D88508883262F2A0DCE
:1450E8002450042F0C5F6CDFE8EEF1E304917EDC81E08A8350
:1450FC008C2D88508883262F2A0D2350042F0C5F5DDFE9EE54
:14511000F1E304916FDC81E08A838C2D88508883262F2A0D41
:145124002250042F0C5F4EDFEAEEF1E3049160DC81E08A834F
:145138008C2D88508883262F2A0D2150042F0C5F3FDFEBEE35
:14514C00F1E3049151DC8CEE91E399838883262F2A0D2450A4
:14516000042FD3DE8A2D88508A8382E08883262F2C5F042F3B
:1451740029DFE8EFF1E304913BDC8A2D88508A8382E08883BF
:14518800262F2C5F042F0E5F1BDFE9EFF1E304912DDC239696
:14519C000E94B930089523972FEF30E002E210E051DC88E086
:1451B0008A8380E1888322E004E506DF00E6F1DC2091FD023F
:1451C4003091FE0200E513E413DE239608950E94C7302397A0
:1451D80088E08A838EE0888329E206E5F1DE4091FC0247FFFB
:1451EC0004C041950DE2D7DC02C000E2D4DC242F33270DE481
:1452000013E4F8DD23960E94CA3008950E94C730239788E021
:145214008A838EE0888329E200E7D4DE4091FB0247FF04C084
:1452280041950DE2BADC02C000E2B7DC242F33270DE413E44B
:14523C00DBDD23960E94CA30089523972FEF30E0002711276D
:14525000FFDB88E08A8384E2888322E00027B4DE05E413E4EF
:14526400C7DD23960895239788E08A8388E1888324E204E0AF
:14527800A7DE0FE313E4BADD2396089523978BE28A838CE225
:14528C00888324E004E59ADE02E2AEDB81E08A838CE288834A
:1452A00024E004E591DE04E4A5DB8BE28A8382E0888324E04B
:1452B40004E588DE02E49CDB81E08A838CE288832EE204E55A
:1452C8007FDE04E493DB85E693E39983888325E002E617DE35
:1452DC0086EA93E39983888321E108E710DE88EE93E39983CA
:1452F000888326E202E609DE82E394E39983888320E106E5D9
:1453040002DE23960895239780E48A8380E888832227002751
:1453180057DE00276BDB239608950E94C73023978091E6013E
:14532C009091E7010A969093E7018093E6018836E1E09E079B
:1453400030F0222433243092E7012092E6018091EE01909138
:14535400EF010A979093EF018093EE018030E0E09E0734F462
:145368008EE591E09093EF018093EE018091F601816080933C
:14537C00F6018091FD029091FE020A969093FE028093FD0220
:145390008836E1E09E0730F0222433243092FE022092FD02B5
:1453A4008091FD029091FE02969587958A559040282E2092C6
:1453B800FB022092FC028091F60180628093F6012AE030E026
:1453CC000091FD021091FE020E945F30402F89E08017A0F16B
:1453E00001EA12D909E0041B0FD9493009F03CC02FEF30E057
:1453F400002711272BDB88E08A8380E4888322E40027E0DD72
:145408002090C1003324822D8F5F8093C100222D332703E3C8
:14541C0013E4EADC88E08A8380E4888322E400E4CDDD209097
:14543000C0003324822D81508093C000222D332707E213E475
:14544400D7DC10C0423148F08BE1841730F001EAD9D8042F30
:145458000251D6D805C08091F60180688093F60123960E9425
:14546C00CA3008950E94C13061971AE00091FC020E947D3032
:14548000802F875FA82E1AE00091FB020E947D30402F465FC2
:145494008A2D823018F482E0A82E04C084E18A1508F4A82EBD
:1454A800423010F442E004C084E1841708F444E18AEC9DE37D
:1454BC009093060480930504222420920E0440930D0486E13E
:1454D00080930C0483E080930B048FEF92E0909300048093F6
:1454E400FF0366273DC0442737C020900D04621540F12090AD
:1454F8000B0430900D04320C631508F520900E044215E8F01C
:14550C0020900C0430900E04320C4315B0F420900504309046
:145520000604C10101969093060480930504F101E491A09133
:14553400FF03B0910004ED93B0930004A093FF030AC0222410
:14554800E091FF03F09100042192F0930004E093FF034395D0
:14555C004B3008F4C6CF6395663108F4C0CFA0FE07C087E148
:145570009EE3909306048093050406C08BEE9DE39093060471
:14558400809305042A2C269420920E04222420920D0482E0B8
:1455980080930C0486E180930B048FEF92E090930004809329
:1455AC00FF0366273CC0442736C020900D046215F8F020902F
:1455C0000B0430900D04320C6315C0F420900E044215A0F0E4
:1455D40020900C0430900E04320C431568F4209005043090C6
:1455E8000604C10101969093060480930504F101A49001C01C
:1455FC00AA242A2DE091FF03F09100040081D8D8C02EE091EE
:14561000FF03F0910004C192F0930004E093FF0343954B305D
:1456240008F4C7CF6395663108F4C1CF2EE130E00091FD0216
:145638001091FE020E945F30980102E010E00E94A330F801B3
:14564C0088EA90E0E80FF91F20803180309204042092030485
:14566000C10101969093040480930304F101E491E695E09343
:1456740012041C0101969093040480930304F101E491E09339
:14568800110486E1888B8BE08E8782E08C8781E08A878FEF9A
:14569C0092E0998788878CE08E838EE58C832E2E2A822090A2
:1456B0001204288220910304309104040CE714E397D820909C
:1456C400F70126FE09C081E08093E00168DD7FDD9BDD222439
:1456D8002092E00161960E94B9300895239711DE2090F701BB
:1456EC0025FE01C0C9DD2090F70126FE15C08BE08A8384E1A2
:145700008883222702E572DC8BE08A8382E1888327E204E534
:145714006BDC8BE08A8382E1888327E20EE664DC2090F7016F
:1457280027FE07C084EC92E39983888324E306E5E8DB209010
:14573C00F70121FE10C084E18A838CE188832AE000274EDC2D
:1457500084E18A838CE188832CE2002747DC73DD84DD2090A2
:14576400F70122FE07C08AE08A8384E3888326E30EE13ADC5B
:1457780023960895229784EC92E39983888324E306E5BFDB76
:14578C00229608950E94BF30A697002409A20AA20B8E442767
:1457A0002090E6013090E7013C8A2B8A2090EE013090EF01EC
:1457B4003E8A2D8A2090F70120FEF2C328E631E00B891C898F
:1457C8000E945D301C8B0B8B2AE030E00E945F300DA36CC03A
:1457DC00442359F42B883C883A8A298A24E630E081010E94D9
:1457F0005F300F8B1AC0413071F424E630E009891A890E94DB
:145804005D301A8B098B2AE030E00E945F300F8B0AC02AE011
:1458180030E009891A890E945D301A8B098B18012F8A84E099
:14582C00849F00920A0482E70F88809D100185E49EE3280E57
:14584000391E30920604209205040024088E2EC020900A0410
:145854002F8A21C02090050430900604C1010196909306049D
:14586800809305048CE0088C809D20018FEF92E0480E591E15
:14587C00EF89FF27E40DF51DD101FA93EA93FD01A491E991EE
:14589000F991A0830F8803940F8A80910A048C5F0F880816D1
:1458A400C8F2088C0394088E888D8E3078F24395433008F4F1
:1458B80091CF2090F70123FE84C044277FC082E1849F10012E
:1458CC002AE030E00D891E890E945F302801420C531C24E254
:1458E00030E082010E945D30602F4423E1F482E0869FF001AF
:1458F40086E791E3E80FF91FE491E695E093AA0482E0869F18
:14590800F00187E791E3E80FF91FE491E093A90483E194E03C
:14591C009093B6048093B5041BC082E0869FF00186E791E39A
:14593000E80FF91FE491E695E093A60482E0869FF00187E761
:1459440091E3E80FF91FE491E093A50483E394E09093B40486
:145958008093B3040024088E2DC000240F8A24C084E0088C31
:14596C00809D100180E2869F200186EF9CE2480E591E6F889A
:145980007724F101E60DF71DE40DF51DE49180E2849F200161
:1459940083E194E0480E591E240C351CA62DBB27A20DB31DA5
:1459A800EC930F8803940F8A8F898430C8F2088C0394088E5E
:1459BC00888D883080F24395423008F47ECF8091A904885F60
:1459D000809399048091AA048C5F80939A048091A504885F17
:1459E400809397048091A6048C5F809398048091A104885F0F
:1459F800809395048091A2048C5F8093960480919D04885F07
:145A0C008093930480919E048C5F809394048FEF92E0909380
:145A200000048093FF038AE694E090930204809301041C0117
:145A340001969093020480930104F101E491E695E0930A0423
:145A48001C0101969093020480930104F101E491E09309046E
:145A5C001C0101969093020480930104F101E491E695E093EC
:145A700008041C0101969093020480930104F101E491E09347
:145A8400070480910A04815F8BA320900804820D81508CA38B
:145A980014E20DA10E5E0E948B3082E0809FF00180E690E045
:145AAC00E80FF91F208031803092040420920304C1010196AA
:145AC0009093040480930304F101E491E69580910A048F5F9E
:145AD4008E0F809312042090030430900404C10101969093FD
:145AE800040480930304F101E491809109048D5F8E0F809367
:145AFC0011042090030430900404C10101969093040480936B
:145B10000304F101E491E695E09310041C0101969093040432
:145B240080930304F101E491E0930F04309011043E0E3C8E7B
:145B38002090100430901204320C3D8E82E00DA0809DF00199
:145B4C0080E690E0E80FF91F20803180309206042092050488
:145B6000C10101969093060480930504F101E491E69580919C
:145B74000A048F5F8E0F80930E042090050430900604C1011A
:145B880001969093060480930504F101E491809109048D5FB8
:145B9C008E0F80930D042090050430900604C1010196909335
:145BB000060480930504F101E491E695E0930C041C010196A2
:145BC4009093060480930504F101E491E0930B0430900D04CA
:145BD8003E0E3E8E20900C0430900E04320C3F8E05E70E9476
:145BEC000423009109040E9404232090070400910904020DAF
:145C000001500E9404230024088E3AC105E10E9404230BA166
:145C14000E9404230CA10E94042300240F8A25C10B8C0020E3
:145C280021F04A8D0A940B8E24C02090010430900204C10128
:145C3C0001969093020480930104F10124902A8E422D4F3729
:145C5000A1F41C0101969093020480930104F101E491E1501E
:145C6400EB8F1C0101969093020480930104F10124902A8E5F
:145C7800422D20901104088C021408F43EC00C8D001608F099
:145C8C003AC0209012040F88021408F434C00D8D001608F0FF
:145CA00030C00AA0002019F00A940AA225C020900304309087
:145CB4000404C10101969093040480930304F101A4908A2D59
:145CC8008F37B1F42090030430900404C1010196909304045A
:145CDC0080930304F101E491E150EAA31C0101969093040496
:145CF00080930304F101A4902A2D0A8D0E94DE23402F2090B0
:145D04000D04088C021408F44DC00E8D001608F049C0209065
:145D18000E040F88021408F443C00F8D001608F03FC009A067
:145D2C00002019F00A9409A220C02090050430900604C101CC
:145D400001969093060480930504F10164916F3791F41C0140
:145D540001969093060480930504F101E491E150E9A31C011A
:145D680001969093060480930504F1016491862F807F898F94
:145D7C00803A18F0805488A302C0002408A2862F8F70898FF6
:145D90008A3018F08450C82E01C0CC2428A12C0D042F0E94EB
:145DA400DE23402F888D8431C0F08232B0F48F89873098F052
:145DB800833188F4E091FF03F0910004E190F0930004E09344
:145DCC00FF038E2D8F3701F42E2D042F0E94DE23402F2090FB
:145DE000F70123FE3EC02090A904088C0214D0F02090990484
:145DF4000214B0F42090AA040F88021488F020909A040214FA
:145E080068F4E091B504F091B6042191F093B604E093B504AA
:145E1C00042F0E94DE23402F2090A504088C0214D0F02090BA
:145E300097040214B0F42090A6040F88021488F0209098043E
:145E4400021468F4E091B304F091B4042191F093B404E09317
:145E5800B304042F0E94DE23402F042F0E943E230F880394D6
:145E6C000F8A209008040F88021408F4D5CE088C0394088EC0
:145E800020900704088C021408F4C0CE2090F70122FE29C06E
:145E94000DA000FE07C08DEA92E3909304048093030406C091
:145EA80086E992E390930404809303042224288A2E862C865F
:145EBC002A8633243986288688E38E8382E28C832A828DA195
:145ED0008C5F8695888320910304309104040AEF11E30E949D
:145EE400F8232090F70121FE5BC014E00DA10E948B3000238B
:145EF80009F054C01AE00DA10E948D3082E7809F100183E482
:145F0C009EE3280E391E398228822DE004E00E94852787EB5D
:145F200092E4998388832DE00CE00E9485271AE00DA10E943F
:145F34008B3082E7809F100183E49EE3280E391E398228822B
:145F48002DE000E10E9485271AE00DA10E948D3082E7809F7A
:145F5C00100183E49EE3280E391E398228822FE204E00E94AF
:145F7000852787EB92E4998388832FE20CE00E9485271AE01D
:145F84000DA10E948B3082E7809F100183E49EE3280E391EF0
:145F9800398228822FE200E10E948527A6960E94BC300895E9
:145FAC008DB18C7F8DB9002329F0802F83702DB0282A2DB860
:145FC0000895F89422242BBA2ABA28BA27BA25BA24BA22BA39
:145FD40021BA25BE2BBED19ABB9AD29ABA9AB99AB89AD09A83
:145FE800A79AA69AA59AA49AA39AD79AD69AD59AD49AD39A3F
:145FFC00D998C398DA9AC29AC19AC09AD89AAF9AAE98AD98FA
:14601000AC98AB98DF98DE98DD98DC98DB9883B3867080936D
:14602400B7040E94662204E00E944F222090B704222059F492
:1460380000E1B8DF0E94272203E00E943F228DB18C7F8DB97C
:14604C0003C0222422BA21BA789481B38F6F81BBC1980E940B
